{
	"Contracts/AddFiveStorage.sol": {
		"AddFiveStorage": {
			"abi": [
				{
					"inputs": [
						{
							"internalType": "string",
							"name": "_name",
							"type": "string"
						},
						{
							"internalType": "uint256",
							"name": "_favoriteNumber",
							"type": "uint256"
						}
					],
					"name": "addPerson",
					"outputs": [],
					"stateMutability": "nonpayable",
					"type": "function"
				},
				{
					"inputs": [
						{
							"internalType": "uint256",
							"name": "_peopleIndex",
							"type": "uint256"
						}
					],
					"name": "getListOfPeople",
					"outputs": [
						{
							"components": [
								{
									"internalType": "uint256",
									"name": "favoriteNumber",
									"type": "uint256"
								},
								{
									"internalType": "string",
									"name": "name",
									"type": "string"
								}
							],
							"internalType": "struct Person",
							"name": "",
							"type": "tuple"
						}
					],
					"stateMutability": "view",
					"type": "function"
				},
				{
					"inputs": [
						{
							"internalType": "string",
							"name": "_name",
							"type": "string"
						}
					],
					"name": "getNameToFavoriteNumber",
					"outputs": [
						{
							"internalType": "uint256",
							"name": "",
							"type": "uint256"
						}
					],
					"stateMutability": "view",
					"type": "function"
				},
				{
					"inputs": [
						{
							"internalType": "uint256",
							"name": "",
							"type": "uint256"
						}
					],
					"name": "listOfPeople",
					"outputs": [
						{
							"internalType": "uint256",
							"name": "favoriteNumber",
							"type": "uint256"
						},
						{
							"internalType": "string",
							"name": "name",
							"type": "string"
						}
					],
					"stateMutability": "view",
					"type": "function"
				},
				{
					"inputs": [
						{
							"internalType": "string",
							"name": "",
							"type": "string"
						}
					],
					"name": "nameToFavoriteNumber",
					"outputs": [
						{
							"internalType": "uint256",
							"name": "",
							"type": "uint256"
						}
					],
					"stateMutability": "view",
					"type": "function"
				},
				{
					"inputs": [],
					"name": "retrieve",
					"outputs": [
						{
							"internalType": "uint256",
							"name": "",
							"type": "uint256"
						}
					],
					"stateMutability": "view",
					"type": "function"
				},
				{
					"inputs": [
						{
							"internalType": "uint256",
							"name": "_newNumber",
							"type": "uint256"
						}
					],
					"name": "store",
					"outputs": [],
					"stateMutability": "nonpayable",
					"type": "function"
				}
			],
			"devdoc": {
				"kind": "dev",
				"methods": {},
				"version": 1
			},
			"evm": {
				"assembly": "    /* \"Contracts/AddFiveStorage.sol\":110:287  contract AddFiveStorage is SimpleStorage {... */\n  mstore(0x40, 0x80)\n  callvalue\n  dup1\n  iszero\n  tag_1\n  jumpi\n  0x00\n  dup1\n  revert\ntag_1:\n  pop\n  dataSize(sub_0)\n  dup1\n  dataOffset(sub_0)\n  0x00\n  codecopy\n  0x00\n  return\nstop\n\nsub_0: assembly {\n        /* \"Contracts/AddFiveStorage.sol\":110:287  contract AddFiveStorage is SimpleStorage {... */\n      mstore(0x40, 0x80)\n      callvalue\n      dup1\n      iszero\n      tag_1\n      jumpi\n      0x00\n      dup1\n      revert\n    tag_1:\n      pop\n      jumpi(tag_2, lt(calldatasize, 0x04))\n      shr(0xe0, calldataload(0x00))\n      dup1\n      0x534e934b\n      gt\n      tag_10\n      jumpi\n      dup1\n      0x534e934b\n      eq\n      tag_6\n      jumpi\n      dup1\n      0x6057361d\n      eq\n      tag_7\n      jumpi\n      dup1\n      0x6f760f41\n      eq\n      tag_8\n      jumpi\n      dup1\n      0x8bab8dd5\n      eq\n      tag_9\n      jumpi\n      jump(tag_2)\n    tag_10:\n      dup1\n      0x240fed70\n      eq\n      tag_3\n      jumpi\n      dup1\n      0x2e64cec1\n      eq\n      tag_4\n      jumpi\n      dup1\n      0x2ebce631\n      eq\n      tag_5\n      jumpi\n    tag_2:\n      0x00\n      dup1\n      revert\n        /* \"Contracts/SimpleStorage.sol\":800:961  function getListOfPeople(uint256 _peopleIndex)... */\n    tag_3:\n      tag_11\n      0x04\n      dup1\n      calldatasize\n      sub\n      dup2\n      add\n      swap1\n      tag_12\n      swap2\n      swap1\n      tag_13\n      jump\t// in\n    tag_12:\n      tag_14\n      jump\t// in\n    tag_11:\n      mload(0x40)\n      tag_15\n      swap2\n      swap1\n      tag_16\n      jump\t// in\n    tag_15:\n      mload(0x40)\n      dup1\n      swap2\n      sub\n      swap1\n      return\n        /* \"Contracts/SimpleStorage.sol\":505:595  function retrieve() public view returns (uint256) {... */\n    tag_4:\n      tag_17\n      tag_18\n      jump\t// in\n    tag_17:\n      mload(0x40)\n      tag_19\n      swap2\n      swap1\n      tag_20\n      jump\t// in\n    tag_19:\n      mload(0x40)\n      dup1\n      swap2\n      sub\n      swap1\n      return\n        /* \"Contracts/SimpleStorage.sol\":297:325  Person[] public listOfPeople */\n    tag_5:\n      tag_21\n      0x04\n      dup1\n      calldatasize\n      sub\n      dup2\n      add\n      swap1\n      tag_22\n      swap2\n      swap1\n      tag_13\n      jump\t// in\n    tag_22:\n      tag_23\n      jump\t// in\n    tag_21:\n      mload(0x40)\n      tag_24\n      swap3\n      swap2\n      swap1\n      tag_25\n      jump\t// in\n    tag_24:\n      mload(0x40)\n      dup1\n      swap2\n      sub\n      swap1\n      return\n        /* \"Contracts/SimpleStorage.sol\":967:1130  function getNameToFavoriteNumber(string memory _name)... */\n    tag_6:\n      tag_26\n      0x04\n      dup1\n      calldatasize\n      sub\n      dup2\n      add\n      swap1\n      tag_27\n      swap2\n      swap1\n      tag_28\n      jump\t// in\n    tag_27:\n      tag_29\n      jump\t// in\n    tag_26:\n      mload(0x40)\n      tag_30\n      swap2\n      swap1\n      tag_20\n      jump\t// in\n    tag_30:\n      mload(0x40)\n      dup1\n      swap2\n      sub\n      swap1\n      return\n        /* \"Contracts/AddFiveStorage.sol\":184:285  function store(uint256 _newNumber) public override {... */\n    tag_7:\n      tag_31\n      0x04\n      dup1\n      calldatasize\n      sub\n      dup2\n      add\n      swap1\n      tag_32\n      swap2\n      swap1\n      tag_13\n      jump\t// in\n    tag_32:\n      tag_33\n      jump\t// in\n    tag_31:\n      stop\n        /* \"Contracts/SimpleStorage.sol\":601:794  function addPerson(string memory _name, uint256 _favoriteNumber) public {... */\n    tag_8:\n      tag_34\n      0x04\n      dup1\n      calldatasize\n      sub\n      dup2\n      add\n      swap1\n      tag_35\n      swap2\n      swap1\n      tag_36\n      jump\t// in\n    tag_35:\n      tag_37\n      jump\t// in\n    tag_34:\n      stop\n        /* \"Contracts/SimpleStorage.sol\":332:386  mapping(string => uint256) public nameToFavoriteNumber */\n    tag_9:\n      tag_38\n      0x04\n      dup1\n      calldatasize\n      sub\n      dup2\n      add\n      swap1\n      tag_39\n      swap2\n      swap1\n      tag_28\n      jump\t// in\n    tag_39:\n      tag_40\n      jump\t// in\n    tag_38:\n      mload(0x40)\n      tag_41\n      swap2\n      swap1\n      tag_20\n      jump\t// in\n    tag_41:\n      mload(0x40)\n      dup1\n      swap2\n      sub\n      swap1\n      return\n        /* \"Contracts/SimpleStorage.sol\":800:961  function getListOfPeople(uint256 _peopleIndex)... */\n    tag_14:\n        /* \"Contracts/SimpleStorage.sol\":892:905  Person memory */\n      tag_42\n      tag_43\n      jump\t// in\n    tag_42:\n        /* \"Contracts/SimpleStorage.sol\":928:940  listOfPeople */\n      0x01\n        /* \"Contracts/SimpleStorage.sol\":941:953  _peopleIndex */\n      dup3\n        /* \"Contracts/SimpleStorage.sol\":928:954  listOfPeople[_peopleIndex] */\n      dup2\n      sload\n      dup2\n      lt\n      tag_45\n      jumpi\n      tag_46\n      tag_47\n      jump\t// in\n    tag_46:\n    tag_45:\n      swap1\n      0x00\n      mstore\n      keccak256(0x00, 0x20)\n      swap1\n      0x02\n      mul\n      add\n        /* \"Contracts/SimpleStorage.sol\":921:954  return listOfPeople[_peopleIndex] */\n      mload(0x40)\n      dup1\n      0x40\n      add\n      0x40\n      mstore\n      swap1\n      dup2\n      0x00\n      dup3\n      add\n      sload\n      dup2\n      mstore\n      0x20\n      add\n      0x01\n      dup3\n      add\n      dup1\n      sload\n      tag_49\n      swap1\n      tag_50\n      jump\t// in\n    tag_49:\n      dup1\n      0x1f\n      add\n      0x20\n      dup1\n      swap2\n      div\n      mul\n      0x20\n      add\n      mload(0x40)\n      swap1\n      dup2\n      add\n      0x40\n      mstore\n      dup1\n      swap3\n      swap2\n      swap1\n      dup2\n      dup2\n      mstore\n      0x20\n      add\n      dup3\n      dup1\n      sload\n      tag_51\n      swap1\n      tag_50\n      jump\t// in\n    tag_51:\n      dup1\n      iszero\n      tag_52\n      jumpi\n      dup1\n      0x1f\n      lt\n      tag_53\n      jumpi\n      0x0100\n      dup1\n      dup4\n      sload\n      div\n      mul\n      dup4\n      mstore\n      swap2\n      0x20\n      add\n      swap2\n      jump(tag_52)\n    tag_53:\n      dup3\n      add\n      swap2\n      swap1\n      0x00\n      mstore\n      keccak256(0x00, 0x20)\n      swap1\n    tag_54:\n      dup2\n      sload\n      dup2\n      mstore\n      swap1\n      0x01\n      add\n      swap1\n      0x20\n      add\n      dup1\n      dup4\n      gt\n      tag_54\n      jumpi\n      dup3\n      swap1\n      sub\n      0x1f\n      and\n      dup3\n      add\n      swap2\n    tag_52:\n      pop\n      pop\n      pop\n      pop\n      pop\n      dup2\n      mstore\n      pop\n      pop\n      swap1\n      pop\n        /* \"Contracts/SimpleStorage.sol\":800:961  function getListOfPeople(uint256 _peopleIndex)... */\n      swap2\n      swap1\n      pop\n      jump\t// out\n        /* \"Contracts/SimpleStorage.sol\":505:595  function retrieve() public view returns (uint256) {... */\n    tag_18:\n        /* \"Contracts/SimpleStorage.sol\":546:553  uint256 */\n      0x00\n        /* \"Contracts/SimpleStorage.sol\":572:588  myFavoriteNumber */\n      dup1\n      sload\n        /* \"Contracts/SimpleStorage.sol\":565:588  return myFavoriteNumber */\n      swap1\n      pop\n        /* \"Contracts/SimpleStorage.sol\":505:595  function retrieve() public view returns (uint256) {... */\n      swap1\n      jump\t// out\n        /* \"Contracts/SimpleStorage.sol\":297:325  Person[] public listOfPeople */\n    tag_23:\n      0x01\n      dup2\n      dup2\n      sload\n      dup2\n      lt\n      tag_56\n      jumpi\n      0x00\n      dup1\n      revert\n    tag_56:\n      swap1\n      0x00\n      mstore\n      keccak256(0x00, 0x20)\n      swap1\n      0x02\n      mul\n      add\n      0x00\n      swap2\n      pop\n      swap1\n      pop\n      dup1\n      0x00\n      add\n      sload\n      swap1\n      dup1\n      0x01\n      add\n      dup1\n      sload\n      tag_58\n      swap1\n      tag_50\n      jump\t// in\n    tag_58:\n      dup1\n      0x1f\n      add\n      0x20\n      dup1\n      swap2\n      div\n      mul\n      0x20\n      add\n      mload(0x40)\n      swap1\n      dup2\n      add\n      0x40\n      mstore\n      dup1\n      swap3\n      swap2\n      swap1\n      dup2\n      dup2\n      mstore\n      0x20\n      add\n      dup3\n      dup1\n      sload\n      tag_59\n      swap1\n      tag_50\n      jump\t// in\n    tag_59:\n      dup1\n      iszero\n      tag_60\n      jumpi\n      dup1\n      0x1f\n      lt\n      tag_61\n      jumpi\n      0x0100\n      dup1\n      dup4\n      sload\n      div\n      mul\n      dup4\n      mstore\n      swap2\n      0x20\n      add\n      swap2\n      jump(tag_60)\n    tag_61:\n      dup3\n      add\n      swap2\n      swap1\n      0x00\n      mstore\n      keccak256(0x00, 0x20)\n      swap1\n    tag_62:\n      dup2\n      sload\n      dup2\n      mstore\n      swap1\n      0x01\n      add\n      swap1\n      0x20\n      add\n      dup1\n      dup4\n      gt\n      tag_62\n      jumpi\n      dup3\n      swap1\n      sub\n      0x1f\n      and\n      dup3\n      add\n      swap2\n    tag_60:\n      pop\n      pop\n      pop\n      pop\n      pop\n      swap1\n      pop\n      dup3\n      jump\t// out\n        /* \"Contracts/SimpleStorage.sol\":967:1130  function getNameToFavoriteNumber(string memory _name)... */\n    tag_29:\n        /* \"Contracts/SimpleStorage.sol\":1066:1073  uint256 */\n      0x00\n        /* \"Contracts/SimpleStorage.sol\":1096:1116  nameToFavoriteNumber */\n      0x02\n        /* \"Contracts/SimpleStorage.sol\":1117:1122  _name */\n      dup3\n        /* \"Contracts/SimpleStorage.sol\":1096:1123  nameToFavoriteNumber[_name] */\n      mload(0x40)\n      tag_64\n      swap2\n      swap1\n      tag_65\n      jump\t// in\n    tag_64:\n      swap1\n      dup2\n      mstore\n      0x20\n      add\n      mload(0x40)\n      dup1\n      swap2\n      sub\n      swap1\n      keccak256\n      sload\n        /* \"Contracts/SimpleStorage.sol\":1089:1123  return nameToFavoriteNumber[_name] */\n      swap1\n      pop\n        /* \"Contracts/SimpleStorage.sol\":967:1130  function getNameToFavoriteNumber(string memory _name)... */\n      swap2\n      swap1\n      pop\n      jump\t// out\n        /* \"Contracts/AddFiveStorage.sol\":184:285  function store(uint256 _newNumber) public override {... */\n    tag_33:\n        /* \"Contracts/AddFiveStorage.sol\":277:278  5 */\n      0x05\n        /* \"Contracts/AddFiveStorage.sol\":264:274  _newNumber */\n      dup2\n        /* \"Contracts/AddFiveStorage.sol\":264:278  _newNumber + 5 */\n      tag_67\n      swap2\n      swap1\n      tag_68\n      jump\t// in\n    tag_67:\n        /* \"Contracts/AddFiveStorage.sol\":245:261  myFavoriteNumber */\n      0x00\n        /* \"Contracts/AddFiveStorage.sol\":245:278  myFavoriteNumber = _newNumber + 5 */\n      dup2\n      swap1\n      sstore\n      pop\n        /* \"Contracts/AddFiveStorage.sol\":184:285  function store(uint256 _newNumber) public override {... */\n      pop\n      jump\t// out\n        /* \"Contracts/SimpleStorage.sol\":601:794  function addPerson(string memory _name, uint256 _favoriteNumber) public {... */\n    tag_37:\n        /* \"Contracts/SimpleStorage.sol\":683:695  listOfPeople */\n      0x01\n        /* \"Contracts/SimpleStorage.sol\":701:731  Person(_favoriteNumber, _name) */\n      mload(0x40)\n      dup1\n      0x40\n      add\n      0x40\n      mstore\n      dup1\n        /* \"Contracts/SimpleStorage.sol\":708:723  _favoriteNumber */\n      dup4\n        /* \"Contracts/SimpleStorage.sol\":701:731  Person(_favoriteNumber, _name) */\n      dup2\n      mstore\n      0x20\n      add\n        /* \"Contracts/SimpleStorage.sol\":725:730  _name */\n      dup5\n        /* \"Contracts/SimpleStorage.sol\":701:731  Person(_favoriteNumber, _name) */\n      dup2\n      mstore\n      pop\n        /* \"Contracts/SimpleStorage.sol\":683:732  listOfPeople.push(Person(_favoriteNumber, _name)) */\n      swap1\n      dup1\n      0x01\n      dup2\n      sload\n      add\n      dup1\n      dup3\n      sstore\n      dup1\n      swap2\n      pop\n      pop\n      0x01\n      swap1\n      sub\n      swap1\n      0x00\n      mstore\n      keccak256(0x00, 0x20)\n      swap1\n      0x02\n      mul\n      add\n      0x00\n      swap1\n      swap2\n      swap1\n      swap2\n      swap1\n      swap2\n      pop\n      0x00\n      dup3\n      add\n      mload\n      dup2\n      0x00\n      add\n      sstore\n      0x20\n      dup3\n      add\n      mload\n      dup2\n      0x01\n      add\n      swap1\n      dup2\n      tag_71\n      swap2\n      swap1\n      tag_72\n      jump\t// in\n    tag_71:\n      pop\n      pop\n      pop\n        /* \"Contracts/SimpleStorage.sol\":772:787  _favoriteNumber */\n      dup1\n        /* \"Contracts/SimpleStorage.sol\":742:762  nameToFavoriteNumber */\n      0x02\n        /* \"Contracts/SimpleStorage.sol\":763:768  _name */\n      dup4\n        /* \"Contracts/SimpleStorage.sol\":742:769  nameToFavoriteNumber[_name] */\n      mload(0x40)\n      tag_73\n      swap2\n      swap1\n      tag_65\n      jump\t// in\n    tag_73:\n      swap1\n      dup2\n      mstore\n      0x20\n      add\n      mload(0x40)\n      dup1\n      swap2\n      sub\n      swap1\n      keccak256\n        /* \"Contracts/SimpleStorage.sol\":742:787  nameToFavoriteNumber[_name] = _favoriteNumber */\n      dup2\n      swap1\n      sstore\n      pop\n        /* \"Contracts/SimpleStorage.sol\":601:794  function addPerson(string memory _name, uint256 _favoriteNumber) public {... */\n      pop\n      pop\n      jump\t// out\n        /* \"Contracts/SimpleStorage.sol\":332:386  mapping(string => uint256) public nameToFavoriteNumber */\n    tag_40:\n      0x02\n      dup2\n      dup1\n      mload\n      0x20\n      dup2\n      add\n      dup3\n      add\n      dup1\n      mload\n      dup5\n      dup3\n      mstore\n      0x20\n      dup4\n      add\n      0x20\n      dup6\n      add\n      keccak256\n      dup2\n      dup4\n      mstore\n      dup1\n      swap6\n      pop\n      pop\n      pop\n      pop\n      pop\n      pop\n      0x00\n      swap2\n      pop\n      swap1\n      pop\n      sload\n      dup2\n      jump\t// out\n    tag_43:\n      mload(0x40)\n      dup1\n      0x40\n      add\n      0x40\n      mstore\n      dup1\n      0x00\n      dup2\n      mstore\n      0x20\n      add\n      0x60\n      dup2\n      mstore\n      pop\n      swap1\n      jump\t// out\n        /* \"#utility.yul\":7:82   */\n    tag_74:\n        /* \"#utility.yul\":40:46   */\n      0x00\n        /* \"#utility.yul\":73:75   */\n      0x40\n        /* \"#utility.yul\":67:76   */\n      mload\n        /* \"#utility.yul\":57:76   */\n      swap1\n      pop\n        /* \"#utility.yul\":7:82   */\n      swap1\n      jump\t// out\n        /* \"#utility.yul\":88:205   */\n    tag_75:\n        /* \"#utility.yul\":197:198   */\n      0x00\n        /* \"#utility.yul\":194:195   */\n      dup1\n        /* \"#utility.yul\":187:199   */\n      revert\n        /* \"#utility.yul\":211:328   */\n    tag_76:\n        /* \"#utility.yul\":320:321   */\n      0x00\n        /* \"#utility.yul\":317:318   */\n      dup1\n        /* \"#utility.yul\":310:322   */\n      revert\n        /* \"#utility.yul\":334:411   */\n    tag_77:\n        /* \"#utility.yul\":371:378   */\n      0x00\n        /* \"#utility.yul\":400:405   */\n      dup2\n        /* \"#utility.yul\":389:405   */\n      swap1\n      pop\n        /* \"#utility.yul\":334:411   */\n      swap2\n      swap1\n      pop\n      jump\t// out\n        /* \"#utility.yul\":417:539   */\n    tag_78:\n        /* \"#utility.yul\":490:514   */\n      tag_124\n        /* \"#utility.yul\":508:513   */\n      dup2\n        /* \"#utility.yul\":490:514   */\n      tag_77\n      jump\t// in\n    tag_124:\n        /* \"#utility.yul\":483:488   */\n      dup2\n        /* \"#utility.yul\":480:515   */\n      eq\n        /* \"#utility.yul\":470:533   */\n      tag_125\n      jumpi\n        /* \"#utility.yul\":529:530   */\n      0x00\n        /* \"#utility.yul\":526:527   */\n      dup1\n        /* \"#utility.yul\":519:531   */\n      revert\n        /* \"#utility.yul\":470:533   */\n    tag_125:\n        /* \"#utility.yul\":417:539   */\n      pop\n      jump\t// out\n        /* \"#utility.yul\":545:684   */\n    tag_79:\n        /* \"#utility.yul\":591:596   */\n      0x00\n        /* \"#utility.yul\":629:635   */\n      dup2\n        /* \"#utility.yul\":616:636   */\n      calldataload\n        /* \"#utility.yul\":607:636   */\n      swap1\n      pop\n        /* \"#utility.yul\":645:678   */\n      tag_127\n        /* \"#utility.yul\":672:677   */\n      dup2\n        /* \"#utility.yul\":645:678   */\n      tag_78\n      jump\t// in\n    tag_127:\n        /* \"#utility.yul\":545:684   */\n      swap3\n      swap2\n      pop\n      pop\n      jump\t// out\n        /* \"#utility.yul\":690:1019   */\n    tag_13:\n        /* \"#utility.yul\":749:755   */\n      0x00\n        /* \"#utility.yul\":798:800   */\n      0x20\n        /* \"#utility.yul\":786:795   */\n      dup3\n        /* \"#utility.yul\":777:784   */\n      dup5\n        /* \"#utility.yul\":773:796   */\n      sub\n        /* \"#utility.yul\":769:801   */\n      slt\n        /* \"#utility.yul\":766:885   */\n      iszero\n      tag_129\n      jumpi\n        /* \"#utility.yul\":804:883   */\n      tag_130\n      tag_75\n      jump\t// in\n    tag_130:\n        /* \"#utility.yul\":766:885   */\n    tag_129:\n        /* \"#utility.yul\":924:925   */\n      0x00\n        /* \"#utility.yul\":949:1002   */\n      tag_131\n        /* \"#utility.yul\":994:1001   */\n      dup5\n        /* \"#utility.yul\":985:991   */\n      dup3\n        /* \"#utility.yul\":974:983   */\n      dup6\n        /* \"#utility.yul\":970:992   */\n      add\n        /* \"#utility.yul\":949:1002   */\n      tag_79\n      jump\t// in\n    tag_131:\n        /* \"#utility.yul\":939:1002   */\n      swap2\n      pop\n        /* \"#utility.yul\":895:1012   */\n      pop\n        /* \"#utility.yul\":690:1019   */\n      swap3\n      swap2\n      pop\n      pop\n      jump\t// out\n        /* \"#utility.yul\":1025:1133   */\n    tag_80:\n        /* \"#utility.yul\":1102:1126   */\n      tag_133\n        /* \"#utility.yul\":1120:1125   */\n      dup2\n        /* \"#utility.yul\":1102:1126   */\n      tag_77\n      jump\t// in\n    tag_133:\n        /* \"#utility.yul\":1097:1100   */\n      dup3\n        /* \"#utility.yul\":1090:1127   */\n      mstore\n        /* \"#utility.yul\":1025:1133   */\n      pop\n      pop\n      jump\t// out\n        /* \"#utility.yul\":1139:1238   */\n    tag_81:\n        /* \"#utility.yul\":1191:1197   */\n      0x00\n        /* \"#utility.yul\":1225:1230   */\n      dup2\n        /* \"#utility.yul\":1219:1231   */\n      mload\n        /* \"#utility.yul\":1209:1231   */\n      swap1\n      pop\n        /* \"#utility.yul\":1139:1238   */\n      swap2\n      swap1\n      pop\n      jump\t// out\n        /* \"#utility.yul\":1244:1403   */\n    tag_82:\n        /* \"#utility.yul\":1318:1329   */\n      0x00\n        /* \"#utility.yul\":1352:1358   */\n      dup3\n        /* \"#utility.yul\":1347:1350   */\n      dup3\n        /* \"#utility.yul\":1340:1359   */\n      mstore\n        /* \"#utility.yul\":1392:1396   */\n      0x20\n        /* \"#utility.yul\":1387:1390   */\n      dup3\n        /* \"#utility.yul\":1383:1397   */\n      add\n        /* \"#utility.yul\":1368:1397   */\n      swap1\n      pop\n        /* \"#utility.yul\":1244:1403   */\n      swap3\n      swap2\n      pop\n      pop\n      jump\t// out\n        /* \"#utility.yul\":1409:1548   */\n    tag_83:\n        /* \"#utility.yul\":1498:1504   */\n      dup3\n        /* \"#utility.yul\":1493:1496   */\n      dup2\n        /* \"#utility.yul\":1488:1491   */\n      dup4\n        /* \"#utility.yul\":1482:1505   */\n      mcopy\n        /* \"#utility.yul\":1539:1540   */\n      0x00\n        /* \"#utility.yul\":1530:1536   */\n      dup4\n        /* \"#utility.yul\":1525:1528   */\n      dup4\n        /* \"#utility.yul\":1521:1537   */\n      add\n        /* \"#utility.yul\":1514:1541   */\n      mstore\n        /* \"#utility.yul\":1409:1548   */\n      pop\n      pop\n      pop\n      jump\t// out\n        /* \"#utility.yul\":1554:1656   */\n    tag_84:\n        /* \"#utility.yul\":1595:1601   */\n      0x00\n        /* \"#utility.yul\":1646:1648   */\n      0x1f\n        /* \"#utility.yul\":1642:1649   */\n      not\n        /* \"#utility.yul\":1637:1639   */\n      0x1f\n        /* \"#utility.yul\":1630:1635   */\n      dup4\n        /* \"#utility.yul\":1626:1640   */\n      add\n        /* \"#utility.yul\":1622:1650   */\n      and\n        /* \"#utility.yul\":1612:1650   */\n      swap1\n      pop\n        /* \"#utility.yul\":1554:1656   */\n      swap2\n      swap1\n      pop\n      jump\t// out\n        /* \"#utility.yul\":1662:2019   */\n    tag_85:\n        /* \"#utility.yul\":1740:1743   */\n      0x00\n        /* \"#utility.yul\":1768:1807   */\n      tag_139\n        /* \"#utility.yul\":1801:1806   */\n      dup3\n        /* \"#utility.yul\":1768:1807   */\n      tag_81\n      jump\t// in\n    tag_139:\n        /* \"#utility.yul\":1823:1884   */\n      tag_140\n        /* \"#utility.yul\":1877:1883   */\n      dup2\n        /* \"#utility.yul\":1872:1875   */\n      dup6\n        /* \"#utility.yul\":1823:1884   */\n      tag_82\n      jump\t// in\n    tag_140:\n        /* \"#utility.yul\":1816:1884   */\n      swap4\n      pop\n        /* \"#utility.yul\":1893:1958   */\n      tag_141\n        /* \"#utility.yul\":1951:1957   */\n      dup2\n        /* \"#utility.yul\":1946:1949   */\n      dup6\n        /* \"#utility.yul\":1939:1943   */\n      0x20\n        /* \"#utility.yul\":1932:1937   */\n      dup7\n        /* \"#utility.yul\":1928:1944   */\n      add\n        /* \"#utility.yul\":1893:1958   */\n      tag_83\n      jump\t// in\n    tag_141:\n        /* \"#utility.yul\":1983:2012   */\n      tag_142\n        /* \"#utility.yul\":2005:2011   */\n      dup2\n        /* \"#utility.yul\":1983:2012   */\n      tag_84\n      jump\t// in\n    tag_142:\n        /* \"#utility.yul\":1978:1981   */\n      dup5\n        /* \"#utility.yul\":1974:2013   */\n      add\n        /* \"#utility.yul\":1967:2013   */\n      swap2\n      pop\n        /* \"#utility.yul\":1744:2019   */\n      pop\n        /* \"#utility.yul\":1662:2019   */\n      swap3\n      swap2\n      pop\n      pop\n      jump\t// out\n        /* \"#utility.yul\":2063:2673   */\n    tag_86:\n        /* \"#utility.yul\":2176:2179   */\n      0x00\n        /* \"#utility.yul\":2212:2216   */\n      0x40\n        /* \"#utility.yul\":2207:2210   */\n      dup4\n        /* \"#utility.yul\":2203:2217   */\n      add\n        /* \"#utility.yul\":2309:2313   */\n      0x00\n        /* \"#utility.yul\":2302:2307   */\n      dup4\n        /* \"#utility.yul\":2298:2314   */\n      add\n        /* \"#utility.yul\":2292:2315   */\n      mload\n        /* \"#utility.yul\":2328:2391   */\n      tag_144\n        /* \"#utility.yul\":2385:2389   */\n      0x00\n        /* \"#utility.yul\":2380:2383   */\n      dup7\n        /* \"#utility.yul\":2376:2390   */\n      add\n        /* \"#utility.yul\":2362:2374   */\n      dup3\n        /* \"#utility.yul\":2328:2391   */\n      tag_80\n      jump\t// in\n    tag_144:\n        /* \"#utility.yul\":2227:2401   */\n      pop\n        /* \"#utility.yul\":2483:2487   */\n      0x20\n        /* \"#utility.yul\":2476:2481   */\n      dup4\n        /* \"#utility.yul\":2472:2488   */\n      add\n        /* \"#utility.yul\":2466:2489   */\n      mload\n        /* \"#utility.yul\":2536:2539   */\n      dup5\n        /* \"#utility.yul\":2530:2534   */\n      dup3\n        /* \"#utility.yul\":2526:2540   */\n      sub\n        /* \"#utility.yul\":2519:2523   */\n      0x20\n        /* \"#utility.yul\":2514:2517   */\n      dup7\n        /* \"#utility.yul\":2510:2524   */\n      add\n        /* \"#utility.yul\":2503:2541   */\n      mstore\n        /* \"#utility.yul\":2562:2635   */\n      tag_145\n        /* \"#utility.yul\":2630:2634   */\n      dup3\n        /* \"#utility.yul\":2616:2628   */\n      dup3\n        /* \"#utility.yul\":2562:2635   */\n      tag_85\n      jump\t// in\n    tag_145:\n        /* \"#utility.yul\":2554:2635   */\n      swap2\n      pop\n        /* \"#utility.yul\":2411:2646   */\n      pop\n        /* \"#utility.yul\":2663:2667   */\n      dup1\n        /* \"#utility.yul\":2656:2667   */\n      swap2\n      pop\n        /* \"#utility.yul\":2181:2673   */\n      pop\n        /* \"#utility.yul\":2063:2673   */\n      swap3\n      swap2\n      pop\n      pop\n      jump\t// out\n        /* \"#utility.yul\":2679:3040   */\n    tag_16:\n        /* \"#utility.yul\":2816:2820   */\n      0x00\n        /* \"#utility.yul\":2854:2856   */\n      0x20\n        /* \"#utility.yul\":2843:2852   */\n      dup3\n        /* \"#utility.yul\":2839:2857   */\n      add\n        /* \"#utility.yul\":2831:2857   */\n      swap1\n      pop\n        /* \"#utility.yul\":2903:2912   */\n      dup2\n        /* \"#utility.yul\":2897:2901   */\n      dup2\n        /* \"#utility.yul\":2893:2913   */\n      sub\n        /* \"#utility.yul\":2889:2890   */\n      0x00\n        /* \"#utility.yul\":2878:2887   */\n      dup4\n        /* \"#utility.yul\":2874:2891   */\n      add\n        /* \"#utility.yul\":2867:2914   */\n      mstore\n        /* \"#utility.yul\":2931:3033   */\n      tag_147\n        /* \"#utility.yul\":3028:3032   */\n      dup2\n        /* \"#utility.yul\":3019:3025   */\n      dup5\n        /* \"#utility.yul\":2931:3033   */\n      tag_86\n      jump\t// in\n    tag_147:\n        /* \"#utility.yul\":2923:3033   */\n      swap1\n      pop\n        /* \"#utility.yul\":2679:3040   */\n      swap3\n      swap2\n      pop\n      pop\n      jump\t// out\n        /* \"#utility.yul\":3046:3164   */\n    tag_87:\n        /* \"#utility.yul\":3133:3157   */\n      tag_149\n        /* \"#utility.yul\":3151:3156   */\n      dup2\n        /* \"#utility.yul\":3133:3157   */\n      tag_77\n      jump\t// in\n    tag_149:\n        /* \"#utility.yul\":3128:3131   */\n      dup3\n        /* \"#utility.yul\":3121:3158   */\n      mstore\n        /* \"#utility.yul\":3046:3164   */\n      pop\n      pop\n      jump\t// out\n        /* \"#utility.yul\":3170:3392   */\n    tag_20:\n        /* \"#utility.yul\":3263:3267   */\n      0x00\n        /* \"#utility.yul\":3301:3303   */\n      0x20\n        /* \"#utility.yul\":3290:3299   */\n      dup3\n        /* \"#utility.yul\":3286:3304   */\n      add\n        /* \"#utility.yul\":3278:3304   */\n      swap1\n      pop\n        /* \"#utility.yul\":3314:3385   */\n      tag_151\n        /* \"#utility.yul\":3382:3383   */\n      0x00\n        /* \"#utility.yul\":3371:3380   */\n      dup4\n        /* \"#utility.yul\":3367:3384   */\n      add\n        /* \"#utility.yul\":3358:3364   */\n      dup5\n        /* \"#utility.yul\":3314:3385   */\n      tag_87\n      jump\t// in\n    tag_151:\n        /* \"#utility.yul\":3170:3392   */\n      swap3\n      swap2\n      pop\n      pop\n      jump\t// out\n        /* \"#utility.yul\":3398:3567   */\n    tag_88:\n        /* \"#utility.yul\":3482:3493   */\n      0x00\n        /* \"#utility.yul\":3516:3522   */\n      dup3\n        /* \"#utility.yul\":3511:3514   */\n      dup3\n        /* \"#utility.yul\":3504:3523   */\n      mstore\n        /* \"#utility.yul\":3556:3560   */\n      0x20\n        /* \"#utility.yul\":3551:3554   */\n      dup3\n        /* \"#utility.yul\":3547:3561   */\n      add\n        /* \"#utility.yul\":3532:3561   */\n      swap1\n      pop\n        /* \"#utility.yul\":3398:3567   */\n      swap3\n      swap2\n      pop\n      pop\n      jump\t// out\n        /* \"#utility.yul\":3573:3950   */\n    tag_89:\n        /* \"#utility.yul\":3661:3664   */\n      0x00\n        /* \"#utility.yul\":3689:3728   */\n      tag_154\n        /* \"#utility.yul\":3722:3727   */\n      dup3\n        /* \"#utility.yul\":3689:3728   */\n      tag_81\n      jump\t// in\n    tag_154:\n        /* \"#utility.yul\":3744:3815   */\n      tag_155\n        /* \"#utility.yul\":3808:3814   */\n      dup2\n        /* \"#utility.yul\":3803:3806   */\n      dup6\n        /* \"#utility.yul\":3744:3815   */\n      tag_88\n      jump\t// in\n    tag_155:\n        /* \"#utility.yul\":3737:3815   */\n      swap4\n      pop\n        /* \"#utility.yul\":3824:3889   */\n      tag_156\n        /* \"#utility.yul\":3882:3888   */\n      dup2\n        /* \"#utility.yul\":3877:3880   */\n      dup6\n        /* \"#utility.yul\":3870:3874   */\n      0x20\n        /* \"#utility.yul\":3863:3868   */\n      dup7\n        /* \"#utility.yul\":3859:3875   */\n      add\n        /* \"#utility.yul\":3824:3889   */\n      tag_83\n      jump\t// in\n    tag_156:\n        /* \"#utility.yul\":3914:3943   */\n      tag_157\n        /* \"#utility.yul\":3936:3942   */\n      dup2\n        /* \"#utility.yul\":3914:3943   */\n      tag_84\n      jump\t// in\n    tag_157:\n        /* \"#utility.yul\":3909:3912   */\n      dup5\n        /* \"#utility.yul\":3905:3944   */\n      add\n        /* \"#utility.yul\":3898:3944   */\n      swap2\n      pop\n        /* \"#utility.yul\":3665:3950   */\n      pop\n        /* \"#utility.yul\":3573:3950   */\n      swap3\n      swap2\n      pop\n      pop\n      jump\t// out\n        /* \"#utility.yul\":3956:4379   */\n    tag_25:\n        /* \"#utility.yul\":4097:4101   */\n      0x00\n        /* \"#utility.yul\":4135:4137   */\n      0x40\n        /* \"#utility.yul\":4124:4133   */\n      dup3\n        /* \"#utility.yul\":4120:4138   */\n      add\n        /* \"#utility.yul\":4112:4138   */\n      swap1\n      pop\n        /* \"#utility.yul\":4148:4219   */\n      tag_159\n        /* \"#utility.yul\":4216:4217   */\n      0x00\n        /* \"#utility.yul\":4205:4214   */\n      dup4\n        /* \"#utility.yul\":4201:4218   */\n      add\n        /* \"#utility.yul\":4192:4198   */\n      dup6\n        /* \"#utility.yul\":4148:4219   */\n      tag_87\n      jump\t// in\n    tag_159:\n        /* \"#utility.yul\":4266:4275   */\n      dup2\n        /* \"#utility.yul\":4260:4264   */\n      dup2\n        /* \"#utility.yul\":4256:4276   */\n      sub\n        /* \"#utility.yul\":4251:4253   */\n      0x20\n        /* \"#utility.yul\":4240:4249   */\n      dup4\n        /* \"#utility.yul\":4236:4254   */\n      add\n        /* \"#utility.yul\":4229:4277   */\n      mstore\n        /* \"#utility.yul\":4294:4372   */\n      tag_160\n        /* \"#utility.yul\":4367:4371   */\n      dup2\n        /* \"#utility.yul\":4358:4364   */\n      dup5\n        /* \"#utility.yul\":4294:4372   */\n      tag_89\n      jump\t// in\n    tag_160:\n        /* \"#utility.yul\":4286:4372   */\n      swap1\n      pop\n        /* \"#utility.yul\":3956:4379   */\n      swap4\n      swap3\n      pop\n      pop\n      pop\n      jump\t// out\n        /* \"#utility.yul\":4385:4502   */\n    tag_90:\n        /* \"#utility.yul\":4494:4495   */\n      0x00\n        /* \"#utility.yul\":4491:4492   */\n      dup1\n        /* \"#utility.yul\":4484:4496   */\n      revert\n        /* \"#utility.yul\":4508:4625   */\n    tag_91:\n        /* \"#utility.yul\":4617:4618   */\n      0x00\n        /* \"#utility.yul\":4614:4615   */\n      dup1\n        /* \"#utility.yul\":4607:4619   */\n      revert\n        /* \"#utility.yul\":4631:4811   */\n    tag_92:\n        /* \"#utility.yul\":4679:4756   */\n      0x4e487b7100000000000000000000000000000000000000000000000000000000\n        /* \"#utility.yul\":4676:4677   */\n      0x00\n        /* \"#utility.yul\":4669:4757   */\n      mstore\n        /* \"#utility.yul\":4776:4780   */\n      0x41\n        /* \"#utility.yul\":4773:4774   */\n      0x04\n        /* \"#utility.yul\":4766:4781   */\n      mstore\n        /* \"#utility.yul\":4800:4804   */\n      0x24\n        /* \"#utility.yul\":4797:4798   */\n      0x00\n        /* \"#utility.yul\":4790:4805   */\n      revert\n        /* \"#utility.yul\":4817:5098   */\n    tag_93:\n        /* \"#utility.yul\":4900:4927   */\n      tag_165\n        /* \"#utility.yul\":4922:4926   */\n      dup3\n        /* \"#utility.yul\":4900:4927   */\n      tag_84\n      jump\t// in\n    tag_165:\n        /* \"#utility.yul\":4892:4898   */\n      dup2\n        /* \"#utility.yul\":4888:4928   */\n      add\n        /* \"#utility.yul\":5030:5036   */\n      dup2\n        /* \"#utility.yul\":5018:5028   */\n      dup2\n        /* \"#utility.yul\":5015:5037   */\n      lt\n        /* \"#utility.yul\":4994:5012   */\n      0xffffffffffffffff\n        /* \"#utility.yul\":4982:4992   */\n      dup3\n        /* \"#utility.yul\":4979:5013   */\n      gt\n        /* \"#utility.yul\":4976:5038   */\n      or\n        /* \"#utility.yul\":4973:5061   */\n      iszero\n      tag_166\n      jumpi\n        /* \"#utility.yul\":5041:5059   */\n      tag_167\n      tag_92\n      jump\t// in\n    tag_167:\n        /* \"#utility.yul\":4973:5061   */\n    tag_166:\n        /* \"#utility.yul\":5081:5091   */\n      dup1\n        /* \"#utility.yul\":5077:5079   */\n      0x40\n        /* \"#utility.yul\":5070:5092   */\n      mstore\n        /* \"#utility.yul\":4860:5098   */\n      pop\n        /* \"#utility.yul\":4817:5098   */\n      pop\n      pop\n      jump\t// out\n        /* \"#utility.yul\":5104:5233   */\n    tag_94:\n        /* \"#utility.yul\":5138:5144   */\n      0x00\n        /* \"#utility.yul\":5165:5185   */\n      tag_169\n      tag_74\n      jump\t// in\n    tag_169:\n        /* \"#utility.yul\":5155:5185   */\n      swap1\n      pop\n        /* \"#utility.yul\":5194:5227   */\n      tag_170\n        /* \"#utility.yul\":5222:5226   */\n      dup3\n        /* \"#utility.yul\":5214:5220   */\n      dup3\n        /* \"#utility.yul\":5194:5227   */\n      tag_93\n      jump\t// in\n    tag_170:\n        /* \"#utility.yul\":5104:5233   */\n      swap2\n      swap1\n      pop\n      jump\t// out\n        /* \"#utility.yul\":5239:5547   */\n    tag_95:\n        /* \"#utility.yul\":5301:5305   */\n      0x00\n        /* \"#utility.yul\":5391:5409   */\n      0xffffffffffffffff\n        /* \"#utility.yul\":5383:5389   */\n      dup3\n        /* \"#utility.yul\":5380:5410   */\n      gt\n        /* \"#utility.yul\":5377:5433   */\n      iszero\n      tag_172\n      jumpi\n        /* \"#utility.yul\":5413:5431   */\n      tag_173\n      tag_92\n      jump\t// in\n    tag_173:\n        /* \"#utility.yul\":5377:5433   */\n    tag_172:\n        /* \"#utility.yul\":5451:5480   */\n      tag_174\n        /* \"#utility.yul\":5473:5479   */\n      dup3\n        /* \"#utility.yul\":5451:5480   */\n      tag_84\n      jump\t// in\n    tag_174:\n        /* \"#utility.yul\":5443:5480   */\n      swap1\n      pop\n        /* \"#utility.yul\":5535:5539   */\n      0x20\n        /* \"#utility.yul\":5529:5533   */\n      dup2\n        /* \"#utility.yul\":5525:5540   */\n      add\n        /* \"#utility.yul\":5517:5540   */\n      swap1\n      pop\n        /* \"#utility.yul\":5239:5547   */\n      swap2\n      swap1\n      pop\n      jump\t// out\n        /* \"#utility.yul\":5553:5701   */\n    tag_96:\n        /* \"#utility.yul\":5651:5657   */\n      dup3\n        /* \"#utility.yul\":5646:5649   */\n      dup2\n        /* \"#utility.yul\":5641:5644   */\n      dup4\n        /* \"#utility.yul\":5628:5658   */\n      calldatacopy\n        /* \"#utility.yul\":5692:5693   */\n      0x00\n        /* \"#utility.yul\":5683:5689   */\n      dup4\n        /* \"#utility.yul\":5678:5681   */\n      dup4\n        /* \"#utility.yul\":5674:5690   */\n      add\n        /* \"#utility.yul\":5667:5694   */\n      mstore\n        /* \"#utility.yul\":5553:5701   */\n      pop\n      pop\n      pop\n      jump\t// out\n        /* \"#utility.yul\":5707:6132   */\n    tag_97:\n        /* \"#utility.yul\":5785:5790   */\n      0x00\n        /* \"#utility.yul\":5810:5876   */\n      tag_177\n        /* \"#utility.yul\":5826:5875   */\n      tag_178\n        /* \"#utility.yul\":5868:5874   */\n      dup5\n        /* \"#utility.yul\":5826:5875   */\n      tag_95\n      jump\t// in\n    tag_178:\n        /* \"#utility.yul\":5810:5876   */\n      tag_94\n      jump\t// in\n    tag_177:\n        /* \"#utility.yul\":5801:5876   */\n      swap1\n      pop\n        /* \"#utility.yul\":5899:5905   */\n      dup3\n        /* \"#utility.yul\":5892:5897   */\n      dup2\n        /* \"#utility.yul\":5885:5906   */\n      mstore\n        /* \"#utility.yul\":5937:5941   */\n      0x20\n        /* \"#utility.yul\":5930:5935   */\n      dup2\n        /* \"#utility.yul\":5926:5942   */\n      add\n        /* \"#utility.yul\":5975:5978   */\n      dup5\n        /* \"#utility.yul\":5966:5972   */\n      dup5\n        /* \"#utility.yul\":5961:5964   */\n      dup5\n        /* \"#utility.yul\":5957:5973   */\n      add\n        /* \"#utility.yul\":5954:5979   */\n      gt\n        /* \"#utility.yul\":5951:6063   */\n      iszero\n      tag_179\n      jumpi\n        /* \"#utility.yul\":5982:6061   */\n      tag_180\n      tag_91\n      jump\t// in\n    tag_180:\n        /* \"#utility.yul\":5951:6063   */\n    tag_179:\n        /* \"#utility.yul\":6072:6126   */\n      tag_181\n        /* \"#utility.yul\":6119:6125   */\n      dup5\n        /* \"#utility.yul\":6114:6117   */\n      dup3\n        /* \"#utility.yul\":6109:6112   */\n      dup6\n        /* \"#utility.yul\":6072:6126   */\n      tag_96\n      jump\t// in\n    tag_181:\n        /* \"#utility.yul\":5791:6132   */\n      pop\n        /* \"#utility.yul\":5707:6132   */\n      swap4\n      swap3\n      pop\n      pop\n      pop\n      jump\t// out\n        /* \"#utility.yul\":6152:6492   */\n    tag_98:\n        /* \"#utility.yul\":6208:6213   */\n      0x00\n        /* \"#utility.yul\":6257:6260   */\n      dup3\n        /* \"#utility.yul\":6250:6254   */\n      0x1f\n        /* \"#utility.yul\":6242:6248   */\n      dup4\n        /* \"#utility.yul\":6238:6255   */\n      add\n        /* \"#utility.yul\":6234:6261   */\n      slt\n        /* \"#utility.yul\":6224:6346   */\n      tag_183\n      jumpi\n        /* \"#utility.yul\":6265:6344   */\n      tag_184\n      tag_90\n      jump\t// in\n    tag_184:\n        /* \"#utility.yul\":6224:6346   */\n    tag_183:\n        /* \"#utility.yul\":6382:6388   */\n      dup2\n        /* \"#utility.yul\":6369:6389   */\n      calldataload\n        /* \"#utility.yul\":6407:6486   */\n      tag_185\n        /* \"#utility.yul\":6482:6485   */\n      dup5\n        /* \"#utility.yul\":6474:6480   */\n      dup3\n        /* \"#utility.yul\":6467:6471   */\n      0x20\n        /* \"#utility.yul\":6459:6465   */\n      dup7\n        /* \"#utility.yul\":6455:6472   */\n      add\n        /* \"#utility.yul\":6407:6486   */\n      tag_97\n      jump\t// in\n    tag_185:\n        /* \"#utility.yul\":6398:6486   */\n      swap2\n      pop\n        /* \"#utility.yul\":6214:6492   */\n      pop\n        /* \"#utility.yul\":6152:6492   */\n      swap3\n      swap2\n      pop\n      pop\n      jump\t// out\n        /* \"#utility.yul\":6498:7007   */\n    tag_28:\n        /* \"#utility.yul\":6567:6573   */\n      0x00\n        /* \"#utility.yul\":6616:6618   */\n      0x20\n        /* \"#utility.yul\":6604:6613   */\n      dup3\n        /* \"#utility.yul\":6595:6602   */\n      dup5\n        /* \"#utility.yul\":6591:6614   */\n      sub\n        /* \"#utility.yul\":6587:6619   */\n      slt\n        /* \"#utility.yul\":6584:6703   */\n      iszero\n      tag_187\n      jumpi\n        /* \"#utility.yul\":6622:6701   */\n      tag_188\n      tag_75\n      jump\t// in\n    tag_188:\n        /* \"#utility.yul\":6584:6703   */\n    tag_187:\n        /* \"#utility.yul\":6770:6771   */\n      0x00\n        /* \"#utility.yul\":6759:6768   */\n      dup3\n        /* \"#utility.yul\":6755:6772   */\n      add\n        /* \"#utility.yul\":6742:6773   */\n      calldataload\n        /* \"#utility.yul\":6800:6818   */\n      0xffffffffffffffff\n        /* \"#utility.yul\":6792:6798   */\n      dup2\n        /* \"#utility.yul\":6789:6819   */\n      gt\n        /* \"#utility.yul\":6786:6903   */\n      iszero\n      tag_189\n      jumpi\n        /* \"#utility.yul\":6822:6901   */\n      tag_190\n      tag_76\n      jump\t// in\n    tag_190:\n        /* \"#utility.yul\":6786:6903   */\n    tag_189:\n        /* \"#utility.yul\":6927:6990   */\n      tag_191\n        /* \"#utility.yul\":6982:6989   */\n      dup5\n        /* \"#utility.yul\":6973:6979   */\n      dup3\n        /* \"#utility.yul\":6962:6971   */\n      dup6\n        /* \"#utility.yul\":6958:6980   */\n      add\n        /* \"#utility.yul\":6927:6990   */\n      tag_98\n      jump\t// in\n    tag_191:\n        /* \"#utility.yul\":6917:6990   */\n      swap2\n      pop\n        /* \"#utility.yul\":6713:7000   */\n      pop\n        /* \"#utility.yul\":6498:7007   */\n      swap3\n      swap2\n      pop\n      pop\n      jump\t// out\n        /* \"#utility.yul\":7013:7667   */\n    tag_36:\n        /* \"#utility.yul\":7091:7097   */\n      0x00\n        /* \"#utility.yul\":7099:7105   */\n      dup1\n        /* \"#utility.yul\":7148:7150   */\n      0x40\n        /* \"#utility.yul\":7136:7145   */\n      dup4\n        /* \"#utility.yul\":7127:7134   */\n      dup6\n        /* \"#utility.yul\":7123:7146   */\n      sub\n        /* \"#utility.yul\":7119:7151   */\n      slt\n        /* \"#utility.yul\":7116:7235   */\n      iszero\n      tag_193\n      jumpi\n        /* \"#utility.yul\":7154:7233   */\n      tag_194\n      tag_75\n      jump\t// in\n    tag_194:\n        /* \"#utility.yul\":7116:7235   */\n    tag_193:\n        /* \"#utility.yul\":7302:7303   */\n      0x00\n        /* \"#utility.yul\":7291:7300   */\n      dup4\n        /* \"#utility.yul\":7287:7304   */\n      add\n        /* \"#utility.yul\":7274:7305   */\n      calldataload\n        /* \"#utility.yul\":7332:7350   */\n      0xffffffffffffffff\n        /* \"#utility.yul\":7324:7330   */\n      dup2\n        /* \"#utility.yul\":7321:7351   */\n      gt\n        /* \"#utility.yul\":7318:7435   */\n      iszero\n      tag_195\n      jumpi\n        /* \"#utility.yul\":7354:7433   */\n      tag_196\n      tag_76\n      jump\t// in\n    tag_196:\n        /* \"#utility.yul\":7318:7435   */\n    tag_195:\n        /* \"#utility.yul\":7459:7522   */\n      tag_197\n        /* \"#utility.yul\":7514:7521   */\n      dup6\n        /* \"#utility.yul\":7505:7511   */\n      dup3\n        /* \"#utility.yul\":7494:7503   */\n      dup7\n        /* \"#utility.yul\":7490:7512   */\n      add\n        /* \"#utility.yul\":7459:7522   */\n      tag_98\n      jump\t// in\n    tag_197:\n        /* \"#utility.yul\":7449:7522   */\n      swap3\n      pop\n        /* \"#utility.yul\":7245:7532   */\n      pop\n        /* \"#utility.yul\":7571:7573   */\n      0x20\n        /* \"#utility.yul\":7597:7650   */\n      tag_198\n        /* \"#utility.yul\":7642:7649   */\n      dup6\n        /* \"#utility.yul\":7633:7639   */\n      dup3\n        /* \"#utility.yul\":7622:7631   */\n      dup7\n        /* \"#utility.yul\":7618:7640   */\n      add\n        /* \"#utility.yul\":7597:7650   */\n      tag_79\n      jump\t// in\n    tag_198:\n        /* \"#utility.yul\":7587:7650   */\n      swap2\n      pop\n        /* \"#utility.yul\":7542:7660   */\n      pop\n        /* \"#utility.yul\":7013:7667   */\n      swap3\n      pop\n      swap3\n      swap1\n      pop\n      jump\t// out\n        /* \"#utility.yul\":7673:7853   */\n    tag_47:\n        /* \"#utility.yul\":7721:7798   */\n      0x4e487b7100000000000000000000000000000000000000000000000000000000\n        /* \"#utility.yul\":7718:7719   */\n      0x00\n        /* \"#utility.yul\":7711:7799   */\n      mstore\n        /* \"#utility.yul\":7818:7822   */\n      0x32\n        /* \"#utility.yul\":7815:7816   */\n      0x04\n        /* \"#utility.yul\":7808:7823   */\n      mstore\n        /* \"#utility.yul\":7842:7846   */\n      0x24\n        /* \"#utility.yul\":7839:7840   */\n      0x00\n        /* \"#utility.yul\":7832:7847   */\n      revert\n        /* \"#utility.yul\":7859:8039   */\n    tag_99:\n        /* \"#utility.yul\":7907:7984   */\n      0x4e487b7100000000000000000000000000000000000000000000000000000000\n        /* \"#utility.yul\":7904:7905   */\n      0x00\n        /* \"#utility.yul\":7897:7985   */\n      mstore\n        /* \"#utility.yul\":8004:8008   */\n      0x22\n        /* \"#utility.yul\":8001:8002   */\n      0x04\n        /* \"#utility.yul\":7994:8009   */\n      mstore\n        /* \"#utility.yul\":8028:8032   */\n      0x24\n        /* \"#utility.yul\":8025:8026   */\n      0x00\n        /* \"#utility.yul\":8018:8033   */\n      revert\n        /* \"#utility.yul\":8045:8365   */\n    tag_50:\n        /* \"#utility.yul\":8089:8095   */\n      0x00\n        /* \"#utility.yul\":8126:8127   */\n      0x02\n        /* \"#utility.yul\":8120:8124   */\n      dup3\n        /* \"#utility.yul\":8116:8128   */\n      div\n        /* \"#utility.yul\":8106:8128   */\n      swap1\n      pop\n        /* \"#utility.yul\":8173:8174   */\n      0x01\n        /* \"#utility.yul\":8167:8171   */\n      dup3\n        /* \"#utility.yul\":8163:8175   */\n      and\n        /* \"#utility.yul\":8194:8212   */\n      dup1\n        /* \"#utility.yul\":8184:8265   */\n      tag_202\n      jumpi\n        /* \"#utility.yul\":8250:8254   */\n      0x7f\n        /* \"#utility.yul\":8242:8248   */\n      dup3\n        /* \"#utility.yul\":8238:8255   */\n      and\n        /* \"#utility.yul\":8228:8255   */\n      swap2\n      pop\n        /* \"#utility.yul\":8184:8265   */\n    tag_202:\n        /* \"#utility.yul\":8312:8314   */\n      0x20\n        /* \"#utility.yul\":8304:8310   */\n      dup3\n        /* \"#utility.yul\":8301:8315   */\n      lt\n        /* \"#utility.yul\":8281:8299   */\n      dup2\n        /* \"#utility.yul\":8278:8316   */\n      sub\n        /* \"#utility.yul\":8275:8359   */\n      tag_203\n      jumpi\n        /* \"#utility.yul\":8331:8349   */\n      tag_204\n      tag_99\n      jump\t// in\n    tag_204:\n        /* \"#utility.yul\":8275:8359   */\n    tag_203:\n        /* \"#utility.yul\":8096:8365   */\n      pop\n        /* \"#utility.yul\":8045:8365   */\n      swap2\n      swap1\n      pop\n      jump\t// out\n        /* \"#utility.yul\":8371:8519   */\n    tag_100:\n        /* \"#utility.yul\":8473:8484   */\n      0x00\n        /* \"#utility.yul\":8510:8513   */\n      dup2\n        /* \"#utility.yul\":8495:8513   */\n      swap1\n      pop\n        /* \"#utility.yul\":8371:8519   */\n      swap3\n      swap2\n      pop\n      pop\n      jump\t// out\n        /* \"#utility.yul\":8525:8915   */\n    tag_101:\n        /* \"#utility.yul\":8631:8634   */\n      0x00\n        /* \"#utility.yul\":8659:8698   */\n      tag_207\n        /* \"#utility.yul\":8692:8697   */\n      dup3\n        /* \"#utility.yul\":8659:8698   */\n      tag_81\n      jump\t// in\n    tag_207:\n        /* \"#utility.yul\":8714:8803   */\n      tag_208\n        /* \"#utility.yul\":8796:8802   */\n      dup2\n        /* \"#utility.yul\":8791:8794   */\n      dup6\n        /* \"#utility.yul\":8714:8803   */\n      tag_100\n      jump\t// in\n    tag_208:\n        /* \"#utility.yul\":8707:8803   */\n      swap4\n      pop\n        /* \"#utility.yul\":8812:8877   */\n      tag_209\n        /* \"#utility.yul\":8870:8876   */\n      dup2\n        /* \"#utility.yul\":8865:8868   */\n      dup6\n        /* \"#utility.yul\":8858:8862   */\n      0x20\n        /* \"#utility.yul\":8851:8856   */\n      dup7\n        /* \"#utility.yul\":8847:8863   */\n      add\n        /* \"#utility.yul\":8812:8877   */\n      tag_83\n      jump\t// in\n    tag_209:\n        /* \"#utility.yul\":8902:8908   */\n      dup1\n        /* \"#utility.yul\":8897:8900   */\n      dup5\n        /* \"#utility.yul\":8893:8909   */\n      add\n        /* \"#utility.yul\":8886:8909   */\n      swap2\n      pop\n        /* \"#utility.yul\":8635:8915   */\n      pop\n        /* \"#utility.yul\":8525:8915   */\n      swap3\n      swap2\n      pop\n      pop\n      jump\t// out\n        /* \"#utility.yul\":8921:9196   */\n    tag_65:\n        /* \"#utility.yul\":9053:9056   */\n      0x00\n        /* \"#utility.yul\":9075:9170   */\n      tag_211\n        /* \"#utility.yul\":9166:9169   */\n      dup3\n        /* \"#utility.yul\":9157:9163   */\n      dup5\n        /* \"#utility.yul\":9075:9170   */\n      tag_101\n      jump\t// in\n    tag_211:\n        /* \"#utility.yul\":9068:9170   */\n      swap2\n      pop\n        /* \"#utility.yul\":9187:9190   */\n      dup2\n        /* \"#utility.yul\":9180:9190   */\n      swap1\n      pop\n        /* \"#utility.yul\":8921:9196   */\n      swap3\n      swap2\n      pop\n      pop\n      jump\t// out\n        /* \"#utility.yul\":9202:9382   */\n    tag_102:\n        /* \"#utility.yul\":9250:9327   */\n      0x4e487b7100000000000000000000000000000000000000000000000000000000\n        /* \"#utility.yul\":9247:9248   */\n      0x00\n        /* \"#utility.yul\":9240:9328   */\n      mstore\n        /* \"#utility.yul\":9347:9351   */\n      0x11\n        /* \"#utility.yul\":9344:9345   */\n      0x04\n        /* \"#utility.yul\":9337:9352   */\n      mstore\n        /* \"#utility.yul\":9371:9375   */\n      0x24\n        /* \"#utility.yul\":9368:9369   */\n      0x00\n        /* \"#utility.yul\":9361:9376   */\n      revert\n        /* \"#utility.yul\":9388:9579   */\n    tag_68:\n        /* \"#utility.yul\":9428:9431   */\n      0x00\n        /* \"#utility.yul\":9447:9467   */\n      tag_214\n        /* \"#utility.yul\":9465:9466   */\n      dup3\n        /* \"#utility.yul\":9447:9467   */\n      tag_77\n      jump\t// in\n    tag_214:\n        /* \"#utility.yul\":9442:9467   */\n      swap2\n      pop\n        /* \"#utility.yul\":9481:9501   */\n      tag_215\n        /* \"#utility.yul\":9499:9500   */\n      dup4\n        /* \"#utility.yul\":9481:9501   */\n      tag_77\n      jump\t// in\n    tag_215:\n        /* \"#utility.yul\":9476:9501   */\n      swap3\n      pop\n        /* \"#utility.yul\":9524:9525   */\n      dup3\n        /* \"#utility.yul\":9521:9522   */\n      dup3\n        /* \"#utility.yul\":9517:9526   */\n      add\n        /* \"#utility.yul\":9510:9526   */\n      swap1\n      pop\n        /* \"#utility.yul\":9545:9548   */\n      dup1\n        /* \"#utility.yul\":9542:9543   */\n      dup3\n        /* \"#utility.yul\":9539:9549   */\n      gt\n        /* \"#utility.yul\":9536:9572   */\n      iszero\n      tag_216\n      jumpi\n        /* \"#utility.yul\":9552:9570   */\n      tag_217\n      tag_102\n      jump\t// in\n    tag_217:\n        /* \"#utility.yul\":9536:9572   */\n    tag_216:\n        /* \"#utility.yul\":9388:9579   */\n      swap3\n      swap2\n      pop\n      pop\n      jump\t// out\n        /* \"#utility.yul\":9585:9726   */\n    tag_103:\n        /* \"#utility.yul\":9634:9638   */\n      0x00\n        /* \"#utility.yul\":9657:9660   */\n      dup2\n        /* \"#utility.yul\":9649:9660   */\n      swap1\n      pop\n        /* \"#utility.yul\":9680:9683   */\n      dup2\n        /* \"#utility.yul\":9677:9678   */\n      0x00\n        /* \"#utility.yul\":9670:9684   */\n      mstore\n        /* \"#utility.yul\":9714:9718   */\n      0x20\n        /* \"#utility.yul\":9711:9712   */\n      0x00\n        /* \"#utility.yul\":9701:9719   */\n      keccak256\n        /* \"#utility.yul\":9693:9719   */\n      swap1\n      pop\n        /* \"#utility.yul\":9585:9726   */\n      swap2\n      swap1\n      pop\n      jump\t// out\n        /* \"#utility.yul\":9732:9825   */\n    tag_104:\n        /* \"#utility.yul\":9769:9775   */\n      0x00\n        /* \"#utility.yul\":9816:9818   */\n      0x20\n        /* \"#utility.yul\":9811:9813   */\n      0x1f\n        /* \"#utility.yul\":9804:9809   */\n      dup4\n        /* \"#utility.yul\":9800:9814   */\n      add\n        /* \"#utility.yul\":9796:9819   */\n      div\n        /* \"#utility.yul\":9786:9819   */\n      swap1\n      pop\n        /* \"#utility.yul\":9732:9825   */\n      swap2\n      swap1\n      pop\n      jump\t// out\n        /* \"#utility.yul\":9831:9938   */\n    tag_105:\n        /* \"#utility.yul\":9875:9883   */\n      0x00\n        /* \"#utility.yul\":9925:9930   */\n      dup3\n        /* \"#utility.yul\":9919:9923   */\n      dup3\n        /* \"#utility.yul\":9915:9931   */\n      shl\n        /* \"#utility.yul\":9894:9931   */\n      swap1\n      pop\n        /* \"#utility.yul\":9831:9938   */\n      swap3\n      swap2\n      pop\n      pop\n      jump\t// out\n        /* \"#utility.yul\":9944:10337   */\n    tag_106:\n        /* \"#utility.yul\":10013:10019   */\n      0x00\n        /* \"#utility.yul\":10063:10064   */\n      0x08\n        /* \"#utility.yul\":10051:10061   */\n      dup4\n        /* \"#utility.yul\":10047:10065   */\n      mul\n        /* \"#utility.yul\":10086:10183   */\n      tag_222\n        /* \"#utility.yul\":10116:10182   */\n      0xffffffffffffffffffffffffffffffffffffffffffffffffffffffffffffffff\n        /* \"#utility.yul\":10105:10114   */\n      dup3\n        /* \"#utility.yul\":10086:10183   */\n      tag_105\n      jump\t// in\n    tag_222:\n        /* \"#utility.yul\":10204:10243   */\n      tag_223\n        /* \"#utility.yul\":10234:10242   */\n      dup7\n        /* \"#utility.yul\":10223:10232   */\n      dup4\n        /* \"#utility.yul\":10204:10243   */\n      tag_105\n      jump\t// in\n    tag_223:\n        /* \"#utility.yul\":10192:10243   */\n      swap6\n      pop\n        /* \"#utility.yul\":10276:10280   */\n      dup1\n        /* \"#utility.yul\":10272:10281   */\n      not\n        /* \"#utility.yul\":10265:10270   */\n      dup5\n        /* \"#utility.yul\":10261:10282   */\n      and\n        /* \"#utility.yul\":10252:10282   */\n      swap4\n      pop\n        /* \"#utility.yul\":10325:10329   */\n      dup1\n        /* \"#utility.yul\":10315:10323   */\n      dup7\n        /* \"#utility.yul\":10311:10330   */\n      and\n        /* \"#utility.yul\":10304:10309   */\n      dup5\n        /* \"#utility.yul\":10301:10331   */\n      or\n        /* \"#utility.yul\":10291:10331   */\n      swap3\n      pop\n        /* \"#utility.yul\":10020:10337   */\n      pop\n      pop\n        /* \"#utility.yul\":9944:10337   */\n      swap4\n      swap3\n      pop\n      pop\n      pop\n      jump\t// out\n        /* \"#utility.yul\":10343:10403   */\n    tag_107:\n        /* \"#utility.yul\":10371:10374   */\n      0x00\n        /* \"#utility.yul\":10392:10397   */\n      dup2\n        /* \"#utility.yul\":10385:10397   */\n      swap1\n      pop\n        /* \"#utility.yul\":10343:10403   */\n      swap2\n      swap1\n      pop\n      jump\t// out\n        /* \"#utility.yul\":10409:10551   */\n    tag_108:\n        /* \"#utility.yul\":10459:10468   */\n      0x00\n        /* \"#utility.yul\":10492:10545   */\n      tag_226\n        /* \"#utility.yul\":10510:10544   */\n      tag_227\n        /* \"#utility.yul\":10519:10543   */\n      tag_228\n        /* \"#utility.yul\":10537:10542   */\n      dup5\n        /* \"#utility.yul\":10519:10543   */\n      tag_77\n      jump\t// in\n    tag_228:\n        /* \"#utility.yul\":10510:10544   */\n      tag_107\n      jump\t// in\n    tag_227:\n        /* \"#utility.yul\":10492:10545   */\n      tag_77\n      jump\t// in\n    tag_226:\n        /* \"#utility.yul\":10479:10545   */\n      swap1\n      pop\n        /* \"#utility.yul\":10409:10551   */\n      swap2\n      swap1\n      pop\n      jump\t// out\n        /* \"#utility.yul\":10557:10632   */\n    tag_109:\n        /* \"#utility.yul\":10600:10603   */\n      0x00\n        /* \"#utility.yul\":10621:10626   */\n      dup2\n        /* \"#utility.yul\":10614:10626   */\n      swap1\n      pop\n        /* \"#utility.yul\":10557:10632   */\n      swap2\n      swap1\n      pop\n      jump\t// out\n        /* \"#utility.yul\":10638:10907   */\n    tag_110:\n        /* \"#utility.yul\":10748:10787   */\n      tag_231\n        /* \"#utility.yul\":10779:10786   */\n      dup4\n        /* \"#utility.yul\":10748:10787   */\n      tag_108\n      jump\t// in\n    tag_231:\n        /* \"#utility.yul\":10809:10900   */\n      tag_232\n        /* \"#utility.yul\":10858:10899   */\n      tag_233\n        /* \"#utility.yul\":10882:10898   */\n      dup3\n        /* \"#utility.yul\":10858:10899   */\n      tag_109\n      jump\t// in\n    tag_233:\n        /* \"#utility.yul\":10850:10856   */\n      dup5\n        /* \"#utility.yul\":10843:10847   */\n      dup5\n        /* \"#utility.yul\":10837:10848   */\n      sload\n        /* \"#utility.yul\":10809:10900   */\n      tag_106\n      jump\t// in\n    tag_232:\n        /* \"#utility.yul\":10803:10807   */\n      dup3\n        /* \"#utility.yul\":10796:10901   */\n      sstore\n        /* \"#utility.yul\":10714:10907   */\n      pop\n        /* \"#utility.yul\":10638:10907   */\n      pop\n      pop\n      pop\n      jump\t// out\n        /* \"#utility.yul\":10913:10986   */\n    tag_111:\n        /* \"#utility.yul\":10958:10961   */\n      0x00\n        /* \"#utility.yul\":10913:10986   */\n      swap1\n      jump\t// out\n        /* \"#utility.yul\":10992:11181   */\n    tag_112:\n        /* \"#utility.yul\":11069:11101   */\n      tag_236\n      tag_111\n      jump\t// in\n    tag_236:\n        /* \"#utility.yul\":11110:11175   */\n      tag_237\n        /* \"#utility.yul\":11168:11174   */\n      dup2\n        /* \"#utility.yul\":11160:11166   */\n      dup5\n        /* \"#utility.yul\":11154:11158   */\n      dup5\n        /* \"#utility.yul\":11110:11175   */\n      tag_110\n      jump\t// in\n    tag_237:\n        /* \"#utility.yul\":11045:11181   */\n      pop\n        /* \"#utility.yul\":10992:11181   */\n      pop\n      pop\n      jump\t// out\n        /* \"#utility.yul\":11187:11373   */\n    tag_113:\n        /* \"#utility.yul\":11247:11367   */\n    tag_239:\n        /* \"#utility.yul\":11264:11267   */\n      dup2\n        /* \"#utility.yul\":11257:11262   */\n      dup2\n        /* \"#utility.yul\":11254:11268   */\n      lt\n        /* \"#utility.yul\":11247:11367   */\n      iszero\n      tag_241\n      jumpi\n        /* \"#utility.yul\":11318:11357   */\n      tag_242\n        /* \"#utility.yul\":11355:11356   */\n      0x00\n        /* \"#utility.yul\":11348:11353   */\n      dup3\n        /* \"#utility.yul\":11318:11357   */\n      tag_112\n      jump\t// in\n    tag_242:\n        /* \"#utility.yul\":11291:11292   */\n      0x01\n        /* \"#utility.yul\":11284:11289   */\n      dup2\n        /* \"#utility.yul\":11280:11293   */\n      add\n        /* \"#utility.yul\":11271:11293   */\n      swap1\n      pop\n        /* \"#utility.yul\":11247:11367   */\n      jump(tag_239)\n    tag_241:\n        /* \"#utility.yul\":11187:11373   */\n      pop\n      pop\n      jump\t// out\n        /* \"#utility.yul\":11379:11922   */\n    tag_114:\n        /* \"#utility.yul\":11480:11482   */\n      0x1f\n        /* \"#utility.yul\":11475:11478   */\n      dup3\n        /* \"#utility.yul\":11472:11483   */\n      gt\n        /* \"#utility.yul\":11469:11915   */\n      iszero\n      tag_244\n      jumpi\n        /* \"#utility.yul\":11514:11552   */\n      tag_245\n        /* \"#utility.yul\":11546:11551   */\n      dup2\n        /* \"#utility.yul\":11514:11552   */\n      tag_103\n      jump\t// in\n    tag_245:\n        /* \"#utility.yul\":11598:11627   */\n      tag_246\n        /* \"#utility.yul\":11616:11626   */\n      dup5\n        /* \"#utility.yul\":11598:11627   */\n      tag_104\n      jump\t// in\n    tag_246:\n        /* \"#utility.yul\":11588:11596   */\n      dup2\n        /* \"#utility.yul\":11584:11628   */\n      add\n        /* \"#utility.yul\":11781:11783   */\n      0x20\n        /* \"#utility.yul\":11769:11779   */\n      dup6\n        /* \"#utility.yul\":11766:11784   */\n      lt\n        /* \"#utility.yul\":11763:11812   */\n      iszero\n      tag_247\n      jumpi\n        /* \"#utility.yul\":11802:11810   */\n      dup2\n        /* \"#utility.yul\":11787:11810   */\n      swap1\n      pop\n        /* \"#utility.yul\":11763:11812   */\n    tag_247:\n        /* \"#utility.yul\":11825:11905   */\n      tag_248\n        /* \"#utility.yul\":11881:11903   */\n      tag_249\n        /* \"#utility.yul\":11899:11902   */\n      dup6\n        /* \"#utility.yul\":11881:11903   */\n      tag_104\n      jump\t// in\n    tag_249:\n        /* \"#utility.yul\":11871:11879   */\n      dup4\n        /* \"#utility.yul\":11867:11904   */\n      add\n        /* \"#utility.yul\":11854:11865   */\n      dup3\n        /* \"#utility.yul\":11825:11905   */\n      tag_113\n      jump\t// in\n    tag_248:\n        /* \"#utility.yul\":11484:11915   */\n      pop\n      pop\n        /* \"#utility.yul\":11469:11915   */\n    tag_244:\n        /* \"#utility.yul\":11379:11922   */\n      pop\n      pop\n      pop\n      jump\t// out\n        /* \"#utility.yul\":11928:12045   */\n    tag_115:\n        /* \"#utility.yul\":11982:11990   */\n      0x00\n        /* \"#utility.yul\":12032:12037   */\n      dup3\n        /* \"#utility.yul\":12026:12030   */\n      dup3\n        /* \"#utility.yul\":12022:12038   */\n      shr\n        /* \"#utility.yul\":12001:12038   */\n      swap1\n      pop\n        /* \"#utility.yul\":11928:12045   */\n      swap3\n      swap2\n      pop\n      pop\n      jump\t// out\n        /* \"#utility.yul\":12051:12220   */\n    tag_116:\n        /* \"#utility.yul\":12095:12101   */\n      0x00\n        /* \"#utility.yul\":12128:12179   */\n      tag_252\n        /* \"#utility.yul\":12176:12177   */\n      0x00\n        /* \"#utility.yul\":12172:12178   */\n      not\n        /* \"#utility.yul\":12164:12169   */\n      dup5\n        /* \"#utility.yul\":12161:12162   */\n      0x08\n        /* \"#utility.yul\":12157:12170   */\n      mul\n        /* \"#utility.yul\":12128:12179   */\n      tag_115\n      jump\t// in\n    tag_252:\n        /* \"#utility.yul\":12124:12180   */\n      not\n        /* \"#utility.yul\":12209:12213   */\n      dup1\n        /* \"#utility.yul\":12203:12207   */\n      dup4\n        /* \"#utility.yul\":12199:12214   */\n      and\n        /* \"#utility.yul\":12189:12214   */\n      swap2\n      pop\n        /* \"#utility.yul\":12102:12220   */\n      pop\n        /* \"#utility.yul\":12051:12220   */\n      swap3\n      swap2\n      pop\n      pop\n      jump\t// out\n        /* \"#utility.yul\":12225:12520   */\n    tag_117:\n        /* \"#utility.yul\":12301:12305   */\n      0x00\n        /* \"#utility.yul\":12447:12476   */\n      tag_254\n        /* \"#utility.yul\":12472:12475   */\n      dup4\n        /* \"#utility.yul\":12466:12470   */\n      dup4\n        /* \"#utility.yul\":12447:12476   */\n      tag_116\n      jump\t// in\n    tag_254:\n        /* \"#utility.yul\":12439:12476   */\n      swap2\n      pop\n        /* \"#utility.yul\":12509:12512   */\n      dup3\n        /* \"#utility.yul\":12506:12507   */\n      0x02\n        /* \"#utility.yul\":12502:12513   */\n      mul\n        /* \"#utility.yul\":12496:12500   */\n      dup3\n        /* \"#utility.yul\":12493:12514   */\n      or\n        /* \"#utility.yul\":12485:12514   */\n      swap1\n      pop\n        /* \"#utility.yul\":12225:12520   */\n      swap3\n      swap2\n      pop\n      pop\n      jump\t// out\n        /* \"#utility.yul\":12525:13920   */\n    tag_72:\n        /* \"#utility.yul\":12642:12679   */\n      tag_256\n        /* \"#utility.yul\":12675:12678   */\n      dup3\n        /* \"#utility.yul\":12642:12679   */\n      tag_81\n      jump\t// in\n    tag_256:\n        /* \"#utility.yul\":12744:12762   */\n      0xffffffffffffffff\n        /* \"#utility.yul\":12736:12742   */\n      dup2\n        /* \"#utility.yul\":12733:12763   */\n      gt\n        /* \"#utility.yul\":12730:12786   */\n      iszero\n      tag_257\n      jumpi\n        /* \"#utility.yul\":12766:12784   */\n      tag_258\n      tag_92\n      jump\t// in\n    tag_258:\n        /* \"#utility.yul\":12730:12786   */\n    tag_257:\n        /* \"#utility.yul\":12810:12848   */\n      tag_259\n        /* \"#utility.yul\":12842:12846   */\n      dup3\n        /* \"#utility.yul\":12836:12847   */\n      sload\n        /* \"#utility.yul\":12810:12848   */\n      tag_50\n      jump\t// in\n    tag_259:\n        /* \"#utility.yul\":12895:12962   */\n      tag_260\n        /* \"#utility.yul\":12955:12961   */\n      dup3\n        /* \"#utility.yul\":12947:12953   */\n      dup3\n        /* \"#utility.yul\":12941:12945   */\n      dup6\n        /* \"#utility.yul\":12895:12962   */\n      tag_114\n      jump\t// in\n    tag_260:\n        /* \"#utility.yul\":12989:12990   */\n      0x00\n        /* \"#utility.yul\":13013:13017   */\n      0x20\n        /* \"#utility.yul\":13000:13017   */\n      swap1\n      pop\n        /* \"#utility.yul\":13045:13047   */\n      0x1f\n        /* \"#utility.yul\":13037:13043   */\n      dup4\n        /* \"#utility.yul\":13034:13048   */\n      gt\n        /* \"#utility.yul\":13062:13063   */\n      0x01\n        /* \"#utility.yul\":13057:13675   */\n      dup2\n      eq\n      tag_262\n      jumpi\n        /* \"#utility.yul\":13719:13720   */\n      0x00\n        /* \"#utility.yul\":13736:13742   */\n      dup5\n        /* \"#utility.yul\":13733:13810   */\n      iszero\n      tag_263\n      jumpi\n        /* \"#utility.yul\":13785:13794   */\n      dup3\n        /* \"#utility.yul\":13780:13783   */\n      dup8\n        /* \"#utility.yul\":13776:13795   */\n      add\n        /* \"#utility.yul\":13770:13796   */\n      mload\n        /* \"#utility.yul\":13761:13796   */\n      swap1\n      pop\n        /* \"#utility.yul\":13733:13810   */\n    tag_263:\n        /* \"#utility.yul\":13836:13903   */\n      tag_264\n        /* \"#utility.yul\":13896:13902   */\n      dup6\n        /* \"#utility.yul\":13889:13894   */\n      dup3\n        /* \"#utility.yul\":13836:13903   */\n      tag_117\n      jump\t// in\n    tag_264:\n        /* \"#utility.yul\":13830:13834   */\n      dup7\n        /* \"#utility.yul\":13823:13904   */\n      sstore\n        /* \"#utility.yul\":13692:13914   */\n      pop\n        /* \"#utility.yul\":13027:13914   */\n      jump(tag_261)\n        /* \"#utility.yul\":13057:13675   */\n    tag_262:\n        /* \"#utility.yul\":13109:13113   */\n      0x1f\n        /* \"#utility.yul\":13105:13114   */\n      not\n        /* \"#utility.yul\":13097:13103   */\n      dup5\n        /* \"#utility.yul\":13093:13115   */\n      and\n        /* \"#utility.yul\":13143:13180   */\n      tag_265\n        /* \"#utility.yul\":13175:13179   */\n      dup7\n        /* \"#utility.yul\":13143:13180   */\n      tag_103\n      jump\t// in\n    tag_265:\n        /* \"#utility.yul\":13202:13203   */\n      0x00\n        /* \"#utility.yul\":13216:13424   */\n    tag_266:\n        /* \"#utility.yul\":13230:13237   */\n      dup3\n        /* \"#utility.yul\":13227:13228   */\n      dup2\n        /* \"#utility.yul\":13224:13238   */\n      lt\n        /* \"#utility.yul\":13216:13424   */\n      iszero\n      tag_268\n      jumpi\n        /* \"#utility.yul\":13309:13318   */\n      dup5\n        /* \"#utility.yul\":13304:13307   */\n      dup10\n        /* \"#utility.yul\":13300:13319   */\n      add\n        /* \"#utility.yul\":13294:13320   */\n      mload\n        /* \"#utility.yul\":13286:13292   */\n      dup3\n        /* \"#utility.yul\":13279:13321   */\n      sstore\n        /* \"#utility.yul\":13360:13361   */\n      0x01\n        /* \"#utility.yul\":13352:13358   */\n      dup3\n        /* \"#utility.yul\":13348:13362   */\n      add\n        /* \"#utility.yul\":13338:13362   */\n      swap2\n      pop\n        /* \"#utility.yul\":13407:13409   */\n      0x20\n        /* \"#utility.yul\":13396:13405   */\n      dup6\n        /* \"#utility.yul\":13392:13410   */\n      add\n        /* \"#utility.yul\":13379:13410   */\n      swap5\n      pop\n        /* \"#utility.yul\":13253:13257   */\n      0x20\n        /* \"#utility.yul\":13250:13251   */\n      dup2\n        /* \"#utility.yul\":13246:13258   */\n      add\n        /* \"#utility.yul\":13241:13258   */\n      swap1\n      pop\n        /* \"#utility.yul\":13216:13424   */\n      jump(tag_266)\n    tag_268:\n        /* \"#utility.yul\":13452:13458   */\n      dup7\n        /* \"#utility.yul\":13443:13450   */\n      dup4\n        /* \"#utility.yul\":13440:13459   */\n      lt\n        /* \"#utility.yul\":13437:13616   */\n      iszero\n      tag_269\n      jumpi\n        /* \"#utility.yul\":13510:13519   */\n      dup5\n        /* \"#utility.yul\":13505:13508   */\n      dup10\n        /* \"#utility.yul\":13501:13520   */\n      add\n        /* \"#utility.yul\":13495:13521   */\n      mload\n        /* \"#utility.yul\":13553:13601   */\n      tag_270\n        /* \"#utility.yul\":13595:13599   */\n      0x1f\n        /* \"#utility.yul\":13587:13593   */\n      dup10\n        /* \"#utility.yul\":13583:13600   */\n      and\n        /* \"#utility.yul\":13572:13581   */\n      dup3\n        /* \"#utility.yul\":13553:13601   */\n      tag_116\n      jump\t// in\n    tag_270:\n        /* \"#utility.yul\":13545:13551   */\n      dup4\n        /* \"#utility.yul\":13538:13602   */\n      sstore\n        /* \"#utility.yul\":13460:13616   */\n      pop\n        /* \"#utility.yul\":13437:13616   */\n    tag_269:\n        /* \"#utility.yul\":13662:13663   */\n      0x01\n        /* \"#utility.yul\":13658:13659   */\n      0x02\n        /* \"#utility.yul\":13650:13656   */\n      dup9\n        /* \"#utility.yul\":13646:13660   */\n      mul\n        /* \"#utility.yul\":13642:13664   */\n      add\n        /* \"#utility.yul\":13636:13640   */\n      dup9\n        /* \"#utility.yul\":13629:13665   */\n      sstore\n        /* \"#utility.yul\":13064:13675   */\n      pop\n      pop\n      pop\n        /* \"#utility.yul\":13027:13914   */\n    tag_261:\n      pop\n        /* \"#utility.yul\":12617:13920   */\n      pop\n      pop\n      pop\n        /* \"#utility.yul\":12525:13920   */\n      pop\n      pop\n      jump\t// out\n\n    auxdata: 0xa2646970667358221220f91195727db675cb77c247d17d20527bbc633e449873a36531c99b3e60a43b9464736f6c634300081a0033\n}\n",
				"bytecode": {
					"linkReferences": {},
					"object": "6080604052348015600e575f80fd5b50610bbb8061001c5f395ff3fe608060405234801561000f575f80fd5b506004361061007b575f3560e01c8063534e934b11610059578063534e934b146100fe5780636057361d1461012e5780636f760f411461014a5780638bab8dd5146101665761007b565b8063240fed701461007f5780632e64cec1146100af5780632ebce631146100cd575b5f80fd5b61009960048036038101906100949190610470565b610196565b6040516100a69190610554565b60405180910390f35b6100b7610269565b6040516100c49190610583565b60405180910390f35b6100e760048036038101906100e29190610470565b610271565b6040516100f59291906105e4565b60405180910390f35b6101186004803603810190610113919061073e565b610326565b6040516101259190610583565b60405180910390f35b61014860048036038101906101439190610470565b61034d565b005b610164600480360381019061015f9190610785565b610362565b005b610180600480360381019061017b919061073e565b6103e6565b60405161018d9190610583565b60405180910390f35b61019e610413565b600182815481106101b2576101b16107df565b5b905f5260205f2090600202016040518060400160405290815f82015481526020016001820180546101e290610839565b80601f016020809104026020016040519081016040528092919081815260200182805461020e90610839565b80156102595780601f1061023057610100808354040283529160200191610259565b820191905f5260205f20905b81548152906001019060200180831161023c57829003601f168201915b5050505050815250509050919050565b5f8054905090565b60018181548110610280575f80fd5b905f5260205f2090600202015f91509050805f0154908060010180546102a590610839565b80601f01602080910402602001604051908101604052809291908181526020018280546102d190610839565b801561031c5780601f106102f35761010080835404028352916020019161031c565b820191905f5260205f20905b8154815290600101906020018083116102ff57829003601f168201915b5050505050905082565b5f60028260405161033791906108a3565b9081526020016040518091039020549050919050565b60058161035a91906108e6565b5f8190555050565b6001604051806040016040528083815260200184815250908060018154018082558091505060019003905f5260205f2090600202015f909190919091505f820151815f015560208201518160010190816103bc9190610ab6565b505050806002836040516103d091906108a3565b9081526020016040518091039020819055505050565b6002818051602081018201805184825260208301602085012081835280955050505050505f915090505481565b60405180604001604052805f8152602001606081525090565b5f604051905090565b5f80fd5b5f80fd5b5f819050919050565b61044f8161043d565b8114610459575f80fd5b50565b5f8135905061046a81610446565b92915050565b5f6020828403121561048557610484610435565b5b5f6104928482850161045c565b91505092915050565b6104a48161043d565b82525050565b5f81519050919050565b5f82825260208201905092915050565b8281835e5f83830152505050565b5f601f19601f8301169050919050565b5f6104ec826104aa565b6104f681856104b4565b93506105068185602086016104c4565b61050f816104d2565b840191505092915050565b5f604083015f83015161052f5f86018261049b565b506020830151848203602086015261054782826104e2565b9150508091505092915050565b5f6020820190508181035f83015261056c818461051a565b905092915050565b61057d8161043d565b82525050565b5f6020820190506105965f830184610574565b92915050565b5f82825260208201905092915050565b5f6105b6826104aa565b6105c0818561059c565b93506105d08185602086016104c4565b6105d9816104d2565b840191505092915050565b5f6040820190506105f75f830185610574565b818103602083015261060981846105ac565b90509392505050565b5f80fd5b5f80fd5b7f4e487b71000000000000000000000000000000000000000000000000000000005f52604160045260245ffd5b610650826104d2565b810181811067ffffffffffffffff8211171561066f5761066e61061a565b5b80604052505050565b5f61068161042c565b905061068d8282610647565b919050565b5f67ffffffffffffffff8211156106ac576106ab61061a565b5b6106b5826104d2565b9050602081019050919050565b828183375f83830152505050565b5f6106e26106dd84610692565b610678565b9050828152602081018484840111156106fe576106fd610616565b5b6107098482856106c2565b509392505050565b5f82601f83011261072557610724610612565b5b81356107358482602086016106d0565b91505092915050565b5f6020828403121561075357610752610435565b5b5f82013567ffffffffffffffff8111156107705761076f610439565b5b61077c84828501610711565b91505092915050565b5f806040838503121561079b5761079a610435565b5b5f83013567ffffffffffffffff8111156107b8576107b7610439565b5b6107c485828601610711565b92505060206107d58582860161045c565b9150509250929050565b7f4e487b71000000000000000000000000000000000000000000000000000000005f52603260045260245ffd5b7f4e487b71000000000000000000000000000000000000000000000000000000005f52602260045260245ffd5b5f600282049050600182168061085057607f821691505b6020821081036108635761086261080c565b5b50919050565b5f81905092915050565b5f61087d826104aa565b6108878185610869565b93506108978185602086016104c4565b80840191505092915050565b5f6108ae8284610873565b915081905092915050565b7f4e487b71000000000000000000000000000000000000000000000000000000005f52601160045260245ffd5b5f6108f08261043d565b91506108fb8361043d565b9250828201905080821115610913576109126108b9565b5b92915050565b5f819050815f5260205f209050919050565b5f6020601f8301049050919050565b5f82821b905092915050565b5f600883026109757fffffffffffffffffffffffffffffffffffffffffffffffffffffffffffffffff8261093a565b61097f868361093a565b95508019841693508086168417925050509392505050565b5f819050919050565b5f6109ba6109b56109b08461043d565b610997565b61043d565b9050919050565b5f819050919050565b6109d3836109a0565b6109e76109df826109c1565b848454610946565b825550505050565b5f90565b6109fb6109ef565b610a068184846109ca565b505050565b5b81811015610a2957610a1e5f826109f3565b600181019050610a0c565b5050565b601f821115610a6e57610a3f81610919565b610a488461092b565b81016020851015610a57578190505b610a6b610a638561092b565b830182610a0b565b50505b505050565b5f82821c905092915050565b5f610a8e5f1984600802610a73565b1980831691505092915050565b5f610aa68383610a7f565b9150826002028217905092915050565b610abf826104aa565b67ffffffffffffffff811115610ad857610ad761061a565b5b610ae28254610839565b610aed828285610a2d565b5f60209050601f831160018114610b1e575f8415610b0c578287015190505b610b168582610a9b565b865550610b7d565b601f198416610b2c86610919565b5f5b82811015610b5357848901518255600182019150602085019450602081019050610b2e565b86831015610b705784890151610b6c601f891682610a7f565b8355505b6001600288020188555050505b50505050505056fea2646970667358221220f91195727db675cb77c247d17d20527bbc633e449873a36531c99b3e60a43b9464736f6c634300081a0033",
					"opcodes": "PUSH1 0x80 PUSH1 0x40 MSTORE CALLVALUE DUP1 ISZERO PUSH1 0xE JUMPI PUSH0 DUP1 REVERT JUMPDEST POP PUSH2 0xBBB DUP1 PUSH2 0x1C PUSH0 CODECOPY PUSH0 RETURN INVALID PUSH1 0x80 PUSH1 0x40 MSTORE CALLVALUE DUP1 ISZERO PUSH2 0xF JUMPI PUSH0 DUP1 REVERT JUMPDEST POP PUSH1 0x4 CALLDATASIZE LT PUSH2 0x7B JUMPI PUSH0 CALLDATALOAD PUSH1 0xE0 SHR DUP1 PUSH4 0x534E934B GT PUSH2 0x59 JUMPI DUP1 PUSH4 0x534E934B EQ PUSH2 0xFE JUMPI DUP1 PUSH4 0x6057361D EQ PUSH2 0x12E JUMPI DUP1 PUSH4 0x6F760F41 EQ PUSH2 0x14A JUMPI DUP1 PUSH4 0x8BAB8DD5 EQ PUSH2 0x166 JUMPI PUSH2 0x7B JUMP JUMPDEST DUP1 PUSH4 0x240FED70 EQ PUSH2 0x7F JUMPI DUP1 PUSH4 0x2E64CEC1 EQ PUSH2 0xAF JUMPI DUP1 PUSH4 0x2EBCE631 EQ PUSH2 0xCD JUMPI JUMPDEST PUSH0 DUP1 REVERT JUMPDEST PUSH2 0x99 PUSH1 0x4 DUP1 CALLDATASIZE SUB DUP2 ADD SWAP1 PUSH2 0x94 SWAP2 SWAP1 PUSH2 0x470 JUMP JUMPDEST PUSH2 0x196 JUMP JUMPDEST PUSH1 0x40 MLOAD PUSH2 0xA6 SWAP2 SWAP1 PUSH2 0x554 JUMP JUMPDEST PUSH1 0x40 MLOAD DUP1 SWAP2 SUB SWAP1 RETURN JUMPDEST PUSH2 0xB7 PUSH2 0x269 JUMP JUMPDEST PUSH1 0x40 MLOAD PUSH2 0xC4 SWAP2 SWAP1 PUSH2 0x583 JUMP JUMPDEST PUSH1 0x40 MLOAD DUP1 SWAP2 SUB SWAP1 RETURN JUMPDEST PUSH2 0xE7 PUSH1 0x4 DUP1 CALLDATASIZE SUB DUP2 ADD SWAP1 PUSH2 0xE2 SWAP2 SWAP1 PUSH2 0x470 JUMP JUMPDEST PUSH2 0x271 JUMP JUMPDEST PUSH1 0x40 MLOAD PUSH2 0xF5 SWAP3 SWAP2 SWAP1 PUSH2 0x5E4 JUMP JUMPDEST PUSH1 0x40 MLOAD DUP1 SWAP2 SUB SWAP1 RETURN JUMPDEST PUSH2 0x118 PUSH1 0x4 DUP1 CALLDATASIZE SUB DUP2 ADD SWAP1 PUSH2 0x113 SWAP2 SWAP1 PUSH2 0x73E JUMP JUMPDEST PUSH2 0x326 JUMP JUMPDEST PUSH1 0x40 MLOAD PUSH2 0x125 SWAP2 SWAP1 PUSH2 0x583 JUMP JUMPDEST PUSH1 0x40 MLOAD DUP1 SWAP2 SUB SWAP1 RETURN JUMPDEST PUSH2 0x148 PUSH1 0x4 DUP1 CALLDATASIZE SUB DUP2 ADD SWAP1 PUSH2 0x143 SWAP2 SWAP1 PUSH2 0x470 JUMP JUMPDEST PUSH2 0x34D JUMP JUMPDEST STOP JUMPDEST PUSH2 0x164 PUSH1 0x4 DUP1 CALLDATASIZE SUB DUP2 ADD SWAP1 PUSH2 0x15F SWAP2 SWAP1 PUSH2 0x785 JUMP JUMPDEST PUSH2 0x362 JUMP JUMPDEST STOP JUMPDEST PUSH2 0x180 PUSH1 0x4 DUP1 CALLDATASIZE SUB DUP2 ADD SWAP1 PUSH2 0x17B SWAP2 SWAP1 PUSH2 0x73E JUMP JUMPDEST PUSH2 0x3E6 JUMP JUMPDEST PUSH1 0x40 MLOAD PUSH2 0x18D SWAP2 SWAP1 PUSH2 0x583 JUMP JUMPDEST PUSH1 0x40 MLOAD DUP1 SWAP2 SUB SWAP1 RETURN JUMPDEST PUSH2 0x19E PUSH2 0x413 JUMP JUMPDEST PUSH1 0x1 DUP3 DUP2 SLOAD DUP2 LT PUSH2 0x1B2 JUMPI PUSH2 0x1B1 PUSH2 0x7DF JUMP JUMPDEST JUMPDEST SWAP1 PUSH0 MSTORE PUSH1 0x20 PUSH0 KECCAK256 SWAP1 PUSH1 0x2 MUL ADD PUSH1 0x40 MLOAD DUP1 PUSH1 0x40 ADD PUSH1 0x40 MSTORE SWAP1 DUP2 PUSH0 DUP3 ADD SLOAD DUP2 MSTORE PUSH1 0x20 ADD PUSH1 0x1 DUP3 ADD DUP1 SLOAD PUSH2 0x1E2 SWAP1 PUSH2 0x839 JUMP JUMPDEST DUP1 PUSH1 0x1F ADD PUSH1 0x20 DUP1 SWAP2 DIV MUL PUSH1 0x20 ADD PUSH1 0x40 MLOAD SWAP1 DUP2 ADD PUSH1 0x40 MSTORE DUP1 SWAP3 SWAP2 SWAP1 DUP2 DUP2 MSTORE PUSH1 0x20 ADD DUP3 DUP1 SLOAD PUSH2 0x20E SWAP1 PUSH2 0x839 JUMP JUMPDEST DUP1 ISZERO PUSH2 0x259 JUMPI DUP1 PUSH1 0x1F LT PUSH2 0x230 JUMPI PUSH2 0x100 DUP1 DUP4 SLOAD DIV MUL DUP4 MSTORE SWAP2 PUSH1 0x20 ADD SWAP2 PUSH2 0x259 JUMP JUMPDEST DUP3 ADD SWAP2 SWAP1 PUSH0 MSTORE PUSH1 0x20 PUSH0 KECCAK256 SWAP1 JUMPDEST DUP2 SLOAD DUP2 MSTORE SWAP1 PUSH1 0x1 ADD SWAP1 PUSH1 0x20 ADD DUP1 DUP4 GT PUSH2 0x23C JUMPI DUP3 SWAP1 SUB PUSH1 0x1F AND DUP3 ADD SWAP2 JUMPDEST POP POP POP POP POP DUP2 MSTORE POP POP SWAP1 POP SWAP2 SWAP1 POP JUMP JUMPDEST PUSH0 DUP1 SLOAD SWAP1 POP SWAP1 JUMP JUMPDEST PUSH1 0x1 DUP2 DUP2 SLOAD DUP2 LT PUSH2 0x280 JUMPI PUSH0 DUP1 REVERT JUMPDEST SWAP1 PUSH0 MSTORE PUSH1 0x20 PUSH0 KECCAK256 SWAP1 PUSH1 0x2 MUL ADD PUSH0 SWAP2 POP SWAP1 POP DUP1 PUSH0 ADD SLOAD SWAP1 DUP1 PUSH1 0x1 ADD DUP1 SLOAD PUSH2 0x2A5 SWAP1 PUSH2 0x839 JUMP JUMPDEST DUP1 PUSH1 0x1F ADD PUSH1 0x20 DUP1 SWAP2 DIV MUL PUSH1 0x20 ADD PUSH1 0x40 MLOAD SWAP1 DUP2 ADD PUSH1 0x40 MSTORE DUP1 SWAP3 SWAP2 SWAP1 DUP2 DUP2 MSTORE PUSH1 0x20 ADD DUP3 DUP1 SLOAD PUSH2 0x2D1 SWAP1 PUSH2 0x839 JUMP JUMPDEST DUP1 ISZERO PUSH2 0x31C JUMPI DUP1 PUSH1 0x1F LT PUSH2 0x2F3 JUMPI PUSH2 0x100 DUP1 DUP4 SLOAD DIV MUL DUP4 MSTORE SWAP2 PUSH1 0x20 ADD SWAP2 PUSH2 0x31C JUMP JUMPDEST DUP3 ADD SWAP2 SWAP1 PUSH0 MSTORE PUSH1 0x20 PUSH0 KECCAK256 SWAP1 JUMPDEST DUP2 SLOAD DUP2 MSTORE SWAP1 PUSH1 0x1 ADD SWAP1 PUSH1 0x20 ADD DUP1 DUP4 GT PUSH2 0x2FF JUMPI DUP3 SWAP1 SUB PUSH1 0x1F AND DUP3 ADD SWAP2 JUMPDEST POP POP POP POP POP SWAP1 POP DUP3 JUMP JUMPDEST PUSH0 PUSH1 0x2 DUP3 PUSH1 0x40 MLOAD PUSH2 0x337 SWAP2 SWAP1 PUSH2 0x8A3 JUMP JUMPDEST SWAP1 DUP2 MSTORE PUSH1 0x20 ADD PUSH1 0x40 MLOAD DUP1 SWAP2 SUB SWAP1 KECCAK256 SLOAD SWAP1 POP SWAP2 SWAP1 POP JUMP JUMPDEST PUSH1 0x5 DUP2 PUSH2 0x35A SWAP2 SWAP1 PUSH2 0x8E6 JUMP JUMPDEST PUSH0 DUP2 SWAP1 SSTORE POP POP JUMP JUMPDEST PUSH1 0x1 PUSH1 0x40 MLOAD DUP1 PUSH1 0x40 ADD PUSH1 0x40 MSTORE DUP1 DUP4 DUP2 MSTORE PUSH1 0x20 ADD DUP5 DUP2 MSTORE POP SWAP1 DUP1 PUSH1 0x1 DUP2 SLOAD ADD DUP1 DUP3 SSTORE DUP1 SWAP2 POP POP PUSH1 0x1 SWAP1 SUB SWAP1 PUSH0 MSTORE PUSH1 0x20 PUSH0 KECCAK256 SWAP1 PUSH1 0x2 MUL ADD PUSH0 SWAP1 SWAP2 SWAP1 SWAP2 SWAP1 SWAP2 POP PUSH0 DUP3 ADD MLOAD DUP2 PUSH0 ADD SSTORE PUSH1 0x20 DUP3 ADD MLOAD DUP2 PUSH1 0x1 ADD SWAP1 DUP2 PUSH2 0x3BC SWAP2 SWAP1 PUSH2 0xAB6 JUMP JUMPDEST POP POP POP DUP1 PUSH1 0x2 DUP4 PUSH1 0x40 MLOAD PUSH2 0x3D0 SWAP2 SWAP1 PUSH2 0x8A3 JUMP JUMPDEST SWAP1 DUP2 MSTORE PUSH1 0x20 ADD PUSH1 0x40 MLOAD DUP1 SWAP2 SUB SWAP1 KECCAK256 DUP2 SWAP1 SSTORE POP POP POP JUMP JUMPDEST PUSH1 0x2 DUP2 DUP1 MLOAD PUSH1 0x20 DUP2 ADD DUP3 ADD DUP1 MLOAD DUP5 DUP3 MSTORE PUSH1 0x20 DUP4 ADD PUSH1 0x20 DUP6 ADD KECCAK256 DUP2 DUP4 MSTORE DUP1 SWAP6 POP POP POP POP POP POP PUSH0 SWAP2 POP SWAP1 POP SLOAD DUP2 JUMP JUMPDEST PUSH1 0x40 MLOAD DUP1 PUSH1 0x40 ADD PUSH1 0x40 MSTORE DUP1 PUSH0 DUP2 MSTORE PUSH1 0x20 ADD PUSH1 0x60 DUP2 MSTORE POP SWAP1 JUMP JUMPDEST PUSH0 PUSH1 0x40 MLOAD SWAP1 POP SWAP1 JUMP JUMPDEST PUSH0 DUP1 REVERT JUMPDEST PUSH0 DUP1 REVERT JUMPDEST PUSH0 DUP2 SWAP1 POP SWAP2 SWAP1 POP JUMP JUMPDEST PUSH2 0x44F DUP2 PUSH2 0x43D JUMP JUMPDEST DUP2 EQ PUSH2 0x459 JUMPI PUSH0 DUP1 REVERT JUMPDEST POP JUMP JUMPDEST PUSH0 DUP2 CALLDATALOAD SWAP1 POP PUSH2 0x46A DUP2 PUSH2 0x446 JUMP JUMPDEST SWAP3 SWAP2 POP POP JUMP JUMPDEST PUSH0 PUSH1 0x20 DUP3 DUP5 SUB SLT ISZERO PUSH2 0x485 JUMPI PUSH2 0x484 PUSH2 0x435 JUMP JUMPDEST JUMPDEST PUSH0 PUSH2 0x492 DUP5 DUP3 DUP6 ADD PUSH2 0x45C JUMP JUMPDEST SWAP2 POP POP SWAP3 SWAP2 POP POP JUMP JUMPDEST PUSH2 0x4A4 DUP2 PUSH2 0x43D JUMP JUMPDEST DUP3 MSTORE POP POP JUMP JUMPDEST PUSH0 DUP2 MLOAD SWAP1 POP SWAP2 SWAP1 POP JUMP JUMPDEST PUSH0 DUP3 DUP3 MSTORE PUSH1 0x20 DUP3 ADD SWAP1 POP SWAP3 SWAP2 POP POP JUMP JUMPDEST DUP3 DUP2 DUP4 MCOPY PUSH0 DUP4 DUP4 ADD MSTORE POP POP POP JUMP JUMPDEST PUSH0 PUSH1 0x1F NOT PUSH1 0x1F DUP4 ADD AND SWAP1 POP SWAP2 SWAP1 POP JUMP JUMPDEST PUSH0 PUSH2 0x4EC DUP3 PUSH2 0x4AA JUMP JUMPDEST PUSH2 0x4F6 DUP2 DUP6 PUSH2 0x4B4 JUMP JUMPDEST SWAP4 POP PUSH2 0x506 DUP2 DUP6 PUSH1 0x20 DUP7 ADD PUSH2 0x4C4 JUMP JUMPDEST PUSH2 0x50F DUP2 PUSH2 0x4D2 JUMP JUMPDEST DUP5 ADD SWAP2 POP POP SWAP3 SWAP2 POP POP JUMP JUMPDEST PUSH0 PUSH1 0x40 DUP4 ADD PUSH0 DUP4 ADD MLOAD PUSH2 0x52F PUSH0 DUP7 ADD DUP3 PUSH2 0x49B JUMP JUMPDEST POP PUSH1 0x20 DUP4 ADD MLOAD DUP5 DUP3 SUB PUSH1 0x20 DUP7 ADD MSTORE PUSH2 0x547 DUP3 DUP3 PUSH2 0x4E2 JUMP JUMPDEST SWAP2 POP POP DUP1 SWAP2 POP POP SWAP3 SWAP2 POP POP JUMP JUMPDEST PUSH0 PUSH1 0x20 DUP3 ADD SWAP1 POP DUP2 DUP2 SUB PUSH0 DUP4 ADD MSTORE PUSH2 0x56C DUP2 DUP5 PUSH2 0x51A JUMP JUMPDEST SWAP1 POP SWAP3 SWAP2 POP POP JUMP JUMPDEST PUSH2 0x57D DUP2 PUSH2 0x43D JUMP JUMPDEST DUP3 MSTORE POP POP JUMP JUMPDEST PUSH0 PUSH1 0x20 DUP3 ADD SWAP1 POP PUSH2 0x596 PUSH0 DUP4 ADD DUP5 PUSH2 0x574 JUMP JUMPDEST SWAP3 SWAP2 POP POP JUMP JUMPDEST PUSH0 DUP3 DUP3 MSTORE PUSH1 0x20 DUP3 ADD SWAP1 POP SWAP3 SWAP2 POP POP JUMP JUMPDEST PUSH0 PUSH2 0x5B6 DUP3 PUSH2 0x4AA JUMP JUMPDEST PUSH2 0x5C0 DUP2 DUP6 PUSH2 0x59C JUMP JUMPDEST SWAP4 POP PUSH2 0x5D0 DUP2 DUP6 PUSH1 0x20 DUP7 ADD PUSH2 0x4C4 JUMP JUMPDEST PUSH2 0x5D9 DUP2 PUSH2 0x4D2 JUMP JUMPDEST DUP5 ADD SWAP2 POP POP SWAP3 SWAP2 POP POP JUMP JUMPDEST PUSH0 PUSH1 0x40 DUP3 ADD SWAP1 POP PUSH2 0x5F7 PUSH0 DUP4 ADD DUP6 PUSH2 0x574 JUMP JUMPDEST DUP2 DUP2 SUB PUSH1 0x20 DUP4 ADD MSTORE PUSH2 0x609 DUP2 DUP5 PUSH2 0x5AC JUMP JUMPDEST SWAP1 POP SWAP4 SWAP3 POP POP POP JUMP JUMPDEST PUSH0 DUP1 REVERT JUMPDEST PUSH0 DUP1 REVERT JUMPDEST PUSH32 0x4E487B7100000000000000000000000000000000000000000000000000000000 PUSH0 MSTORE PUSH1 0x41 PUSH1 0x4 MSTORE PUSH1 0x24 PUSH0 REVERT JUMPDEST PUSH2 0x650 DUP3 PUSH2 0x4D2 JUMP JUMPDEST DUP2 ADD DUP2 DUP2 LT PUSH8 0xFFFFFFFFFFFFFFFF DUP3 GT OR ISZERO PUSH2 0x66F JUMPI PUSH2 0x66E PUSH2 0x61A JUMP JUMPDEST JUMPDEST DUP1 PUSH1 0x40 MSTORE POP POP POP JUMP JUMPDEST PUSH0 PUSH2 0x681 PUSH2 0x42C JUMP JUMPDEST SWAP1 POP PUSH2 0x68D DUP3 DUP3 PUSH2 0x647 JUMP JUMPDEST SWAP2 SWAP1 POP JUMP JUMPDEST PUSH0 PUSH8 0xFFFFFFFFFFFFFFFF DUP3 GT ISZERO PUSH2 0x6AC JUMPI PUSH2 0x6AB PUSH2 0x61A JUMP JUMPDEST JUMPDEST PUSH2 0x6B5 DUP3 PUSH2 0x4D2 JUMP JUMPDEST SWAP1 POP PUSH1 0x20 DUP2 ADD SWAP1 POP SWAP2 SWAP1 POP JUMP JUMPDEST DUP3 DUP2 DUP4 CALLDATACOPY PUSH0 DUP4 DUP4 ADD MSTORE POP POP POP JUMP JUMPDEST PUSH0 PUSH2 0x6E2 PUSH2 0x6DD DUP5 PUSH2 0x692 JUMP JUMPDEST PUSH2 0x678 JUMP JUMPDEST SWAP1 POP DUP3 DUP2 MSTORE PUSH1 0x20 DUP2 ADD DUP5 DUP5 DUP5 ADD GT ISZERO PUSH2 0x6FE JUMPI PUSH2 0x6FD PUSH2 0x616 JUMP JUMPDEST JUMPDEST PUSH2 0x709 DUP5 DUP3 DUP6 PUSH2 0x6C2 JUMP JUMPDEST POP SWAP4 SWAP3 POP POP POP JUMP JUMPDEST PUSH0 DUP3 PUSH1 0x1F DUP4 ADD SLT PUSH2 0x725 JUMPI PUSH2 0x724 PUSH2 0x612 JUMP JUMPDEST JUMPDEST DUP2 CALLDATALOAD PUSH2 0x735 DUP5 DUP3 PUSH1 0x20 DUP7 ADD PUSH2 0x6D0 JUMP JUMPDEST SWAP2 POP POP SWAP3 SWAP2 POP POP JUMP JUMPDEST PUSH0 PUSH1 0x20 DUP3 DUP5 SUB SLT ISZERO PUSH2 0x753 JUMPI PUSH2 0x752 PUSH2 0x435 JUMP JUMPDEST JUMPDEST PUSH0 DUP3 ADD CALLDATALOAD PUSH8 0xFFFFFFFFFFFFFFFF DUP2 GT ISZERO PUSH2 0x770 JUMPI PUSH2 0x76F PUSH2 0x439 JUMP JUMPDEST JUMPDEST PUSH2 0x77C DUP5 DUP3 DUP6 ADD PUSH2 0x711 JUMP JUMPDEST SWAP2 POP POP SWAP3 SWAP2 POP POP JUMP JUMPDEST PUSH0 DUP1 PUSH1 0x40 DUP4 DUP6 SUB SLT ISZERO PUSH2 0x79B JUMPI PUSH2 0x79A PUSH2 0x435 JUMP JUMPDEST JUMPDEST PUSH0 DUP4 ADD CALLDATALOAD PUSH8 0xFFFFFFFFFFFFFFFF DUP2 GT ISZERO PUSH2 0x7B8 JUMPI PUSH2 0x7B7 PUSH2 0x439 JUMP JUMPDEST JUMPDEST PUSH2 0x7C4 DUP6 DUP3 DUP7 ADD PUSH2 0x711 JUMP JUMPDEST SWAP3 POP POP PUSH1 0x20 PUSH2 0x7D5 DUP6 DUP3 DUP7 ADD PUSH2 0x45C JUMP JUMPDEST SWAP2 POP POP SWAP3 POP SWAP3 SWAP1 POP JUMP JUMPDEST PUSH32 0x4E487B7100000000000000000000000000000000000000000000000000000000 PUSH0 MSTORE PUSH1 0x32 PUSH1 0x4 MSTORE PUSH1 0x24 PUSH0 REVERT JUMPDEST PUSH32 0x4E487B7100000000000000000000000000000000000000000000000000000000 PUSH0 MSTORE PUSH1 0x22 PUSH1 0x4 MSTORE PUSH1 0x24 PUSH0 REVERT JUMPDEST PUSH0 PUSH1 0x2 DUP3 DIV SWAP1 POP PUSH1 0x1 DUP3 AND DUP1 PUSH2 0x850 JUMPI PUSH1 0x7F DUP3 AND SWAP2 POP JUMPDEST PUSH1 0x20 DUP3 LT DUP2 SUB PUSH2 0x863 JUMPI PUSH2 0x862 PUSH2 0x80C JUMP JUMPDEST JUMPDEST POP SWAP2 SWAP1 POP JUMP JUMPDEST PUSH0 DUP2 SWAP1 POP SWAP3 SWAP2 POP POP JUMP JUMPDEST PUSH0 PUSH2 0x87D DUP3 PUSH2 0x4AA JUMP JUMPDEST PUSH2 0x887 DUP2 DUP6 PUSH2 0x869 JUMP JUMPDEST SWAP4 POP PUSH2 0x897 DUP2 DUP6 PUSH1 0x20 DUP7 ADD PUSH2 0x4C4 JUMP JUMPDEST DUP1 DUP5 ADD SWAP2 POP POP SWAP3 SWAP2 POP POP JUMP JUMPDEST PUSH0 PUSH2 0x8AE DUP3 DUP5 PUSH2 0x873 JUMP JUMPDEST SWAP2 POP DUP2 SWAP1 POP SWAP3 SWAP2 POP POP JUMP JUMPDEST PUSH32 0x4E487B7100000000000000000000000000000000000000000000000000000000 PUSH0 MSTORE PUSH1 0x11 PUSH1 0x4 MSTORE PUSH1 0x24 PUSH0 REVERT JUMPDEST PUSH0 PUSH2 0x8F0 DUP3 PUSH2 0x43D JUMP JUMPDEST SWAP2 POP PUSH2 0x8FB DUP4 PUSH2 0x43D JUMP JUMPDEST SWAP3 POP DUP3 DUP3 ADD SWAP1 POP DUP1 DUP3 GT ISZERO PUSH2 0x913 JUMPI PUSH2 0x912 PUSH2 0x8B9 JUMP JUMPDEST JUMPDEST SWAP3 SWAP2 POP POP JUMP JUMPDEST PUSH0 DUP2 SWAP1 POP DUP2 PUSH0 MSTORE PUSH1 0x20 PUSH0 KECCAK256 SWAP1 POP SWAP2 SWAP1 POP JUMP JUMPDEST PUSH0 PUSH1 0x20 PUSH1 0x1F DUP4 ADD DIV SWAP1 POP SWAP2 SWAP1 POP JUMP JUMPDEST PUSH0 DUP3 DUP3 SHL SWAP1 POP SWAP3 SWAP2 POP POP JUMP JUMPDEST PUSH0 PUSH1 0x8 DUP4 MUL PUSH2 0x975 PUSH32 0xFFFFFFFFFFFFFFFFFFFFFFFFFFFFFFFFFFFFFFFFFFFFFFFFFFFFFFFFFFFFFFFF DUP3 PUSH2 0x93A JUMP JUMPDEST PUSH2 0x97F DUP7 DUP4 PUSH2 0x93A JUMP JUMPDEST SWAP6 POP DUP1 NOT DUP5 AND SWAP4 POP DUP1 DUP7 AND DUP5 OR SWAP3 POP POP POP SWAP4 SWAP3 POP POP POP JUMP JUMPDEST PUSH0 DUP2 SWAP1 POP SWAP2 SWAP1 POP JUMP JUMPDEST PUSH0 PUSH2 0x9BA PUSH2 0x9B5 PUSH2 0x9B0 DUP5 PUSH2 0x43D JUMP JUMPDEST PUSH2 0x997 JUMP JUMPDEST PUSH2 0x43D JUMP JUMPDEST SWAP1 POP SWAP2 SWAP1 POP JUMP JUMPDEST PUSH0 DUP2 SWAP1 POP SWAP2 SWAP1 POP JUMP JUMPDEST PUSH2 0x9D3 DUP4 PUSH2 0x9A0 JUMP JUMPDEST PUSH2 0x9E7 PUSH2 0x9DF DUP3 PUSH2 0x9C1 JUMP JUMPDEST DUP5 DUP5 SLOAD PUSH2 0x946 JUMP JUMPDEST DUP3 SSTORE POP POP POP POP JUMP JUMPDEST PUSH0 SWAP1 JUMP JUMPDEST PUSH2 0x9FB PUSH2 0x9EF JUMP JUMPDEST PUSH2 0xA06 DUP2 DUP5 DUP5 PUSH2 0x9CA JUMP JUMPDEST POP POP POP JUMP JUMPDEST JUMPDEST DUP2 DUP2 LT ISZERO PUSH2 0xA29 JUMPI PUSH2 0xA1E PUSH0 DUP3 PUSH2 0x9F3 JUMP JUMPDEST PUSH1 0x1 DUP2 ADD SWAP1 POP PUSH2 0xA0C JUMP JUMPDEST POP POP JUMP JUMPDEST PUSH1 0x1F DUP3 GT ISZERO PUSH2 0xA6E JUMPI PUSH2 0xA3F DUP2 PUSH2 0x919 JUMP JUMPDEST PUSH2 0xA48 DUP5 PUSH2 0x92B JUMP JUMPDEST DUP2 ADD PUSH1 0x20 DUP6 LT ISZERO PUSH2 0xA57 JUMPI DUP2 SWAP1 POP JUMPDEST PUSH2 0xA6B PUSH2 0xA63 DUP6 PUSH2 0x92B JUMP JUMPDEST DUP4 ADD DUP3 PUSH2 0xA0B JUMP JUMPDEST POP POP JUMPDEST POP POP POP JUMP JUMPDEST PUSH0 DUP3 DUP3 SHR SWAP1 POP SWAP3 SWAP2 POP POP JUMP JUMPDEST PUSH0 PUSH2 0xA8E PUSH0 NOT DUP5 PUSH1 0x8 MUL PUSH2 0xA73 JUMP JUMPDEST NOT DUP1 DUP4 AND SWAP2 POP POP SWAP3 SWAP2 POP POP JUMP JUMPDEST PUSH0 PUSH2 0xAA6 DUP4 DUP4 PUSH2 0xA7F JUMP JUMPDEST SWAP2 POP DUP3 PUSH1 0x2 MUL DUP3 OR SWAP1 POP SWAP3 SWAP2 POP POP JUMP JUMPDEST PUSH2 0xABF DUP3 PUSH2 0x4AA JUMP JUMPDEST PUSH8 0xFFFFFFFFFFFFFFFF DUP2 GT ISZERO PUSH2 0xAD8 JUMPI PUSH2 0xAD7 PUSH2 0x61A JUMP JUMPDEST JUMPDEST PUSH2 0xAE2 DUP3 SLOAD PUSH2 0x839 JUMP JUMPDEST PUSH2 0xAED DUP3 DUP3 DUP6 PUSH2 0xA2D JUMP JUMPDEST PUSH0 PUSH1 0x20 SWAP1 POP PUSH1 0x1F DUP4 GT PUSH1 0x1 DUP2 EQ PUSH2 0xB1E JUMPI PUSH0 DUP5 ISZERO PUSH2 0xB0C JUMPI DUP3 DUP8 ADD MLOAD SWAP1 POP JUMPDEST PUSH2 0xB16 DUP6 DUP3 PUSH2 0xA9B JUMP JUMPDEST DUP7 SSTORE POP PUSH2 0xB7D JUMP JUMPDEST PUSH1 0x1F NOT DUP5 AND PUSH2 0xB2C DUP7 PUSH2 0x919 JUMP JUMPDEST PUSH0 JUMPDEST DUP3 DUP2 LT ISZERO PUSH2 0xB53 JUMPI DUP5 DUP10 ADD MLOAD DUP3 SSTORE PUSH1 0x1 DUP3 ADD SWAP2 POP PUSH1 0x20 DUP6 ADD SWAP5 POP PUSH1 0x20 DUP2 ADD SWAP1 POP PUSH2 0xB2E JUMP JUMPDEST DUP7 DUP4 LT ISZERO PUSH2 0xB70 JUMPI DUP5 DUP10 ADD MLOAD PUSH2 0xB6C PUSH1 0x1F DUP10 AND DUP3 PUSH2 0xA7F JUMP JUMPDEST DUP4 SSTORE POP JUMPDEST PUSH1 0x1 PUSH1 0x2 DUP9 MUL ADD DUP9 SSTORE POP POP POP JUMPDEST POP POP POP POP POP POP JUMP INVALID LOG2 PUSH5 0x6970667358 0x22 SLT KECCAK256 0xF9 GT SWAP6 PUSH19 0x7DB675CB77C247D17D20527BBC633E449873A3 PUSH6 0x31C99B3E60A4 EXTCODESIZE SWAP5 PUSH5 0x736F6C6343 STOP ADDMOD BYTE STOP CALLER "
				},
				"gasEstimates": {
					"creation": {
						"codeDepositCost": "600600",
						"executionCost": "630",
						"totalCost": "601230"
					},
					"external": {
						"addPerson(string,uint256)": "infinite",
						"getListOfPeople(uint256)": "infinite",
						"getNameToFavoriteNumber(string)": "infinite",
						"listOfPeople(uint256)": "infinite",
						"nameToFavoriteNumber(string)": "infinite",
						"retrieve()": "2455",
						"store(uint256)": "infinite"
					}
				},
				"methodIdentifiers": {
					"addPerson(string,uint256)": "6f760f41",
					"getListOfPeople(uint256)": "240fed70",
					"getNameToFavoriteNumber(string)": "534e934b",
					"listOfPeople(uint256)": "2ebce631",
					"nameToFavoriteNumber(string)": "8bab8dd5",
					"retrieve()": "2e64cec1",
					"store(uint256)": "6057361d"
				}
			},
			"storageLayout": {
				"storage": [
					{
						"astId": 28,
						"contract": "Contracts/AddFiveStorage.sol:AddFiveStorage",
						"label": "myFavoriteNumber",
						"offset": 0,
						"slot": "0",
						"type": "t_uint256"
					},
					{
						"astId": 32,
						"contract": "Contracts/AddFiveStorage.sol:AddFiveStorage",
						"label": "listOfPeople",
						"offset": 0,
						"slot": "1",
						"type": "t_array(t_struct(Person)26_storage)dyn_storage"
					},
					{
						"astId": 36,
						"contract": "Contracts/AddFiveStorage.sol:AddFiveStorage",
						"label": "nameToFavoriteNumber",
						"offset": 0,
						"slot": "2",
						"type": "t_mapping(t_string_memory_ptr,t_uint256)"
					}
				],
				"types": {
					"t_array(t_struct(Person)26_storage)dyn_storage": {
						"base": "t_struct(Person)26_storage",
						"encoding": "dynamic_array",
						"label": "struct Person[]",
						"numberOfBytes": "32"
					},
					"t_mapping(t_string_memory_ptr,t_uint256)": {
						"encoding": "mapping",
						"key": "t_string_memory_ptr",
						"label": "mapping(string => uint256)",
						"numberOfBytes": "32",
						"value": "t_uint256"
					},
					"t_string_memory_ptr": {
						"encoding": "bytes",
						"label": "string",
						"numberOfBytes": "32"
					},
					"t_string_storage": {
						"encoding": "bytes",
						"label": "string",
						"numberOfBytes": "32"
					},
					"t_struct(Person)26_storage": {
						"encoding": "inplace",
						"label": "struct Person",
						"members": [
							{
								"astId": 23,
								"contract": "Contracts/AddFiveStorage.sol:AddFiveStorage",
								"label": "favoriteNumber",
								"offset": 0,
								"slot": "0",
								"type": "t_uint256"
							},
							{
								"astId": 25,
								"contract": "Contracts/AddFiveStorage.sol:AddFiveStorage",
								"label": "name",
								"offset": 0,
								"slot": "1",
								"type": "t_string_storage"
							}
						],
						"numberOfBytes": "64"
					},
					"t_uint256": {
						"encoding": "inplace",
						"label": "uint256",
						"numberOfBytes": "32"
					}
				}
			},
			"userdoc": {
				"kind": "user",
				"methods": {},
				"version": 1
			}
		}
	}
}