{
	"Contracts/SimpleStorage.sol": {
		"SimpleStorage": {
			"abi": [
				{
					"inputs": [
						{
							"internalType": "string",
							"name": "_name",
							"type": "string"
						},
						{
							"internalType": "uint256",
							"name": "_favoriteNumber",
							"type": "uint256"
						}
					],
					"name": "addPerson",
					"outputs": [],
					"stateMutability": "nonpayable",
					"type": "function"
				},
				{
					"inputs": [
						{
							"internalType": "uint256",
							"name": "_peopleIndex",
							"type": "uint256"
						}
					],
					"name": "getListOfPeople",
					"outputs": [
						{
							"components": [
								{
									"internalType": "uint256",
									"name": "favoriteNumber",
									"type": "uint256"
								},
								{
									"internalType": "string",
									"name": "name",
									"type": "string"
								}
							],
							"internalType": "struct Person",
							"name": "",
							"type": "tuple"
						}
					],
					"stateMutability": "view",
					"type": "function"
				},
				{
					"inputs": [
						{
							"internalType": "string",
							"name": "_name",
							"type": "string"
						}
					],
					"name": "getNameToFavoriteNumber",
					"outputs": [
						{
							"internalType": "uint256",
							"name": "",
							"type": "uint256"
						}
					],
					"stateMutability": "view",
					"type": "function"
				},
				{
					"inputs": [
						{
							"internalType": "uint256",
							"name": "",
							"type": "uint256"
						}
					],
					"name": "listOfPeople",
					"outputs": [
						{
							"internalType": "uint256",
							"name": "favoriteNumber",
							"type": "uint256"
						},
						{
							"internalType": "string",
							"name": "name",
							"type": "string"
						}
					],
					"stateMutability": "view",
					"type": "function"
				},
				{
					"inputs": [
						{
							"internalType": "string",
							"name": "",
							"type": "string"
						}
					],
					"name": "nameToFavoriteNumber",
					"outputs": [
						{
							"internalType": "uint256",
							"name": "",
							"type": "uint256"
						}
					],
					"stateMutability": "view",
					"type": "function"
				},
				{
					"inputs": [],
					"name": "retrieve",
					"outputs": [
						{
							"internalType": "uint256",
							"name": "",
							"type": "uint256"
						}
					],
					"stateMutability": "view",
					"type": "function"
				},
				{
					"inputs": [
						{
							"internalType": "uint256",
							"name": "_favoriteNumber",
							"type": "uint256"
						}
					],
					"name": "store",
					"outputs": [],
					"stateMutability": "nonpayable",
					"type": "function"
				}
			],
			"devdoc": {
				"kind": "dev",
				"methods": {},
				"version": 1
			},
			"evm": {
				"assembly": "    /* \"Contracts/SimpleStorage.sol\":204:1132  contract SimpleStorage {... */\n  mstore(0x40, 0x80)\n  callvalue\n  dup1\n  iszero\n  tag_1\n  jumpi\n  0x00\n  dup1\n  revert\ntag_1:\n  pop\n  dataSize(sub_0)\n  dup1\n  dataOffset(sub_0)\n  0x00\n  codecopy\n  0x00\n  return\nstop\n\nsub_0: assembly {\n        /* \"Contracts/SimpleStorage.sol\":204:1132  contract SimpleStorage {... */\n      mstore(0x40, 0x80)\n      callvalue\n      dup1\n      iszero\n      tag_1\n      jumpi\n      0x00\n      dup1\n      revert\n    tag_1:\n      pop\n      jumpi(tag_2, lt(calldatasize, 0x04))\n      shr(0xe0, calldataload(0x00))\n      dup1\n      0x534e934b\n      gt\n      tag_10\n      jumpi\n      dup1\n      0x534e934b\n      eq\n      tag_6\n      jumpi\n      dup1\n      0x6057361d\n      eq\n      tag_7\n      jumpi\n      dup1\n      0x6f760f41\n      eq\n      tag_8\n      jumpi\n      dup1\n      0x8bab8dd5\n      eq\n      tag_9\n      jumpi\n      jump(tag_2)\n    tag_10:\n      dup1\n      0x240fed70\n      eq\n      tag_3\n      jumpi\n      dup1\n      0x2e64cec1\n      eq\n      tag_4\n      jumpi\n      dup1\n      0x2ebce631\n      eq\n      tag_5\n      jumpi\n    tag_2:\n      0x00\n      dup1\n      revert\n        /* \"Contracts/SimpleStorage.sol\":800:961  function getListOfPeople(uint256 _peopleIndex)... */\n    tag_3:\n      tag_11\n      0x04\n      dup1\n      calldatasize\n      sub\n      dup2\n      add\n      swap1\n      tag_12\n      swap2\n      swap1\n      tag_13\n      jump\t// in\n    tag_12:\n      tag_14\n      jump\t// in\n    tag_11:\n      mload(0x40)\n      tag_15\n      swap2\n      swap1\n      tag_16\n      jump\t// in\n    tag_15:\n      mload(0x40)\n      dup1\n      swap2\n      sub\n      swap1\n      return\n        /* \"Contracts/SimpleStorage.sol\":505:595  function retrieve() public view returns (uint256) {... */\n    tag_4:\n      tag_17\n      tag_18\n      jump\t// in\n    tag_17:\n      mload(0x40)\n      tag_19\n      swap2\n      swap1\n      tag_20\n      jump\t// in\n    tag_19:\n      mload(0x40)\n      dup1\n      swap2\n      sub\n      swap1\n      return\n        /* \"Contracts/SimpleStorage.sol\":297:325  Person[] public listOfPeople */\n    tag_5:\n      tag_21\n      0x04\n      dup1\n      calldatasize\n      sub\n      dup2\n      add\n      swap1\n      tag_22\n      swap2\n      swap1\n      tag_13\n      jump\t// in\n    tag_22:\n      tag_23\n      jump\t// in\n    tag_21:\n      mload(0x40)\n      tag_24\n      swap3\n      swap2\n      swap1\n      tag_25\n      jump\t// in\n    tag_24:\n      mload(0x40)\n      dup1\n      swap2\n      sub\n      swap1\n      return\n        /* \"Contracts/SimpleStorage.sol\":967:1130  function getNameToFavoriteNumber(string memory _name)... */\n    tag_6:\n      tag_26\n      0x04\n      dup1\n      calldatasize\n      sub\n      dup2\n      add\n      swap1\n      tag_27\n      swap2\n      swap1\n      tag_28\n      jump\t// in\n    tag_27:\n      tag_29\n      jump\t// in\n    tag_26:\n      mload(0x40)\n      tag_30\n      swap2\n      swap1\n      tag_20\n      jump\t// in\n    tag_30:\n      mload(0x40)\n      dup1\n      swap2\n      sub\n      swap1\n      return\n        /* \"Contracts/SimpleStorage.sol\":393:499  function store(uint256 _favoriteNumber) public virtual {... */\n    tag_7:\n      tag_31\n      0x04\n      dup1\n      calldatasize\n      sub\n      dup2\n      add\n      swap1\n      tag_32\n      swap2\n      swap1\n      tag_13\n      jump\t// in\n    tag_32:\n      tag_33\n      jump\t// in\n    tag_31:\n      stop\n        /* \"Contracts/SimpleStorage.sol\":601:794  function addPerson(string memory _name, uint256 _favoriteNumber) public {... */\n    tag_8:\n      tag_34\n      0x04\n      dup1\n      calldatasize\n      sub\n      dup2\n      add\n      swap1\n      tag_35\n      swap2\n      swap1\n      tag_36\n      jump\t// in\n    tag_35:\n      tag_37\n      jump\t// in\n    tag_34:\n      stop\n        /* \"Contracts/SimpleStorage.sol\":332:386  mapping(string => uint256) public nameToFavoriteNumber */\n    tag_9:\n      tag_38\n      0x04\n      dup1\n      calldatasize\n      sub\n      dup2\n      add\n      swap1\n      tag_39\n      swap2\n      swap1\n      tag_28\n      jump\t// in\n    tag_39:\n      tag_40\n      jump\t// in\n    tag_38:\n      mload(0x40)\n      tag_41\n      swap2\n      swap1\n      tag_20\n      jump\t// in\n    tag_41:\n      mload(0x40)\n      dup1\n      swap2\n      sub\n      swap1\n      return\n        /* \"Contracts/SimpleStorage.sol\":800:961  function getListOfPeople(uint256 _peopleIndex)... */\n    tag_14:\n        /* \"Contracts/SimpleStorage.sol\":892:905  Person memory */\n      tag_42\n      tag_43\n      jump\t// in\n    tag_42:\n        /* \"Contracts/SimpleStorage.sol\":928:940  listOfPeople */\n      0x01\n        /* \"Contracts/SimpleStorage.sol\":941:953  _peopleIndex */\n      dup3\n        /* \"Contracts/SimpleStorage.sol\":928:954  listOfPeople[_peopleIndex] */\n      dup2\n      sload\n      dup2\n      lt\n      tag_45\n      jumpi\n      tag_46\n      tag_47\n      jump\t// in\n    tag_46:\n    tag_45:\n      swap1\n      0x00\n      mstore\n      keccak256(0x00, 0x20)\n      swap1\n      0x02\n      mul\n      add\n        /* \"Contracts/SimpleStorage.sol\":921:954  return listOfPeople[_peopleIndex] */\n      mload(0x40)\n      dup1\n      0x40\n      add\n      0x40\n      mstore\n      swap1\n      dup2\n      0x00\n      dup3\n      add\n      sload\n      dup2\n      mstore\n      0x20\n      add\n      0x01\n      dup3\n      add\n      dup1\n      sload\n      tag_49\n      swap1\n      tag_50\n      jump\t// in\n    tag_49:\n      dup1\n      0x1f\n      add\n      0x20\n      dup1\n      swap2\n      div\n      mul\n      0x20\n      add\n      mload(0x40)\n      swap1\n      dup2\n      add\n      0x40\n      mstore\n      dup1\n      swap3\n      swap2\n      swap1\n      dup2\n      dup2\n      mstore\n      0x20\n      add\n      dup3\n      dup1\n      sload\n      tag_51\n      swap1\n      tag_50\n      jump\t// in\n    tag_51:\n      dup1\n      iszero\n      tag_52\n      jumpi\n      dup1\n      0x1f\n      lt\n      tag_53\n      jumpi\n      0x0100\n      dup1\n      dup4\n      sload\n      div\n      mul\n      dup4\n      mstore\n      swap2\n      0x20\n      add\n      swap2\n      jump(tag_52)\n    tag_53:\n      dup3\n      add\n      swap2\n      swap1\n      0x00\n      mstore\n      keccak256(0x00, 0x20)\n      swap1\n    tag_54:\n      dup2\n      sload\n      dup2\n      mstore\n      swap1\n      0x01\n      add\n      swap1\n      0x20\n      add\n      dup1\n      dup4\n      gt\n      tag_54\n      jumpi\n      dup3\n      swap1\n      sub\n      0x1f\n      and\n      dup3\n      add\n      swap2\n    tag_52:\n      pop\n      pop\n      pop\n      pop\n      pop\n      dup2\n      mstore\n      pop\n      pop\n      swap1\n      pop\n        /* \"Contracts/SimpleStorage.sol\":800:961  function getListOfPeople(uint256 _peopleIndex)... */\n      swap2\n      swap1\n      pop\n      jump\t// out\n        /* \"Contracts/SimpleStorage.sol\":505:595  function retrieve() public view returns (uint256) {... */\n    tag_18:\n        /* \"Contracts/SimpleStorage.sol\":546:553  uint256 */\n      0x00\n        /* \"Contracts/SimpleStorage.sol\":572:588  myFavoriteNumber */\n      dup1\n      sload\n        /* \"Contracts/SimpleStorage.sol\":565:588  return myFavoriteNumber */\n      swap1\n      pop\n        /* \"Contracts/SimpleStorage.sol\":505:595  function retrieve() public view returns (uint256) {... */\n      swap1\n      jump\t// out\n        /* \"Contracts/SimpleStorage.sol\":297:325  Person[] public listOfPeople */\n    tag_23:\n      0x01\n      dup2\n      dup2\n      sload\n      dup2\n      lt\n      tag_56\n      jumpi\n      0x00\n      dup1\n      revert\n    tag_56:\n      swap1\n      0x00\n      mstore\n      keccak256(0x00, 0x20)\n      swap1\n      0x02\n      mul\n      add\n      0x00\n      swap2\n      pop\n      swap1\n      pop\n      dup1\n      0x00\n      add\n      sload\n      swap1\n      dup1\n      0x01\n      add\n      dup1\n      sload\n      tag_58\n      swap1\n      tag_50\n      jump\t// in\n    tag_58:\n      dup1\n      0x1f\n      add\n      0x20\n      dup1\n      swap2\n      div\n      mul\n      0x20\n      add\n      mload(0x40)\n      swap1\n      dup2\n      add\n      0x40\n      mstore\n      dup1\n      swap3\n      swap2\n      swap1\n      dup2\n      dup2\n      mstore\n      0x20\n      add\n      dup3\n      dup1\n      sload\n      tag_59\n      swap1\n      tag_50\n      jump\t// in\n    tag_59:\n      dup1\n      iszero\n      tag_60\n      jumpi\n      dup1\n      0x1f\n      lt\n      tag_61\n      jumpi\n      0x0100\n      dup1\n      dup4\n      sload\n      div\n      mul\n      dup4\n      mstore\n      swap2\n      0x20\n      add\n      swap2\n      jump(tag_60)\n    tag_61:\n      dup3\n      add\n      swap2\n      swap1\n      0x00\n      mstore\n      keccak256(0x00, 0x20)\n      swap1\n    tag_62:\n      dup2\n      sload\n      dup2\n      mstore\n      swap1\n      0x01\n      add\n      swap1\n      0x20\n      add\n      dup1\n      dup4\n      gt\n      tag_62\n      jumpi\n      dup3\n      swap1\n      sub\n      0x1f\n      and\n      dup3\n      add\n      swap2\n    tag_60:\n      pop\n      pop\n      pop\n      pop\n      pop\n      swap1\n      pop\n      dup3\n      jump\t// out\n        /* \"Contracts/SimpleStorage.sol\":967:1130  function getNameToFavoriteNumber(string memory _name)... */\n    tag_29:\n        /* \"Contracts/SimpleStorage.sol\":1066:1073  uint256 */\n      0x00\n        /* \"Contracts/SimpleStorage.sol\":1096:1116  nameToFavoriteNumber */\n      0x02\n        /* \"Contracts/SimpleStorage.sol\":1117:1122  _name */\n      dup3\n        /* \"Contracts/SimpleStorage.sol\":1096:1123  nameToFavoriteNumber[_name] */\n      mload(0x40)\n      tag_64\n      swap2\n      swap1\n      tag_65\n      jump\t// in\n    tag_64:\n      swap1\n      dup2\n      mstore\n      0x20\n      add\n      mload(0x40)\n      dup1\n      swap2\n      sub\n      swap1\n      keccak256\n      sload\n        /* \"Contracts/SimpleStorage.sol\":1089:1123  return nameToFavoriteNumber[_name] */\n      swap1\n      pop\n        /* \"Contracts/SimpleStorage.sol\":967:1130  function getNameToFavoriteNumber(string memory _name)... */\n      swap2\n      swap1\n      pop\n      jump\t// out\n        /* \"Contracts/SimpleStorage.sol\":393:499  function store(uint256 _favoriteNumber) public virtual {... */\n    tag_33:\n        /* \"Contracts/SimpleStorage.sol\":477:492  _favoriteNumber */\n      dup1\n        /* \"Contracts/SimpleStorage.sol\":458:474  myFavoriteNumber */\n      0x00\n        /* \"Contracts/SimpleStorage.sol\":458:492  myFavoriteNumber = _favoriteNumber */\n      dup2\n      swap1\n      sstore\n      pop\n        /* \"Contracts/SimpleStorage.sol\":393:499  function store(uint256 _favoriteNumber) public virtual {... */\n      pop\n      jump\t// out\n        /* \"Contracts/SimpleStorage.sol\":601:794  function addPerson(string memory _name, uint256 _favoriteNumber) public {... */\n    tag_37:\n        /* \"Contracts/SimpleStorage.sol\":683:695  listOfPeople */\n      0x01\n        /* \"Contracts/SimpleStorage.sol\":701:731  Person(_favoriteNumber, _name) */\n      mload(0x40)\n      dup1\n      0x40\n      add\n      0x40\n      mstore\n      dup1\n        /* \"Contracts/SimpleStorage.sol\":708:723  _favoriteNumber */\n      dup4\n        /* \"Contracts/SimpleStorage.sol\":701:731  Person(_favoriteNumber, _name) */\n      dup2\n      mstore\n      0x20\n      add\n        /* \"Contracts/SimpleStorage.sol\":725:730  _name */\n      dup5\n        /* \"Contracts/SimpleStorage.sol\":701:731  Person(_favoriteNumber, _name) */\n      dup2\n      mstore\n      pop\n        /* \"Contracts/SimpleStorage.sol\":683:732  listOfPeople.push(Person(_favoriteNumber, _name)) */\n      swap1\n      dup1\n      0x01\n      dup2\n      sload\n      add\n      dup1\n      dup3\n      sstore\n      dup1\n      swap2\n      pop\n      pop\n      0x01\n      swap1\n      sub\n      swap1\n      0x00\n      mstore\n      keccak256(0x00, 0x20)\n      swap1\n      0x02\n      mul\n      add\n      0x00\n      swap1\n      swap2\n      swap1\n      swap2\n      swap1\n      swap2\n      pop\n      0x00\n      dup3\n      add\n      mload\n      dup2\n      0x00\n      add\n      sstore\n      0x20\n      dup3\n      add\n      mload\n      dup2\n      0x01\n      add\n      swap1\n      dup2\n      tag_69\n      swap2\n      swap1\n      tag_70\n      jump\t// in\n    tag_69:\n      pop\n      pop\n      pop\n        /* \"Contracts/SimpleStorage.sol\":772:787  _favoriteNumber */\n      dup1\n        /* \"Contracts/SimpleStorage.sol\":742:762  nameToFavoriteNumber */\n      0x02\n        /* \"Contracts/SimpleStorage.sol\":763:768  _name */\n      dup4\n        /* \"Contracts/SimpleStorage.sol\":742:769  nameToFavoriteNumber[_name] */\n      mload(0x40)\n      tag_71\n      swap2\n      swap1\n      tag_65\n      jump\t// in\n    tag_71:\n      swap1\n      dup2\n      mstore\n      0x20\n      add\n      mload(0x40)\n      dup1\n      swap2\n      sub\n      swap1\n      keccak256\n        /* \"Contracts/SimpleStorage.sol\":742:787  nameToFavoriteNumber[_name] = _favoriteNumber */\n      dup2\n      swap1\n      sstore\n      pop\n        /* \"Contracts/SimpleStorage.sol\":601:794  function addPerson(string memory _name, uint256 _favoriteNumber) public {... */\n      pop\n      pop\n      jump\t// out\n        /* \"Contracts/SimpleStorage.sol\":332:386  mapping(string => uint256) public nameToFavoriteNumber */\n    tag_40:\n      0x02\n      dup2\n      dup1\n      mload\n      0x20\n      dup2\n      add\n      dup3\n      add\n      dup1\n      mload\n      dup5\n      dup3\n      mstore\n      0x20\n      dup4\n      add\n      0x20\n      dup6\n      add\n      keccak256\n      dup2\n      dup4\n      mstore\n      dup1\n      swap6\n      pop\n      pop\n      pop\n      pop\n      pop\n      pop\n      0x00\n      swap2\n      pop\n      swap1\n      pop\n      sload\n      dup2\n      jump\t// out\n    tag_43:\n      mload(0x40)\n      dup1\n      0x40\n      add\n      0x40\n      mstore\n      dup1\n      0x00\n      dup2\n      mstore\n      0x20\n      add\n      0x60\n      dup2\n      mstore\n      pop\n      swap1\n      jump\t// out\n        /* \"#utility.yul\":7:82   */\n    tag_72:\n        /* \"#utility.yul\":40:46   */\n      0x00\n        /* \"#utility.yul\":73:75   */\n      0x40\n        /* \"#utility.yul\":67:76   */\n      mload\n        /* \"#utility.yul\":57:76   */\n      swap1\n      pop\n        /* \"#utility.yul\":7:82   */\n      swap1\n      jump\t// out\n        /* \"#utility.yul\":88:205   */\n    tag_73:\n        /* \"#utility.yul\":197:198   */\n      0x00\n        /* \"#utility.yul\":194:195   */\n      dup1\n        /* \"#utility.yul\":187:199   */\n      revert\n        /* \"#utility.yul\":211:328   */\n    tag_74:\n        /* \"#utility.yul\":320:321   */\n      0x00\n        /* \"#utility.yul\":317:318   */\n      dup1\n        /* \"#utility.yul\":310:322   */\n      revert\n        /* \"#utility.yul\":334:411   */\n    tag_75:\n        /* \"#utility.yul\":371:378   */\n      0x00\n        /* \"#utility.yul\":400:405   */\n      dup2\n        /* \"#utility.yul\":389:405   */\n      swap1\n      pop\n        /* \"#utility.yul\":334:411   */\n      swap2\n      swap1\n      pop\n      jump\t// out\n        /* \"#utility.yul\":417:539   */\n    tag_76:\n        /* \"#utility.yul\":490:514   */\n      tag_121\n        /* \"#utility.yul\":508:513   */\n      dup2\n        /* \"#utility.yul\":490:514   */\n      tag_75\n      jump\t// in\n    tag_121:\n        /* \"#utility.yul\":483:488   */\n      dup2\n        /* \"#utility.yul\":480:515   */\n      eq\n        /* \"#utility.yul\":470:533   */\n      tag_122\n      jumpi\n        /* \"#utility.yul\":529:530   */\n      0x00\n        /* \"#utility.yul\":526:527   */\n      dup1\n        /* \"#utility.yul\":519:531   */\n      revert\n        /* \"#utility.yul\":470:533   */\n    tag_122:\n        /* \"#utility.yul\":417:539   */\n      pop\n      jump\t// out\n        /* \"#utility.yul\":545:684   */\n    tag_77:\n        /* \"#utility.yul\":591:596   */\n      0x00\n        /* \"#utility.yul\":629:635   */\n      dup2\n        /* \"#utility.yul\":616:636   */\n      calldataload\n        /* \"#utility.yul\":607:636   */\n      swap1\n      pop\n        /* \"#utility.yul\":645:678   */\n      tag_124\n        /* \"#utility.yul\":672:677   */\n      dup2\n        /* \"#utility.yul\":645:678   */\n      tag_76\n      jump\t// in\n    tag_124:\n        /* \"#utility.yul\":545:684   */\n      swap3\n      swap2\n      pop\n      pop\n      jump\t// out\n        /* \"#utility.yul\":690:1019   */\n    tag_13:\n        /* \"#utility.yul\":749:755   */\n      0x00\n        /* \"#utility.yul\":798:800   */\n      0x20\n        /* \"#utility.yul\":786:795   */\n      dup3\n        /* \"#utility.yul\":777:784   */\n      dup5\n        /* \"#utility.yul\":773:796   */\n      sub\n        /* \"#utility.yul\":769:801   */\n      slt\n        /* \"#utility.yul\":766:885   */\n      iszero\n      tag_126\n      jumpi\n        /* \"#utility.yul\":804:883   */\n      tag_127\n      tag_73\n      jump\t// in\n    tag_127:\n        /* \"#utility.yul\":766:885   */\n    tag_126:\n        /* \"#utility.yul\":924:925   */\n      0x00\n        /* \"#utility.yul\":949:1002   */\n      tag_128\n        /* \"#utility.yul\":994:1001   */\n      dup5\n        /* \"#utility.yul\":985:991   */\n      dup3\n        /* \"#utility.yul\":974:983   */\n      dup6\n        /* \"#utility.yul\":970:992   */\n      add\n        /* \"#utility.yul\":949:1002   */\n      tag_77\n      jump\t// in\n    tag_128:\n        /* \"#utility.yul\":939:1002   */\n      swap2\n      pop\n        /* \"#utility.yul\":895:1012   */\n      pop\n        /* \"#utility.yul\":690:1019   */\n      swap3\n      swap2\n      pop\n      pop\n      jump\t// out\n        /* \"#utility.yul\":1025:1133   */\n    tag_78:\n        /* \"#utility.yul\":1102:1126   */\n      tag_130\n        /* \"#utility.yul\":1120:1125   */\n      dup2\n        /* \"#utility.yul\":1102:1126   */\n      tag_75\n      jump\t// in\n    tag_130:\n        /* \"#utility.yul\":1097:1100   */\n      dup3\n        /* \"#utility.yul\":1090:1127   */\n      mstore\n        /* \"#utility.yul\":1025:1133   */\n      pop\n      pop\n      jump\t// out\n        /* \"#utility.yul\":1139:1238   */\n    tag_79:\n        /* \"#utility.yul\":1191:1197   */\n      0x00\n        /* \"#utility.yul\":1225:1230   */\n      dup2\n        /* \"#utility.yul\":1219:1231   */\n      mload\n        /* \"#utility.yul\":1209:1231   */\n      swap1\n      pop\n        /* \"#utility.yul\":1139:1238   */\n      swap2\n      swap1\n      pop\n      jump\t// out\n        /* \"#utility.yul\":1244:1403   */\n    tag_80:\n        /* \"#utility.yul\":1318:1329   */\n      0x00\n        /* \"#utility.yul\":1352:1358   */\n      dup3\n        /* \"#utility.yul\":1347:1350   */\n      dup3\n        /* \"#utility.yul\":1340:1359   */\n      mstore\n        /* \"#utility.yul\":1392:1396   */\n      0x20\n        /* \"#utility.yul\":1387:1390   */\n      dup3\n        /* \"#utility.yul\":1383:1397   */\n      add\n        /* \"#utility.yul\":1368:1397   */\n      swap1\n      pop\n        /* \"#utility.yul\":1244:1403   */\n      swap3\n      swap2\n      pop\n      pop\n      jump\t// out\n        /* \"#utility.yul\":1409:1548   */\n    tag_81:\n        /* \"#utility.yul\":1498:1504   */\n      dup3\n        /* \"#utility.yul\":1493:1496   */\n      dup2\n        /* \"#utility.yul\":1488:1491   */\n      dup4\n        /* \"#utility.yul\":1482:1505   */\n      mcopy\n        /* \"#utility.yul\":1539:1540   */\n      0x00\n        /* \"#utility.yul\":1530:1536   */\n      dup4\n        /* \"#utility.yul\":1525:1528   */\n      dup4\n        /* \"#utility.yul\":1521:1537   */\n      add\n        /* \"#utility.yul\":1514:1541   */\n      mstore\n        /* \"#utility.yul\":1409:1548   */\n      pop\n      pop\n      pop\n      jump\t// out\n        /* \"#utility.yul\":1554:1656   */\n    tag_82:\n        /* \"#utility.yul\":1595:1601   */\n      0x00\n        /* \"#utility.yul\":1646:1648   */\n      0x1f\n        /* \"#utility.yul\":1642:1649   */\n      not\n        /* \"#utility.yul\":1637:1639   */\n      0x1f\n        /* \"#utility.yul\":1630:1635   */\n      dup4\n        /* \"#utility.yul\":1626:1640   */\n      add\n        /* \"#utility.yul\":1622:1650   */\n      and\n        /* \"#utility.yul\":1612:1650   */\n      swap1\n      pop\n        /* \"#utility.yul\":1554:1656   */\n      swap2\n      swap1\n      pop\n      jump\t// out\n        /* \"#utility.yul\":1662:2019   */\n    tag_83:\n        /* \"#utility.yul\":1740:1743   */\n      0x00\n        /* \"#utility.yul\":1768:1807   */\n      tag_136\n        /* \"#utility.yul\":1801:1806   */\n      dup3\n        /* \"#utility.yul\":1768:1807   */\n      tag_79\n      jump\t// in\n    tag_136:\n        /* \"#utility.yul\":1823:1884   */\n      tag_137\n        /* \"#utility.yul\":1877:1883   */\n      dup2\n        /* \"#utility.yul\":1872:1875   */\n      dup6\n        /* \"#utility.yul\":1823:1884   */\n      tag_80\n      jump\t// in\n    tag_137:\n        /* \"#utility.yul\":1816:1884   */\n      swap4\n      pop\n        /* \"#utility.yul\":1893:1958   */\n      tag_138\n        /* \"#utility.yul\":1951:1957   */\n      dup2\n        /* \"#utility.yul\":1946:1949   */\n      dup6\n        /* \"#utility.yul\":1939:1943   */\n      0x20\n        /* \"#utility.yul\":1932:1937   */\n      dup7\n        /* \"#utility.yul\":1928:1944   */\n      add\n        /* \"#utility.yul\":1893:1958   */\n      tag_81\n      jump\t// in\n    tag_138:\n        /* \"#utility.yul\":1983:2012   */\n      tag_139\n        /* \"#utility.yul\":2005:2011   */\n      dup2\n        /* \"#utility.yul\":1983:2012   */\n      tag_82\n      jump\t// in\n    tag_139:\n        /* \"#utility.yul\":1978:1981   */\n      dup5\n        /* \"#utility.yul\":1974:2013   */\n      add\n        /* \"#utility.yul\":1967:2013   */\n      swap2\n      pop\n        /* \"#utility.yul\":1744:2019   */\n      pop\n        /* \"#utility.yul\":1662:2019   */\n      swap3\n      swap2\n      pop\n      pop\n      jump\t// out\n        /* \"#utility.yul\":2063:2675   */\n    tag_84:\n        /* \"#utility.yul\":2178:2181   */\n      0x00\n        /* \"#utility.yul\":2214:2218   */\n      0x40\n        /* \"#utility.yul\":2209:2212   */\n      dup4\n        /* \"#utility.yul\":2205:2219   */\n      add\n        /* \"#utility.yul\":2311:2315   */\n      0x00\n        /* \"#utility.yul\":2304:2309   */\n      dup4\n        /* \"#utility.yul\":2300:2316   */\n      add\n        /* \"#utility.yul\":2294:2317   */\n      mload\n        /* \"#utility.yul\":2330:2393   */\n      tag_141\n        /* \"#utility.yul\":2387:2391   */\n      0x00\n        /* \"#utility.yul\":2382:2385   */\n      dup7\n        /* \"#utility.yul\":2378:2392   */\n      add\n        /* \"#utility.yul\":2364:2376   */\n      dup3\n        /* \"#utility.yul\":2330:2393   */\n      tag_78\n      jump\t// in\n    tag_141:\n        /* \"#utility.yul\":2229:2403   */\n      pop\n        /* \"#utility.yul\":2485:2489   */\n      0x20\n        /* \"#utility.yul\":2478:2483   */\n      dup4\n        /* \"#utility.yul\":2474:2490   */\n      add\n        /* \"#utility.yul\":2468:2491   */\n      mload\n        /* \"#utility.yul\":2538:2541   */\n      dup5\n        /* \"#utility.yul\":2532:2536   */\n      dup3\n        /* \"#utility.yul\":2528:2542   */\n      sub\n        /* \"#utility.yul\":2521:2525   */\n      0x20\n        /* \"#utility.yul\":2516:2519   */\n      dup7\n        /* \"#utility.yul\":2512:2526   */\n      add\n        /* \"#utility.yul\":2505:2543   */\n      mstore\n        /* \"#utility.yul\":2564:2637   */\n      tag_142\n        /* \"#utility.yul\":2632:2636   */\n      dup3\n        /* \"#utility.yul\":2618:2630   */\n      dup3\n        /* \"#utility.yul\":2564:2637   */\n      tag_83\n      jump\t// in\n    tag_142:\n        /* \"#utility.yul\":2556:2637   */\n      swap2\n      pop\n        /* \"#utility.yul\":2413:2648   */\n      pop\n        /* \"#utility.yul\":2665:2669   */\n      dup1\n        /* \"#utility.yul\":2658:2669   */\n      swap2\n      pop\n        /* \"#utility.yul\":2183:2675   */\n      pop\n        /* \"#utility.yul\":2063:2675   */\n      swap3\n      swap2\n      pop\n      pop\n      jump\t// out\n        /* \"#utility.yul\":2681:3046   */\n    tag_16:\n        /* \"#utility.yul\":2820:2824   */\n      0x00\n        /* \"#utility.yul\":2858:2860   */\n      0x20\n        /* \"#utility.yul\":2847:2856   */\n      dup3\n        /* \"#utility.yul\":2843:2861   */\n      add\n        /* \"#utility.yul\":2835:2861   */\n      swap1\n      pop\n        /* \"#utility.yul\":2907:2916   */\n      dup2\n        /* \"#utility.yul\":2901:2905   */\n      dup2\n        /* \"#utility.yul\":2897:2917   */\n      sub\n        /* \"#utility.yul\":2893:2894   */\n      0x00\n        /* \"#utility.yul\":2882:2891   */\n      dup4\n        /* \"#utility.yul\":2878:2895   */\n      add\n        /* \"#utility.yul\":2871:2918   */\n      mstore\n        /* \"#utility.yul\":2935:3039   */\n      tag_144\n        /* \"#utility.yul\":3034:3038   */\n      dup2\n        /* \"#utility.yul\":3025:3031   */\n      dup5\n        /* \"#utility.yul\":2935:3039   */\n      tag_84\n      jump\t// in\n    tag_144:\n        /* \"#utility.yul\":2927:3039   */\n      swap1\n      pop\n        /* \"#utility.yul\":2681:3046   */\n      swap3\n      swap2\n      pop\n      pop\n      jump\t// out\n        /* \"#utility.yul\":3052:3170   */\n    tag_85:\n        /* \"#utility.yul\":3139:3163   */\n      tag_146\n        /* \"#utility.yul\":3157:3162   */\n      dup2\n        /* \"#utility.yul\":3139:3163   */\n      tag_75\n      jump\t// in\n    tag_146:\n        /* \"#utility.yul\":3134:3137   */\n      dup3\n        /* \"#utility.yul\":3127:3164   */\n      mstore\n        /* \"#utility.yul\":3052:3170   */\n      pop\n      pop\n      jump\t// out\n        /* \"#utility.yul\":3176:3398   */\n    tag_20:\n        /* \"#utility.yul\":3269:3273   */\n      0x00\n        /* \"#utility.yul\":3307:3309   */\n      0x20\n        /* \"#utility.yul\":3296:3305   */\n      dup3\n        /* \"#utility.yul\":3292:3310   */\n      add\n        /* \"#utility.yul\":3284:3310   */\n      swap1\n      pop\n        /* \"#utility.yul\":3320:3391   */\n      tag_148\n        /* \"#utility.yul\":3388:3389   */\n      0x00\n        /* \"#utility.yul\":3377:3386   */\n      dup4\n        /* \"#utility.yul\":3373:3390   */\n      add\n        /* \"#utility.yul\":3364:3370   */\n      dup5\n        /* \"#utility.yul\":3320:3391   */\n      tag_85\n      jump\t// in\n    tag_148:\n        /* \"#utility.yul\":3176:3398   */\n      swap3\n      swap2\n      pop\n      pop\n      jump\t// out\n        /* \"#utility.yul\":3404:3573   */\n    tag_86:\n        /* \"#utility.yul\":3488:3499   */\n      0x00\n        /* \"#utility.yul\":3522:3528   */\n      dup3\n        /* \"#utility.yul\":3517:3520   */\n      dup3\n        /* \"#utility.yul\":3510:3529   */\n      mstore\n        /* \"#utility.yul\":3562:3566   */\n      0x20\n        /* \"#utility.yul\":3557:3560   */\n      dup3\n        /* \"#utility.yul\":3553:3567   */\n      add\n        /* \"#utility.yul\":3538:3567   */\n      swap1\n      pop\n        /* \"#utility.yul\":3404:3573   */\n      swap3\n      swap2\n      pop\n      pop\n      jump\t// out\n        /* \"#utility.yul\":3579:3956   */\n    tag_87:\n        /* \"#utility.yul\":3667:3670   */\n      0x00\n        /* \"#utility.yul\":3695:3734   */\n      tag_151\n        /* \"#utility.yul\":3728:3733   */\n      dup3\n        /* \"#utility.yul\":3695:3734   */\n      tag_79\n      jump\t// in\n    tag_151:\n        /* \"#utility.yul\":3750:3821   */\n      tag_152\n        /* \"#utility.yul\":3814:3820   */\n      dup2\n        /* \"#utility.yul\":3809:3812   */\n      dup6\n        /* \"#utility.yul\":3750:3821   */\n      tag_86\n      jump\t// in\n    tag_152:\n        /* \"#utility.yul\":3743:3821   */\n      swap4\n      pop\n        /* \"#utility.yul\":3830:3895   */\n      tag_153\n        /* \"#utility.yul\":3888:3894   */\n      dup2\n        /* \"#utility.yul\":3883:3886   */\n      dup6\n        /* \"#utility.yul\":3876:3880   */\n      0x20\n        /* \"#utility.yul\":3869:3874   */\n      dup7\n        /* \"#utility.yul\":3865:3881   */\n      add\n        /* \"#utility.yul\":3830:3895   */\n      tag_81\n      jump\t// in\n    tag_153:\n        /* \"#utility.yul\":3920:3949   */\n      tag_154\n        /* \"#utility.yul\":3942:3948   */\n      dup2\n        /* \"#utility.yul\":3920:3949   */\n      tag_82\n      jump\t// in\n    tag_154:\n        /* \"#utility.yul\":3915:3918   */\n      dup5\n        /* \"#utility.yul\":3911:3950   */\n      add\n        /* \"#utility.yul\":3904:3950   */\n      swap2\n      pop\n        /* \"#utility.yul\":3671:3956   */\n      pop\n        /* \"#utility.yul\":3579:3956   */\n      swap3\n      swap2\n      pop\n      pop\n      jump\t// out\n        /* \"#utility.yul\":3962:4385   */\n    tag_25:\n        /* \"#utility.yul\":4103:4107   */\n      0x00\n        /* \"#utility.yul\":4141:4143   */\n      0x40\n        /* \"#utility.yul\":4130:4139   */\n      dup3\n        /* \"#utility.yul\":4126:4144   */\n      add\n        /* \"#utility.yul\":4118:4144   */\n      swap1\n      pop\n        /* \"#utility.yul\":4154:4225   */\n      tag_156\n        /* \"#utility.yul\":4222:4223   */\n      0x00\n        /* \"#utility.yul\":4211:4220   */\n      dup4\n        /* \"#utility.yul\":4207:4224   */\n      add\n        /* \"#utility.yul\":4198:4204   */\n      dup6\n        /* \"#utility.yul\":4154:4225   */\n      tag_85\n      jump\t// in\n    tag_156:\n        /* \"#utility.yul\":4272:4281   */\n      dup2\n        /* \"#utility.yul\":4266:4270   */\n      dup2\n        /* \"#utility.yul\":4262:4282   */\n      sub\n        /* \"#utility.yul\":4257:4259   */\n      0x20\n        /* \"#utility.yul\":4246:4255   */\n      dup4\n        /* \"#utility.yul\":4242:4260   */\n      add\n        /* \"#utility.yul\":4235:4283   */\n      mstore\n        /* \"#utility.yul\":4300:4378   */\n      tag_157\n        /* \"#utility.yul\":4373:4377   */\n      dup2\n        /* \"#utility.yul\":4364:4370   */\n      dup5\n        /* \"#utility.yul\":4300:4378   */\n      tag_87\n      jump\t// in\n    tag_157:\n        /* \"#utility.yul\":4292:4378   */\n      swap1\n      pop\n        /* \"#utility.yul\":3962:4385   */\n      swap4\n      swap3\n      pop\n      pop\n      pop\n      jump\t// out\n        /* \"#utility.yul\":4391:4508   */\n    tag_88:\n        /* \"#utility.yul\":4500:4501   */\n      0x00\n        /* \"#utility.yul\":4497:4498   */\n      dup1\n        /* \"#utility.yul\":4490:4502   */\n      revert\n        /* \"#utility.yul\":4514:4631   */\n    tag_89:\n        /* \"#utility.yul\":4623:4624   */\n      0x00\n        /* \"#utility.yul\":4620:4621   */\n      dup1\n        /* \"#utility.yul\":4613:4625   */\n      revert\n        /* \"#utility.yul\":4637:4817   */\n    tag_90:\n        /* \"#utility.yul\":4685:4762   */\n      0x4e487b7100000000000000000000000000000000000000000000000000000000\n        /* \"#utility.yul\":4682:4683   */\n      0x00\n        /* \"#utility.yul\":4675:4763   */\n      mstore\n        /* \"#utility.yul\":4782:4786   */\n      0x41\n        /* \"#utility.yul\":4779:4780   */\n      0x04\n        /* \"#utility.yul\":4772:4787   */\n      mstore\n        /* \"#utility.yul\":4806:4810   */\n      0x24\n        /* \"#utility.yul\":4803:4804   */\n      0x00\n        /* \"#utility.yul\":4796:4811   */\n      revert\n        /* \"#utility.yul\":4823:5104   */\n    tag_91:\n        /* \"#utility.yul\":4906:4933   */\n      tag_162\n        /* \"#utility.yul\":4928:4932   */\n      dup3\n        /* \"#utility.yul\":4906:4933   */\n      tag_82\n      jump\t// in\n    tag_162:\n        /* \"#utility.yul\":4898:4904   */\n      dup2\n        /* \"#utility.yul\":4894:4934   */\n      add\n        /* \"#utility.yul\":5036:5042   */\n      dup2\n        /* \"#utility.yul\":5024:5034   */\n      dup2\n        /* \"#utility.yul\":5021:5043   */\n      lt\n        /* \"#utility.yul\":5000:5018   */\n      0xffffffffffffffff\n        /* \"#utility.yul\":4988:4998   */\n      dup3\n        /* \"#utility.yul\":4985:5019   */\n      gt\n        /* \"#utility.yul\":4982:5044   */\n      or\n        /* \"#utility.yul\":4979:5067   */\n      iszero\n      tag_163\n      jumpi\n        /* \"#utility.yul\":5047:5065   */\n      tag_164\n      tag_90\n      jump\t// in\n    tag_164:\n        /* \"#utility.yul\":4979:5067   */\n    tag_163:\n        /* \"#utility.yul\":5087:5097   */\n      dup1\n        /* \"#utility.yul\":5083:5085   */\n      0x40\n        /* \"#utility.yul\":5076:5098   */\n      mstore\n        /* \"#utility.yul\":4866:5104   */\n      pop\n        /* \"#utility.yul\":4823:5104   */\n      pop\n      pop\n      jump\t// out\n        /* \"#utility.yul\":5110:5239   */\n    tag_92:\n        /* \"#utility.yul\":5144:5150   */\n      0x00\n        /* \"#utility.yul\":5171:5191   */\n      tag_166\n      tag_72\n      jump\t// in\n    tag_166:\n        /* \"#utility.yul\":5161:5191   */\n      swap1\n      pop\n        /* \"#utility.yul\":5200:5233   */\n      tag_167\n        /* \"#utility.yul\":5228:5232   */\n      dup3\n        /* \"#utility.yul\":5220:5226   */\n      dup3\n        /* \"#utility.yul\":5200:5233   */\n      tag_91\n      jump\t// in\n    tag_167:\n        /* \"#utility.yul\":5110:5239   */\n      swap2\n      swap1\n      pop\n      jump\t// out\n        /* \"#utility.yul\":5245:5553   */\n    tag_93:\n        /* \"#utility.yul\":5307:5311   */\n      0x00\n        /* \"#utility.yul\":5397:5415   */\n      0xffffffffffffffff\n        /* \"#utility.yul\":5389:5395   */\n      dup3\n        /* \"#utility.yul\":5386:5416   */\n      gt\n        /* \"#utility.yul\":5383:5439   */\n      iszero\n      tag_169\n      jumpi\n        /* \"#utility.yul\":5419:5437   */\n      tag_170\n      tag_90\n      jump\t// in\n    tag_170:\n        /* \"#utility.yul\":5383:5439   */\n    tag_169:\n        /* \"#utility.yul\":5457:5486   */\n      tag_171\n        /* \"#utility.yul\":5479:5485   */\n      dup3\n        /* \"#utility.yul\":5457:5486   */\n      tag_82\n      jump\t// in\n    tag_171:\n        /* \"#utility.yul\":5449:5486   */\n      swap1\n      pop\n        /* \"#utility.yul\":5541:5545   */\n      0x20\n        /* \"#utility.yul\":5535:5539   */\n      dup2\n        /* \"#utility.yul\":5531:5546   */\n      add\n        /* \"#utility.yul\":5523:5546   */\n      swap1\n      pop\n        /* \"#utility.yul\":5245:5553   */\n      swap2\n      swap1\n      pop\n      jump\t// out\n        /* \"#utility.yul\":5559:5707   */\n    tag_94:\n        /* \"#utility.yul\":5657:5663   */\n      dup3\n        /* \"#utility.yul\":5652:5655   */\n      dup2\n        /* \"#utility.yul\":5647:5650   */\n      dup4\n        /* \"#utility.yul\":5634:5664   */\n      calldatacopy\n        /* \"#utility.yul\":5698:5699   */\n      0x00\n        /* \"#utility.yul\":5689:5695   */\n      dup4\n        /* \"#utility.yul\":5684:5687   */\n      dup4\n        /* \"#utility.yul\":5680:5696   */\n      add\n        /* \"#utility.yul\":5673:5700   */\n      mstore\n        /* \"#utility.yul\":5559:5707   */\n      pop\n      pop\n      pop\n      jump\t// out\n        /* \"#utility.yul\":5713:6138   */\n    tag_95:\n        /* \"#utility.yul\":5791:5796   */\n      0x00\n        /* \"#utility.yul\":5816:5882   */\n      tag_174\n        /* \"#utility.yul\":5832:5881   */\n      tag_175\n        /* \"#utility.yul\":5874:5880   */\n      dup5\n        /* \"#utility.yul\":5832:5881   */\n      tag_93\n      jump\t// in\n    tag_175:\n        /* \"#utility.yul\":5816:5882   */\n      tag_92\n      jump\t// in\n    tag_174:\n        /* \"#utility.yul\":5807:5882   */\n      swap1\n      pop\n        /* \"#utility.yul\":5905:5911   */\n      dup3\n        /* \"#utility.yul\":5898:5903   */\n      dup2\n        /* \"#utility.yul\":5891:5912   */\n      mstore\n        /* \"#utility.yul\":5943:5947   */\n      0x20\n        /* \"#utility.yul\":5936:5941   */\n      dup2\n        /* \"#utility.yul\":5932:5948   */\n      add\n        /* \"#utility.yul\":5981:5984   */\n      dup5\n        /* \"#utility.yul\":5972:5978   */\n      dup5\n        /* \"#utility.yul\":5967:5970   */\n      dup5\n        /* \"#utility.yul\":5963:5979   */\n      add\n        /* \"#utility.yul\":5960:5985   */\n      gt\n        /* \"#utility.yul\":5957:6069   */\n      iszero\n      tag_176\n      jumpi\n        /* \"#utility.yul\":5988:6067   */\n      tag_177\n      tag_89\n      jump\t// in\n    tag_177:\n        /* \"#utility.yul\":5957:6069   */\n    tag_176:\n        /* \"#utility.yul\":6078:6132   */\n      tag_178\n        /* \"#utility.yul\":6125:6131   */\n      dup5\n        /* \"#utility.yul\":6120:6123   */\n      dup3\n        /* \"#utility.yul\":6115:6118   */\n      dup6\n        /* \"#utility.yul\":6078:6132   */\n      tag_94\n      jump\t// in\n    tag_178:\n        /* \"#utility.yul\":5797:6138   */\n      pop\n        /* \"#utility.yul\":5713:6138   */\n      swap4\n      swap3\n      pop\n      pop\n      pop\n      jump\t// out\n        /* \"#utility.yul\":6158:6498   */\n    tag_96:\n        /* \"#utility.yul\":6214:6219   */\n      0x00\n        /* \"#utility.yul\":6263:6266   */\n      dup3\n        /* \"#utility.yul\":6256:6260   */\n      0x1f\n        /* \"#utility.yul\":6248:6254   */\n      dup4\n        /* \"#utility.yul\":6244:6261   */\n      add\n        /* \"#utility.yul\":6240:6267   */\n      slt\n        /* \"#utility.yul\":6230:6352   */\n      tag_180\n      jumpi\n        /* \"#utility.yul\":6271:6350   */\n      tag_181\n      tag_88\n      jump\t// in\n    tag_181:\n        /* \"#utility.yul\":6230:6352   */\n    tag_180:\n        /* \"#utility.yul\":6388:6394   */\n      dup2\n        /* \"#utility.yul\":6375:6395   */\n      calldataload\n        /* \"#utility.yul\":6413:6492   */\n      tag_182\n        /* \"#utility.yul\":6488:6491   */\n      dup5\n        /* \"#utility.yul\":6480:6486   */\n      dup3\n        /* \"#utility.yul\":6473:6477   */\n      0x20\n        /* \"#utility.yul\":6465:6471   */\n      dup7\n        /* \"#utility.yul\":6461:6478   */\n      add\n        /* \"#utility.yul\":6413:6492   */\n      tag_95\n      jump\t// in\n    tag_182:\n        /* \"#utility.yul\":6404:6492   */\n      swap2\n      pop\n        /* \"#utility.yul\":6220:6498   */\n      pop\n        /* \"#utility.yul\":6158:6498   */\n      swap3\n      swap2\n      pop\n      pop\n      jump\t// out\n        /* \"#utility.yul\":6504:7013   */\n    tag_28:\n        /* \"#utility.yul\":6573:6579   */\n      0x00\n        /* \"#utility.yul\":6622:6624   */\n      0x20\n        /* \"#utility.yul\":6610:6619   */\n      dup3\n        /* \"#utility.yul\":6601:6608   */\n      dup5\n        /* \"#utility.yul\":6597:6620   */\n      sub\n        /* \"#utility.yul\":6593:6625   */\n      slt\n        /* \"#utility.yul\":6590:6709   */\n      iszero\n      tag_184\n      jumpi\n        /* \"#utility.yul\":6628:6707   */\n      tag_185\n      tag_73\n      jump\t// in\n    tag_185:\n        /* \"#utility.yul\":6590:6709   */\n    tag_184:\n        /* \"#utility.yul\":6776:6777   */\n      0x00\n        /* \"#utility.yul\":6765:6774   */\n      dup3\n        /* \"#utility.yul\":6761:6778   */\n      add\n        /* \"#utility.yul\":6748:6779   */\n      calldataload\n        /* \"#utility.yul\":6806:6824   */\n      0xffffffffffffffff\n        /* \"#utility.yul\":6798:6804   */\n      dup2\n        /* \"#utility.yul\":6795:6825   */\n      gt\n        /* \"#utility.yul\":6792:6909   */\n      iszero\n      tag_186\n      jumpi\n        /* \"#utility.yul\":6828:6907   */\n      tag_187\n      tag_74\n      jump\t// in\n    tag_187:\n        /* \"#utility.yul\":6792:6909   */\n    tag_186:\n        /* \"#utility.yul\":6933:6996   */\n      tag_188\n        /* \"#utility.yul\":6988:6995   */\n      dup5\n        /* \"#utility.yul\":6979:6985   */\n      dup3\n        /* \"#utility.yul\":6968:6977   */\n      dup6\n        /* \"#utility.yul\":6964:6986   */\n      add\n        /* \"#utility.yul\":6933:6996   */\n      tag_96\n      jump\t// in\n    tag_188:\n        /* \"#utility.yul\":6923:6996   */\n      swap2\n      pop\n        /* \"#utility.yul\":6719:7006   */\n      pop\n        /* \"#utility.yul\":6504:7013   */\n      swap3\n      swap2\n      pop\n      pop\n      jump\t// out\n        /* \"#utility.yul\":7019:7673   */\n    tag_36:\n        /* \"#utility.yul\":7097:7103   */\n      0x00\n        /* \"#utility.yul\":7105:7111   */\n      dup1\n        /* \"#utility.yul\":7154:7156   */\n      0x40\n        /* \"#utility.yul\":7142:7151   */\n      dup4\n        /* \"#utility.yul\":7133:7140   */\n      dup6\n        /* \"#utility.yul\":7129:7152   */\n      sub\n        /* \"#utility.yul\":7125:7157   */\n      slt\n        /* \"#utility.yul\":7122:7241   */\n      iszero\n      tag_190\n      jumpi\n        /* \"#utility.yul\":7160:7239   */\n      tag_191\n      tag_73\n      jump\t// in\n    tag_191:\n        /* \"#utility.yul\":7122:7241   */\n    tag_190:\n        /* \"#utility.yul\":7308:7309   */\n      0x00\n        /* \"#utility.yul\":7297:7306   */\n      dup4\n        /* \"#utility.yul\":7293:7310   */\n      add\n        /* \"#utility.yul\":7280:7311   */\n      calldataload\n        /* \"#utility.yul\":7338:7356   */\n      0xffffffffffffffff\n        /* \"#utility.yul\":7330:7336   */\n      dup2\n        /* \"#utility.yul\":7327:7357   */\n      gt\n        /* \"#utility.yul\":7324:7441   */\n      iszero\n      tag_192\n      jumpi\n        /* \"#utility.yul\":7360:7439   */\n      tag_193\n      tag_74\n      jump\t// in\n    tag_193:\n        /* \"#utility.yul\":7324:7441   */\n    tag_192:\n        /* \"#utility.yul\":7465:7528   */\n      tag_194\n        /* \"#utility.yul\":7520:7527   */\n      dup6\n        /* \"#utility.yul\":7511:7517   */\n      dup3\n        /* \"#utility.yul\":7500:7509   */\n      dup7\n        /* \"#utility.yul\":7496:7518   */\n      add\n        /* \"#utility.yul\":7465:7528   */\n      tag_96\n      jump\t// in\n    tag_194:\n        /* \"#utility.yul\":7455:7528   */\n      swap3\n      pop\n        /* \"#utility.yul\":7251:7538   */\n      pop\n        /* \"#utility.yul\":7577:7579   */\n      0x20\n        /* \"#utility.yul\":7603:7656   */\n      tag_195\n        /* \"#utility.yul\":7648:7655   */\n      dup6\n        /* \"#utility.yul\":7639:7645   */\n      dup3\n        /* \"#utility.yul\":7628:7637   */\n      dup7\n        /* \"#utility.yul\":7624:7646   */\n      add\n        /* \"#utility.yul\":7603:7656   */\n      tag_77\n      jump\t// in\n    tag_195:\n        /* \"#utility.yul\":7593:7656   */\n      swap2\n      pop\n        /* \"#utility.yul\":7548:7666   */\n      pop\n        /* \"#utility.yul\":7019:7673   */\n      swap3\n      pop\n      swap3\n      swap1\n      pop\n      jump\t// out\n        /* \"#utility.yul\":7679:7859   */\n    tag_47:\n        /* \"#utility.yul\":7727:7804   */\n      0x4e487b7100000000000000000000000000000000000000000000000000000000\n        /* \"#utility.yul\":7724:7725   */\n      0x00\n        /* \"#utility.yul\":7717:7805   */\n      mstore\n        /* \"#utility.yul\":7824:7828   */\n      0x32\n        /* \"#utility.yul\":7821:7822   */\n      0x04\n        /* \"#utility.yul\":7814:7829   */\n      mstore\n        /* \"#utility.yul\":7848:7852   */\n      0x24\n        /* \"#utility.yul\":7845:7846   */\n      0x00\n        /* \"#utility.yul\":7838:7853   */\n      revert\n        /* \"#utility.yul\":7865:8045   */\n    tag_97:\n        /* \"#utility.yul\":7913:7990   */\n      0x4e487b7100000000000000000000000000000000000000000000000000000000\n        /* \"#utility.yul\":7910:7911   */\n      0x00\n        /* \"#utility.yul\":7903:7991   */\n      mstore\n        /* \"#utility.yul\":8010:8014   */\n      0x22\n        /* \"#utility.yul\":8007:8008   */\n      0x04\n        /* \"#utility.yul\":8000:8015   */\n      mstore\n        /* \"#utility.yul\":8034:8038   */\n      0x24\n        /* \"#utility.yul\":8031:8032   */\n      0x00\n        /* \"#utility.yul\":8024:8039   */\n      revert\n        /* \"#utility.yul\":8051:8371   */\n    tag_50:\n        /* \"#utility.yul\":8095:8101   */\n      0x00\n        /* \"#utility.yul\":8132:8133   */\n      0x02\n        /* \"#utility.yul\":8126:8130   */\n      dup3\n        /* \"#utility.yul\":8122:8134   */\n      div\n        /* \"#utility.yul\":8112:8134   */\n      swap1\n      pop\n        /* \"#utility.yul\":8179:8180   */\n      0x01\n        /* \"#utility.yul\":8173:8177   */\n      dup3\n        /* \"#utility.yul\":8169:8181   */\n      and\n        /* \"#utility.yul\":8200:8218   */\n      dup1\n        /* \"#utility.yul\":8190:8271   */\n      tag_199\n      jumpi\n        /* \"#utility.yul\":8256:8260   */\n      0x7f\n        /* \"#utility.yul\":8248:8254   */\n      dup3\n        /* \"#utility.yul\":8244:8261   */\n      and\n        /* \"#utility.yul\":8234:8261   */\n      swap2\n      pop\n        /* \"#utility.yul\":8190:8271   */\n    tag_199:\n        /* \"#utility.yul\":8318:8320   */\n      0x20\n        /* \"#utility.yul\":8310:8316   */\n      dup3\n        /* \"#utility.yul\":8307:8321   */\n      lt\n        /* \"#utility.yul\":8287:8305   */\n      dup2\n        /* \"#utility.yul\":8284:8322   */\n      sub\n        /* \"#utility.yul\":8281:8365   */\n      tag_200\n      jumpi\n        /* \"#utility.yul\":8337:8355   */\n      tag_201\n      tag_97\n      jump\t// in\n    tag_201:\n        /* \"#utility.yul\":8281:8365   */\n    tag_200:\n        /* \"#utility.yul\":8102:8371   */\n      pop\n        /* \"#utility.yul\":8051:8371   */\n      swap2\n      swap1\n      pop\n      jump\t// out\n        /* \"#utility.yul\":8377:8525   */\n    tag_98:\n        /* \"#utility.yul\":8479:8490   */\n      0x00\n        /* \"#utility.yul\":8516:8519   */\n      dup2\n        /* \"#utility.yul\":8501:8519   */\n      swap1\n      pop\n        /* \"#utility.yul\":8377:8525   */\n      swap3\n      swap2\n      pop\n      pop\n      jump\t// out\n        /* \"#utility.yul\":8531:8921   */\n    tag_99:\n        /* \"#utility.yul\":8637:8640   */\n      0x00\n        /* \"#utility.yul\":8665:8704   */\n      tag_204\n        /* \"#utility.yul\":8698:8703   */\n      dup3\n        /* \"#utility.yul\":8665:8704   */\n      tag_79\n      jump\t// in\n    tag_204:\n        /* \"#utility.yul\":8720:8809   */\n      tag_205\n        /* \"#utility.yul\":8802:8808   */\n      dup2\n        /* \"#utility.yul\":8797:8800   */\n      dup6\n        /* \"#utility.yul\":8720:8809   */\n      tag_98\n      jump\t// in\n    tag_205:\n        /* \"#utility.yul\":8713:8809   */\n      swap4\n      pop\n        /* \"#utility.yul\":8818:8883   */\n      tag_206\n        /* \"#utility.yul\":8876:8882   */\n      dup2\n        /* \"#utility.yul\":8871:8874   */\n      dup6\n        /* \"#utility.yul\":8864:8868   */\n      0x20\n        /* \"#utility.yul\":8857:8862   */\n      dup7\n        /* \"#utility.yul\":8853:8869   */\n      add\n        /* \"#utility.yul\":8818:8883   */\n      tag_81\n      jump\t// in\n    tag_206:\n        /* \"#utility.yul\":8908:8914   */\n      dup1\n        /* \"#utility.yul\":8903:8906   */\n      dup5\n        /* \"#utility.yul\":8899:8915   */\n      add\n        /* \"#utility.yul\":8892:8915   */\n      swap2\n      pop\n        /* \"#utility.yul\":8641:8921   */\n      pop\n        /* \"#utility.yul\":8531:8921   */\n      swap3\n      swap2\n      pop\n      pop\n      jump\t// out\n        /* \"#utility.yul\":8927:9202   */\n    tag_65:\n        /* \"#utility.yul\":9059:9062   */\n      0x00\n        /* \"#utility.yul\":9081:9176   */\n      tag_208\n        /* \"#utility.yul\":9172:9175   */\n      dup3\n        /* \"#utility.yul\":9163:9169   */\n      dup5\n        /* \"#utility.yul\":9081:9176   */\n      tag_99\n      jump\t// in\n    tag_208:\n        /* \"#utility.yul\":9074:9176   */\n      swap2\n      pop\n        /* \"#utility.yul\":9193:9196   */\n      dup2\n        /* \"#utility.yul\":9186:9196   */\n      swap1\n      pop\n        /* \"#utility.yul\":8927:9202   */\n      swap3\n      swap2\n      pop\n      pop\n      jump\t// out\n        /* \"#utility.yul\":9208:9349   */\n    tag_100:\n        /* \"#utility.yul\":9257:9261   */\n      0x00\n        /* \"#utility.yul\":9280:9283   */\n      dup2\n        /* \"#utility.yul\":9272:9283   */\n      swap1\n      pop\n        /* \"#utility.yul\":9303:9306   */\n      dup2\n        /* \"#utility.yul\":9300:9301   */\n      0x00\n        /* \"#utility.yul\":9293:9307   */\n      mstore\n        /* \"#utility.yul\":9337:9341   */\n      0x20\n        /* \"#utility.yul\":9334:9335   */\n      0x00\n        /* \"#utility.yul\":9324:9342   */\n      keccak256\n        /* \"#utility.yul\":9316:9342   */\n      swap1\n      pop\n        /* \"#utility.yul\":9208:9349   */\n      swap2\n      swap1\n      pop\n      jump\t// out\n        /* \"#utility.yul\":9355:9448   */\n    tag_101:\n        /* \"#utility.yul\":9392:9398   */\n      0x00\n        /* \"#utility.yul\":9439:9441   */\n      0x20\n        /* \"#utility.yul\":9434:9436   */\n      0x1f\n        /* \"#utility.yul\":9427:9432   */\n      dup4\n        /* \"#utility.yul\":9423:9437   */\n      add\n        /* \"#utility.yul\":9419:9442   */\n      div\n        /* \"#utility.yul\":9409:9442   */\n      swap1\n      pop\n        /* \"#utility.yul\":9355:9448   */\n      swap2\n      swap1\n      pop\n      jump\t// out\n        /* \"#utility.yul\":9454:9561   */\n    tag_102:\n        /* \"#utility.yul\":9498:9506   */\n      0x00\n        /* \"#utility.yul\":9548:9553   */\n      dup3\n        /* \"#utility.yul\":9542:9546   */\n      dup3\n        /* \"#utility.yul\":9538:9554   */\n      shl\n        /* \"#utility.yul\":9517:9554   */\n      swap1\n      pop\n        /* \"#utility.yul\":9454:9561   */\n      swap3\n      swap2\n      pop\n      pop\n      jump\t// out\n        /* \"#utility.yul\":9567:9960   */\n    tag_103:\n        /* \"#utility.yul\":9636:9642   */\n      0x00\n        /* \"#utility.yul\":9686:9687   */\n      0x08\n        /* \"#utility.yul\":9674:9684   */\n      dup4\n        /* \"#utility.yul\":9670:9688   */\n      mul\n        /* \"#utility.yul\":9709:9806   */\n      tag_213\n        /* \"#utility.yul\":9739:9805   */\n      0xffffffffffffffffffffffffffffffffffffffffffffffffffffffffffffffff\n        /* \"#utility.yul\":9728:9737   */\n      dup3\n        /* \"#utility.yul\":9709:9806   */\n      tag_102\n      jump\t// in\n    tag_213:\n        /* \"#utility.yul\":9827:9866   */\n      tag_214\n        /* \"#utility.yul\":9857:9865   */\n      dup7\n        /* \"#utility.yul\":9846:9855   */\n      dup4\n        /* \"#utility.yul\":9827:9866   */\n      tag_102\n      jump\t// in\n    tag_214:\n        /* \"#utility.yul\":9815:9866   */\n      swap6\n      pop\n        /* \"#utility.yul\":9899:9903   */\n      dup1\n        /* \"#utility.yul\":9895:9904   */\n      not\n        /* \"#utility.yul\":9888:9893   */\n      dup5\n        /* \"#utility.yul\":9884:9905   */\n      and\n        /* \"#utility.yul\":9875:9905   */\n      swap4\n      pop\n        /* \"#utility.yul\":9948:9952   */\n      dup1\n        /* \"#utility.yul\":9938:9946   */\n      dup7\n        /* \"#utility.yul\":9934:9953   */\n      and\n        /* \"#utility.yul\":9927:9932   */\n      dup5\n        /* \"#utility.yul\":9924:9954   */\n      or\n        /* \"#utility.yul\":9914:9954   */\n      swap3\n      pop\n        /* \"#utility.yul\":9643:9960   */\n      pop\n      pop\n        /* \"#utility.yul\":9567:9960   */\n      swap4\n      swap3\n      pop\n      pop\n      pop\n      jump\t// out\n        /* \"#utility.yul\":9966:10026   */\n    tag_104:\n        /* \"#utility.yul\":9994:9997   */\n      0x00\n        /* \"#utility.yul\":10015:10020   */\n      dup2\n        /* \"#utility.yul\":10008:10020   */\n      swap1\n      pop\n        /* \"#utility.yul\":9966:10026   */\n      swap2\n      swap1\n      pop\n      jump\t// out\n        /* \"#utility.yul\":10032:10174   */\n    tag_105:\n        /* \"#utility.yul\":10082:10091   */\n      0x00\n        /* \"#utility.yul\":10115:10168   */\n      tag_217\n        /* \"#utility.yul\":10133:10167   */\n      tag_218\n        /* \"#utility.yul\":10142:10166   */\n      tag_219\n        /* \"#utility.yul\":10160:10165   */\n      dup5\n        /* \"#utility.yul\":10142:10166   */\n      tag_75\n      jump\t// in\n    tag_219:\n        /* \"#utility.yul\":10133:10167   */\n      tag_104\n      jump\t// in\n    tag_218:\n        /* \"#utility.yul\":10115:10168   */\n      tag_75\n      jump\t// in\n    tag_217:\n        /* \"#utility.yul\":10102:10168   */\n      swap1\n      pop\n        /* \"#utility.yul\":10032:10174   */\n      swap2\n      swap1\n      pop\n      jump\t// out\n        /* \"#utility.yul\":10180:10255   */\n    tag_106:\n        /* \"#utility.yul\":10223:10226   */\n      0x00\n        /* \"#utility.yul\":10244:10249   */\n      dup2\n        /* \"#utility.yul\":10237:10249   */\n      swap1\n      pop\n        /* \"#utility.yul\":10180:10255   */\n      swap2\n      swap1\n      pop\n      jump\t// out\n        /* \"#utility.yul\":10261:10530   */\n    tag_107:\n        /* \"#utility.yul\":10371:10410   */\n      tag_222\n        /* \"#utility.yul\":10402:10409   */\n      dup4\n        /* \"#utility.yul\":10371:10410   */\n      tag_105\n      jump\t// in\n    tag_222:\n        /* \"#utility.yul\":10432:10523   */\n      tag_223\n        /* \"#utility.yul\":10481:10522   */\n      tag_224\n        /* \"#utility.yul\":10505:10521   */\n      dup3\n        /* \"#utility.yul\":10481:10522   */\n      tag_106\n      jump\t// in\n    tag_224:\n        /* \"#utility.yul\":10473:10479   */\n      dup5\n        /* \"#utility.yul\":10466:10470   */\n      dup5\n        /* \"#utility.yul\":10460:10471   */\n      sload\n        /* \"#utility.yul\":10432:10523   */\n      tag_103\n      jump\t// in\n    tag_223:\n        /* \"#utility.yul\":10426:10430   */\n      dup3\n        /* \"#utility.yul\":10419:10524   */\n      sstore\n        /* \"#utility.yul\":10337:10530   */\n      pop\n        /* \"#utility.yul\":10261:10530   */\n      pop\n      pop\n      pop\n      jump\t// out\n        /* \"#utility.yul\":10536:10609   */\n    tag_108:\n        /* \"#utility.yul\":10581:10584   */\n      0x00\n        /* \"#utility.yul\":10536:10609   */\n      swap1\n      jump\t// out\n        /* \"#utility.yul\":10615:10804   */\n    tag_109:\n        /* \"#utility.yul\":10692:10724   */\n      tag_227\n      tag_108\n      jump\t// in\n    tag_227:\n        /* \"#utility.yul\":10733:10798   */\n      tag_228\n        /* \"#utility.yul\":10791:10797   */\n      dup2\n        /* \"#utility.yul\":10783:10789   */\n      dup5\n        /* \"#utility.yul\":10777:10781   */\n      dup5\n        /* \"#utility.yul\":10733:10798   */\n      tag_107\n      jump\t// in\n    tag_228:\n        /* \"#utility.yul\":10668:10804   */\n      pop\n        /* \"#utility.yul\":10615:10804   */\n      pop\n      pop\n      jump\t// out\n        /* \"#utility.yul\":10810:10996   */\n    tag_110:\n        /* \"#utility.yul\":10870:10990   */\n    tag_230:\n        /* \"#utility.yul\":10887:10890   */\n      dup2\n        /* \"#utility.yul\":10880:10885   */\n      dup2\n        /* \"#utility.yul\":10877:10891   */\n      lt\n        /* \"#utility.yul\":10870:10990   */\n      iszero\n      tag_232\n      jumpi\n        /* \"#utility.yul\":10941:10980   */\n      tag_233\n        /* \"#utility.yul\":10978:10979   */\n      0x00\n        /* \"#utility.yul\":10971:10976   */\n      dup3\n        /* \"#utility.yul\":10941:10980   */\n      tag_109\n      jump\t// in\n    tag_233:\n        /* \"#utility.yul\":10914:10915   */\n      0x01\n        /* \"#utility.yul\":10907:10912   */\n      dup2\n        /* \"#utility.yul\":10903:10916   */\n      add\n        /* \"#utility.yul\":10894:10916   */\n      swap1\n      pop\n        /* \"#utility.yul\":10870:10990   */\n      jump(tag_230)\n    tag_232:\n        /* \"#utility.yul\":10810:10996   */\n      pop\n      pop\n      jump\t// out\n        /* \"#utility.yul\":11002:11545   */\n    tag_111:\n        /* \"#utility.yul\":11103:11105   */\n      0x1f\n        /* \"#utility.yul\":11098:11101   */\n      dup3\n        /* \"#utility.yul\":11095:11106   */\n      gt\n        /* \"#utility.yul\":11092:11538   */\n      iszero\n      tag_235\n      jumpi\n        /* \"#utility.yul\":11137:11175   */\n      tag_236\n        /* \"#utility.yul\":11169:11174   */\n      dup2\n        /* \"#utility.yul\":11137:11175   */\n      tag_100\n      jump\t// in\n    tag_236:\n        /* \"#utility.yul\":11221:11250   */\n      tag_237\n        /* \"#utility.yul\":11239:11249   */\n      dup5\n        /* \"#utility.yul\":11221:11250   */\n      tag_101\n      jump\t// in\n    tag_237:\n        /* \"#utility.yul\":11211:11219   */\n      dup2\n        /* \"#utility.yul\":11207:11251   */\n      add\n        /* \"#utility.yul\":11404:11406   */\n      0x20\n        /* \"#utility.yul\":11392:11402   */\n      dup6\n        /* \"#utility.yul\":11389:11407   */\n      lt\n        /* \"#utility.yul\":11386:11435   */\n      iszero\n      tag_238\n      jumpi\n        /* \"#utility.yul\":11425:11433   */\n      dup2\n        /* \"#utility.yul\":11410:11433   */\n      swap1\n      pop\n        /* \"#utility.yul\":11386:11435   */\n    tag_238:\n        /* \"#utility.yul\":11448:11528   */\n      tag_239\n        /* \"#utility.yul\":11504:11526   */\n      tag_240\n        /* \"#utility.yul\":11522:11525   */\n      dup6\n        /* \"#utility.yul\":11504:11526   */\n      tag_101\n      jump\t// in\n    tag_240:\n        /* \"#utility.yul\":11494:11502   */\n      dup4\n        /* \"#utility.yul\":11490:11527   */\n      add\n        /* \"#utility.yul\":11477:11488   */\n      dup3\n        /* \"#utility.yul\":11448:11528   */\n      tag_110\n      jump\t// in\n    tag_239:\n        /* \"#utility.yul\":11107:11538   */\n      pop\n      pop\n        /* \"#utility.yul\":11092:11538   */\n    tag_235:\n        /* \"#utility.yul\":11002:11545   */\n      pop\n      pop\n      pop\n      jump\t// out\n        /* \"#utility.yul\":11551:11668   */\n    tag_112:\n        /* \"#utility.yul\":11605:11613   */\n      0x00\n        /* \"#utility.yul\":11655:11660   */\n      dup3\n        /* \"#utility.yul\":11649:11653   */\n      dup3\n        /* \"#utility.yul\":11645:11661   */\n      shr\n        /* \"#utility.yul\":11624:11661   */\n      swap1\n      pop\n        /* \"#utility.yul\":11551:11668   */\n      swap3\n      swap2\n      pop\n      pop\n      jump\t// out\n        /* \"#utility.yul\":11674:11843   */\n    tag_113:\n        /* \"#utility.yul\":11718:11724   */\n      0x00\n        /* \"#utility.yul\":11751:11802   */\n      tag_243\n        /* \"#utility.yul\":11799:11800   */\n      0x00\n        /* \"#utility.yul\":11795:11801   */\n      not\n        /* \"#utility.yul\":11787:11792   */\n      dup5\n        /* \"#utility.yul\":11784:11785   */\n      0x08\n        /* \"#utility.yul\":11780:11793   */\n      mul\n        /* \"#utility.yul\":11751:11802   */\n      tag_112\n      jump\t// in\n    tag_243:\n        /* \"#utility.yul\":11747:11803   */\n      not\n        /* \"#utility.yul\":11832:11836   */\n      dup1\n        /* \"#utility.yul\":11826:11830   */\n      dup4\n        /* \"#utility.yul\":11822:11837   */\n      and\n        /* \"#utility.yul\":11812:11837   */\n      swap2\n      pop\n        /* \"#utility.yul\":11725:11843   */\n      pop\n        /* \"#utility.yul\":11674:11843   */\n      swap3\n      swap2\n      pop\n      pop\n      jump\t// out\n        /* \"#utility.yul\":11848:12143   */\n    tag_114:\n        /* \"#utility.yul\":11924:11928   */\n      0x00\n        /* \"#utility.yul\":12070:12099   */\n      tag_245\n        /* \"#utility.yul\":12095:12098   */\n      dup4\n        /* \"#utility.yul\":12089:12093   */\n      dup4\n        /* \"#utility.yul\":12070:12099   */\n      tag_113\n      jump\t// in\n    tag_245:\n        /* \"#utility.yul\":12062:12099   */\n      swap2\n      pop\n        /* \"#utility.yul\":12132:12135   */\n      dup3\n        /* \"#utility.yul\":12129:12130   */\n      0x02\n        /* \"#utility.yul\":12125:12136   */\n      mul\n        /* \"#utility.yul\":12119:12123   */\n      dup3\n        /* \"#utility.yul\":12116:12137   */\n      or\n        /* \"#utility.yul\":12108:12137   */\n      swap1\n      pop\n        /* \"#utility.yul\":11848:12143   */\n      swap3\n      swap2\n      pop\n      pop\n      jump\t// out\n        /* \"#utility.yul\":12148:13543   */\n    tag_70:\n        /* \"#utility.yul\":12265:12302   */\n      tag_247\n        /* \"#utility.yul\":12298:12301   */\n      dup3\n        /* \"#utility.yul\":12265:12302   */\n      tag_79\n      jump\t// in\n    tag_247:\n        /* \"#utility.yul\":12367:12385   */\n      0xffffffffffffffff\n        /* \"#utility.yul\":12359:12365   */\n      dup2\n        /* \"#utility.yul\":12356:12386   */\n      gt\n        /* \"#utility.yul\":12353:12409   */\n      iszero\n      tag_248\n      jumpi\n        /* \"#utility.yul\":12389:12407   */\n      tag_249\n      tag_90\n      jump\t// in\n    tag_249:\n        /* \"#utility.yul\":12353:12409   */\n    tag_248:\n        /* \"#utility.yul\":12433:12471   */\n      tag_250\n        /* \"#utility.yul\":12465:12469   */\n      dup3\n        /* \"#utility.yul\":12459:12470   */\n      sload\n        /* \"#utility.yul\":12433:12471   */\n      tag_50\n      jump\t// in\n    tag_250:\n        /* \"#utility.yul\":12518:12585   */\n      tag_251\n        /* \"#utility.yul\":12578:12584   */\n      dup3\n        /* \"#utility.yul\":12570:12576   */\n      dup3\n        /* \"#utility.yul\":12564:12568   */\n      dup6\n        /* \"#utility.yul\":12518:12585   */\n      tag_111\n      jump\t// in\n    tag_251:\n        /* \"#utility.yul\":12612:12613   */\n      0x00\n        /* \"#utility.yul\":12636:12640   */\n      0x20\n        /* \"#utility.yul\":12623:12640   */\n      swap1\n      pop\n        /* \"#utility.yul\":12668:12670   */\n      0x1f\n        /* \"#utility.yul\":12660:12666   */\n      dup4\n        /* \"#utility.yul\":12657:12671   */\n      gt\n        /* \"#utility.yul\":12685:12686   */\n      0x01\n        /* \"#utility.yul\":12680:13298   */\n      dup2\n      eq\n      tag_253\n      jumpi\n        /* \"#utility.yul\":13342:13343   */\n      0x00\n        /* \"#utility.yul\":13359:13365   */\n      dup5\n        /* \"#utility.yul\":13356:13433   */\n      iszero\n      tag_254\n      jumpi\n        /* \"#utility.yul\":13408:13417   */\n      dup3\n        /* \"#utility.yul\":13403:13406   */\n      dup8\n        /* \"#utility.yul\":13399:13418   */\n      add\n        /* \"#utility.yul\":13393:13419   */\n      mload\n        /* \"#utility.yul\":13384:13419   */\n      swap1\n      pop\n        /* \"#utility.yul\":13356:13433   */\n    tag_254:\n        /* \"#utility.yul\":13459:13526   */\n      tag_255\n        /* \"#utility.yul\":13519:13525   */\n      dup6\n        /* \"#utility.yul\":13512:13517   */\n      dup3\n        /* \"#utility.yul\":13459:13526   */\n      tag_114\n      jump\t// in\n    tag_255:\n        /* \"#utility.yul\":13453:13457   */\n      dup7\n        /* \"#utility.yul\":13446:13527   */\n      sstore\n        /* \"#utility.yul\":13315:13537   */\n      pop\n        /* \"#utility.yul\":12650:13537   */\n      jump(tag_252)\n        /* \"#utility.yul\":12680:13298   */\n    tag_253:\n        /* \"#utility.yul\":12732:12736   */\n      0x1f\n        /* \"#utility.yul\":12728:12737   */\n      not\n        /* \"#utility.yul\":12720:12726   */\n      dup5\n        /* \"#utility.yul\":12716:12738   */\n      and\n        /* \"#utility.yul\":12766:12803   */\n      tag_256\n        /* \"#utility.yul\":12798:12802   */\n      dup7\n        /* \"#utility.yul\":12766:12803   */\n      tag_100\n      jump\t// in\n    tag_256:\n        /* \"#utility.yul\":12825:12826   */\n      0x00\n        /* \"#utility.yul\":12839:13047   */\n    tag_257:\n        /* \"#utility.yul\":12853:12860   */\n      dup3\n        /* \"#utility.yul\":12850:12851   */\n      dup2\n        /* \"#utility.yul\":12847:12861   */\n      lt\n        /* \"#utility.yul\":12839:13047   */\n      iszero\n      tag_259\n      jumpi\n        /* \"#utility.yul\":12932:12941   */\n      dup5\n        /* \"#utility.yul\":12927:12930   */\n      dup10\n        /* \"#utility.yul\":12923:12942   */\n      add\n        /* \"#utility.yul\":12917:12943   */\n      mload\n        /* \"#utility.yul\":12909:12915   */\n      dup3\n        /* \"#utility.yul\":12902:12944   */\n      sstore\n        /* \"#utility.yul\":12983:12984   */\n      0x01\n        /* \"#utility.yul\":12975:12981   */\n      dup3\n        /* \"#utility.yul\":12971:12985   */\n      add\n        /* \"#utility.yul\":12961:12985   */\n      swap2\n      pop\n        /* \"#utility.yul\":13030:13032   */\n      0x20\n        /* \"#utility.yul\":13019:13028   */\n      dup6\n        /* \"#utility.yul\":13015:13033   */\n      add\n        /* \"#utility.yul\":13002:13033   */\n      swap5\n      pop\n        /* \"#utility.yul\":12876:12880   */\n      0x20\n        /* \"#utility.yul\":12873:12874   */\n      dup2\n        /* \"#utility.yul\":12869:12881   */\n      add\n        /* \"#utility.yul\":12864:12881   */\n      swap1\n      pop\n        /* \"#utility.yul\":12839:13047   */\n      jump(tag_257)\n    tag_259:\n        /* \"#utility.yul\":13075:13081   */\n      dup7\n        /* \"#utility.yul\":13066:13073   */\n      dup4\n        /* \"#utility.yul\":13063:13082   */\n      lt\n        /* \"#utility.yul\":13060:13239   */\n      iszero\n      tag_260\n      jumpi\n        /* \"#utility.yul\":13133:13142   */\n      dup5\n        /* \"#utility.yul\":13128:13131   */\n      dup10\n        /* \"#utility.yul\":13124:13143   */\n      add\n        /* \"#utility.yul\":13118:13144   */\n      mload\n        /* \"#utility.yul\":13176:13224   */\n      tag_261\n        /* \"#utility.yul\":13218:13222   */\n      0x1f\n        /* \"#utility.yul\":13210:13216   */\n      dup10\n        /* \"#utility.yul\":13206:13223   */\n      and\n        /* \"#utility.yul\":13195:13204   */\n      dup3\n        /* \"#utility.yul\":13176:13224   */\n      tag_113\n      jump\t// in\n    tag_261:\n        /* \"#utility.yul\":13168:13174   */\n      dup4\n        /* \"#utility.yul\":13161:13225   */\n      sstore\n        /* \"#utility.yul\":13083:13239   */\n      pop\n        /* \"#utility.yul\":13060:13239   */\n    tag_260:\n        /* \"#utility.yul\":13285:13286   */\n      0x01\n        /* \"#utility.yul\":13281:13282   */\n      0x02\n        /* \"#utility.yul\":13273:13279   */\n      dup9\n        /* \"#utility.yul\":13269:13283   */\n      mul\n        /* \"#utility.yul\":13265:13287   */\n      add\n        /* \"#utility.yul\":13259:13263   */\n      dup9\n        /* \"#utility.yul\":13252:13288   */\n      sstore\n        /* \"#utility.yul\":12687:13298   */\n      pop\n      pop\n      pop\n        /* \"#utility.yul\":12650:13537   */\n    tag_252:\n      pop\n        /* \"#utility.yul\":12240:13543   */\n      pop\n      pop\n      pop\n        /* \"#utility.yul\":12148:13543   */\n      pop\n      pop\n      jump\t// out\n\n    auxdata: 0xa26469706673582212205dacb269a2d421fb4ec2aea2723facae2f5034be1224c4267ed452db9a8bf8ab64736f6c634300081a0033\n}\n",
				"bytecode": {
					"linkReferences": {},
					"object": "6080604052348015600e575f80fd5b50610b4f8061001c5f395ff3fe608060405234801561000f575f80fd5b506004361061007b575f3560e01c8063534e934b11610059578063534e934b146100fe5780636057361d1461012e5780636f760f411461014a5780638bab8dd5146101665761007b565b8063240fed701461007f5780632e64cec1146100af5780632ebce631146100cd575b5f80fd5b61009960048036038101906100949190610464565b610196565b6040516100a69190610548565b60405180910390f35b6100b7610269565b6040516100c49190610577565b60405180910390f35b6100e760048036038101906100e29190610464565b610271565b6040516100f59291906105d8565b60405180910390f35b61011860048036038101906101139190610732565b610326565b6040516101259190610577565b60405180910390f35b61014860048036038101906101439190610464565b61034d565b005b610164600480360381019061015f9190610779565b610356565b005b610180600480360381019061017b9190610732565b6103da565b60405161018d9190610577565b60405180910390f35b61019e610407565b600182815481106101b2576101b16107d3565b5b905f5260205f2090600202016040518060400160405290815f82015481526020016001820180546101e29061082d565b80601f016020809104026020016040519081016040528092919081815260200182805461020e9061082d565b80156102595780601f1061023057610100808354040283529160200191610259565b820191905f5260205f20905b81548152906001019060200180831161023c57829003601f168201915b5050505050815250509050919050565b5f8054905090565b60018181548110610280575f80fd5b905f5260205f2090600202015f91509050805f0154908060010180546102a59061082d565b80601f01602080910402602001604051908101604052809291908181526020018280546102d19061082d565b801561031c5780601f106102f35761010080835404028352916020019161031c565b820191905f5260205f20905b8154815290600101906020018083116102ff57829003601f168201915b5050505050905082565b5f6002826040516103379190610897565b9081526020016040518091039020549050919050565b805f8190555050565b6001604051806040016040528083815260200184815250908060018154018082558091505060019003905f5260205f2090600202015f909190919091505f820151815f015560208201518160010190816103b09190610a4a565b505050806002836040516103c49190610897565b9081526020016040518091039020819055505050565b6002818051602081018201805184825260208301602085012081835280955050505050505f915090505481565b60405180604001604052805f8152602001606081525090565b5f604051905090565b5f80fd5b5f80fd5b5f819050919050565b61044381610431565b811461044d575f80fd5b50565b5f8135905061045e8161043a565b92915050565b5f6020828403121561047957610478610429565b5b5f61048684828501610450565b91505092915050565b61049881610431565b82525050565b5f81519050919050565b5f82825260208201905092915050565b8281835e5f83830152505050565b5f601f19601f8301169050919050565b5f6104e08261049e565b6104ea81856104a8565b93506104fa8185602086016104b8565b610503816104c6565b840191505092915050565b5f604083015f8301516105235f86018261048f565b506020830151848203602086015261053b82826104d6565b9150508091505092915050565b5f6020820190508181035f830152610560818461050e565b905092915050565b61057181610431565b82525050565b5f60208201905061058a5f830184610568565b92915050565b5f82825260208201905092915050565b5f6105aa8261049e565b6105b48185610590565b93506105c48185602086016104b8565b6105cd816104c6565b840191505092915050565b5f6040820190506105eb5f830185610568565b81810360208301526105fd81846105a0565b90509392505050565b5f80fd5b5f80fd5b7f4e487b71000000000000000000000000000000000000000000000000000000005f52604160045260245ffd5b610644826104c6565b810181811067ffffffffffffffff821117156106635761066261060e565b5b80604052505050565b5f610675610420565b9050610681828261063b565b919050565b5f67ffffffffffffffff8211156106a05761069f61060e565b5b6106a9826104c6565b9050602081019050919050565b828183375f83830152505050565b5f6106d66106d184610686565b61066c565b9050828152602081018484840111156106f2576106f161060a565b5b6106fd8482856106b6565b509392505050565b5f82601f83011261071957610718610606565b5b81356107298482602086016106c4565b91505092915050565b5f6020828403121561074757610746610429565b5b5f82013567ffffffffffffffff8111156107645761076361042d565b5b61077084828501610705565b91505092915050565b5f806040838503121561078f5761078e610429565b5b5f83013567ffffffffffffffff8111156107ac576107ab61042d565b5b6107b885828601610705565b92505060206107c985828601610450565b9150509250929050565b7f4e487b71000000000000000000000000000000000000000000000000000000005f52603260045260245ffd5b7f4e487b71000000000000000000000000000000000000000000000000000000005f52602260045260245ffd5b5f600282049050600182168061084457607f821691505b60208210810361085757610856610800565b5b50919050565b5f81905092915050565b5f6108718261049e565b61087b818561085d565b935061088b8185602086016104b8565b80840191505092915050565b5f6108a28284610867565b915081905092915050565b5f819050815f5260205f209050919050565b5f6020601f8301049050919050565b5f82821b905092915050565b5f600883026109097fffffffffffffffffffffffffffffffffffffffffffffffffffffffffffffffff826108ce565b61091386836108ce565b95508019841693508086168417925050509392505050565b5f819050919050565b5f61094e61094961094484610431565b61092b565b610431565b9050919050565b5f819050919050565b61096783610934565b61097b61097382610955565b8484546108da565b825550505050565b5f90565b61098f610983565b61099a81848461095e565b505050565b5b818110156109bd576109b25f82610987565b6001810190506109a0565b5050565b601f821115610a02576109d3816108ad565b6109dc846108bf565b810160208510156109eb578190505b6109ff6109f7856108bf565b83018261099f565b50505b505050565b5f82821c905092915050565b5f610a225f1984600802610a07565b1980831691505092915050565b5f610a3a8383610a13565b9150826002028217905092915050565b610a538261049e565b67ffffffffffffffff811115610a6c57610a6b61060e565b5b610a76825461082d565b610a818282856109c1565b5f60209050601f831160018114610ab2575f8415610aa0578287015190505b610aaa8582610a2f565b865550610b11565b601f198416610ac0866108ad565b5f5b82811015610ae757848901518255600182019150602085019450602081019050610ac2565b86831015610b045784890151610b00601f891682610a13565b8355505b6001600288020188555050505b50505050505056fea26469706673582212205dacb269a2d421fb4ec2aea2723facae2f5034be1224c4267ed452db9a8bf8ab64736f6c634300081a0033",
					"opcodes": "PUSH1 0x80 PUSH1 0x40 MSTORE CALLVALUE DUP1 ISZERO PUSH1 0xE JUMPI PUSH0 DUP1 REVERT JUMPDEST POP PUSH2 0xB4F DUP1 PUSH2 0x1C PUSH0 CODECOPY PUSH0 RETURN INVALID PUSH1 0x80 PUSH1 0x40 MSTORE CALLVALUE DUP1 ISZERO PUSH2 0xF JUMPI PUSH0 DUP1 REVERT JUMPDEST POP PUSH1 0x4 CALLDATASIZE LT PUSH2 0x7B JUMPI PUSH0 CALLDATALOAD PUSH1 0xE0 SHR DUP1 PUSH4 0x534E934B GT PUSH2 0x59 JUMPI DUP1 PUSH4 0x534E934B EQ PUSH2 0xFE JUMPI DUP1 PUSH4 0x6057361D EQ PUSH2 0x12E JUMPI DUP1 PUSH4 0x6F760F41 EQ PUSH2 0x14A JUMPI DUP1 PUSH4 0x8BAB8DD5 EQ PUSH2 0x166 JUMPI PUSH2 0x7B JUMP JUMPDEST DUP1 PUSH4 0x240FED70 EQ PUSH2 0x7F JUMPI DUP1 PUSH4 0x2E64CEC1 EQ PUSH2 0xAF JUMPI DUP1 PUSH4 0x2EBCE631 EQ PUSH2 0xCD JUMPI JUMPDEST PUSH0 DUP1 REVERT JUMPDEST PUSH2 0x99 PUSH1 0x4 DUP1 CALLDATASIZE SUB DUP2 ADD SWAP1 PUSH2 0x94 SWAP2 SWAP1 PUSH2 0x464 JUMP JUMPDEST PUSH2 0x196 JUMP JUMPDEST PUSH1 0x40 MLOAD PUSH2 0xA6 SWAP2 SWAP1 PUSH2 0x548 JUMP JUMPDEST PUSH1 0x40 MLOAD DUP1 SWAP2 SUB SWAP1 RETURN JUMPDEST PUSH2 0xB7 PUSH2 0x269 JUMP JUMPDEST PUSH1 0x40 MLOAD PUSH2 0xC4 SWAP2 SWAP1 PUSH2 0x577 JUMP JUMPDEST PUSH1 0x40 MLOAD DUP1 SWAP2 SUB SWAP1 RETURN JUMPDEST PUSH2 0xE7 PUSH1 0x4 DUP1 CALLDATASIZE SUB DUP2 ADD SWAP1 PUSH2 0xE2 SWAP2 SWAP1 PUSH2 0x464 JUMP JUMPDEST PUSH2 0x271 JUMP JUMPDEST PUSH1 0x40 MLOAD PUSH2 0xF5 SWAP3 SWAP2 SWAP1 PUSH2 0x5D8 JUMP JUMPDEST PUSH1 0x40 MLOAD DUP1 SWAP2 SUB SWAP1 RETURN JUMPDEST PUSH2 0x118 PUSH1 0x4 DUP1 CALLDATASIZE SUB DUP2 ADD SWAP1 PUSH2 0x113 SWAP2 SWAP1 PUSH2 0x732 JUMP JUMPDEST PUSH2 0x326 JUMP JUMPDEST PUSH1 0x40 MLOAD PUSH2 0x125 SWAP2 SWAP1 PUSH2 0x577 JUMP JUMPDEST PUSH1 0x40 MLOAD DUP1 SWAP2 SUB SWAP1 RETURN JUMPDEST PUSH2 0x148 PUSH1 0x4 DUP1 CALLDATASIZE SUB DUP2 ADD SWAP1 PUSH2 0x143 SWAP2 SWAP1 PUSH2 0x464 JUMP JUMPDEST PUSH2 0x34D JUMP JUMPDEST STOP JUMPDEST PUSH2 0x164 PUSH1 0x4 DUP1 CALLDATASIZE SUB DUP2 ADD SWAP1 PUSH2 0x15F SWAP2 SWAP1 PUSH2 0x779 JUMP JUMPDEST PUSH2 0x356 JUMP JUMPDEST STOP JUMPDEST PUSH2 0x180 PUSH1 0x4 DUP1 CALLDATASIZE SUB DUP2 ADD SWAP1 PUSH2 0x17B SWAP2 SWAP1 PUSH2 0x732 JUMP JUMPDEST PUSH2 0x3DA JUMP JUMPDEST PUSH1 0x40 MLOAD PUSH2 0x18D SWAP2 SWAP1 PUSH2 0x577 JUMP JUMPDEST PUSH1 0x40 MLOAD DUP1 SWAP2 SUB SWAP1 RETURN JUMPDEST PUSH2 0x19E PUSH2 0x407 JUMP JUMPDEST PUSH1 0x1 DUP3 DUP2 SLOAD DUP2 LT PUSH2 0x1B2 JUMPI PUSH2 0x1B1 PUSH2 0x7D3 JUMP JUMPDEST JUMPDEST SWAP1 PUSH0 MSTORE PUSH1 0x20 PUSH0 KECCAK256 SWAP1 PUSH1 0x2 MUL ADD PUSH1 0x40 MLOAD DUP1 PUSH1 0x40 ADD PUSH1 0x40 MSTORE SWAP1 DUP2 PUSH0 DUP3 ADD SLOAD DUP2 MSTORE PUSH1 0x20 ADD PUSH1 0x1 DUP3 ADD DUP1 SLOAD PUSH2 0x1E2 SWAP1 PUSH2 0x82D JUMP JUMPDEST DUP1 PUSH1 0x1F ADD PUSH1 0x20 DUP1 SWAP2 DIV MUL PUSH1 0x20 ADD PUSH1 0x40 MLOAD SWAP1 DUP2 ADD PUSH1 0x40 MSTORE DUP1 SWAP3 SWAP2 SWAP1 DUP2 DUP2 MSTORE PUSH1 0x20 ADD DUP3 DUP1 SLOAD PUSH2 0x20E SWAP1 PUSH2 0x82D JUMP JUMPDEST DUP1 ISZERO PUSH2 0x259 JUMPI DUP1 PUSH1 0x1F LT PUSH2 0x230 JUMPI PUSH2 0x100 DUP1 DUP4 SLOAD DIV MUL DUP4 MSTORE SWAP2 PUSH1 0x20 ADD SWAP2 PUSH2 0x259 JUMP JUMPDEST DUP3 ADD SWAP2 SWAP1 PUSH0 MSTORE PUSH1 0x20 PUSH0 KECCAK256 SWAP1 JUMPDEST DUP2 SLOAD DUP2 MSTORE SWAP1 PUSH1 0x1 ADD SWAP1 PUSH1 0x20 ADD DUP1 DUP4 GT PUSH2 0x23C JUMPI DUP3 SWAP1 SUB PUSH1 0x1F AND DUP3 ADD SWAP2 JUMPDEST POP POP POP POP POP DUP2 MSTORE POP POP SWAP1 POP SWAP2 SWAP1 POP JUMP JUMPDEST PUSH0 DUP1 SLOAD SWAP1 POP SWAP1 JUMP JUMPDEST PUSH1 0x1 DUP2 DUP2 SLOAD DUP2 LT PUSH2 0x280 JUMPI PUSH0 DUP1 REVERT JUMPDEST SWAP1 PUSH0 MSTORE PUSH1 0x20 PUSH0 KECCAK256 SWAP1 PUSH1 0x2 MUL ADD PUSH0 SWAP2 POP SWAP1 POP DUP1 PUSH0 ADD SLOAD SWAP1 DUP1 PUSH1 0x1 ADD DUP1 SLOAD PUSH2 0x2A5 SWAP1 PUSH2 0x82D JUMP JUMPDEST DUP1 PUSH1 0x1F ADD PUSH1 0x20 DUP1 SWAP2 DIV MUL PUSH1 0x20 ADD PUSH1 0x40 MLOAD SWAP1 DUP2 ADD PUSH1 0x40 MSTORE DUP1 SWAP3 SWAP2 SWAP1 DUP2 DUP2 MSTORE PUSH1 0x20 ADD DUP3 DUP1 SLOAD PUSH2 0x2D1 SWAP1 PUSH2 0x82D JUMP JUMPDEST DUP1 ISZERO PUSH2 0x31C JUMPI DUP1 PUSH1 0x1F LT PUSH2 0x2F3 JUMPI PUSH2 0x100 DUP1 DUP4 SLOAD DIV MUL DUP4 MSTORE SWAP2 PUSH1 0x20 ADD SWAP2 PUSH2 0x31C JUMP JUMPDEST DUP3 ADD SWAP2 SWAP1 PUSH0 MSTORE PUSH1 0x20 PUSH0 KECCAK256 SWAP1 JUMPDEST DUP2 SLOAD DUP2 MSTORE SWAP1 PUSH1 0x1 ADD SWAP1 PUSH1 0x20 ADD DUP1 DUP4 GT PUSH2 0x2FF JUMPI DUP3 SWAP1 SUB PUSH1 0x1F AND DUP3 ADD SWAP2 JUMPDEST POP POP POP POP POP SWAP1 POP DUP3 JUMP JUMPDEST PUSH0 PUSH1 0x2 DUP3 PUSH1 0x40 MLOAD PUSH2 0x337 SWAP2 SWAP1 PUSH2 0x897 JUMP JUMPDEST SWAP1 DUP2 MSTORE PUSH1 0x20 ADD PUSH1 0x40 MLOAD DUP1 SWAP2 SUB SWAP1 KECCAK256 SLOAD SWAP1 POP SWAP2 SWAP1 POP JUMP JUMPDEST DUP1 PUSH0 DUP2 SWAP1 SSTORE POP POP JUMP JUMPDEST PUSH1 0x1 PUSH1 0x40 MLOAD DUP1 PUSH1 0x40 ADD PUSH1 0x40 MSTORE DUP1 DUP4 DUP2 MSTORE PUSH1 0x20 ADD DUP5 DUP2 MSTORE POP SWAP1 DUP1 PUSH1 0x1 DUP2 SLOAD ADD DUP1 DUP3 SSTORE DUP1 SWAP2 POP POP PUSH1 0x1 SWAP1 SUB SWAP1 PUSH0 MSTORE PUSH1 0x20 PUSH0 KECCAK256 SWAP1 PUSH1 0x2 MUL ADD PUSH0 SWAP1 SWAP2 SWAP1 SWAP2 SWAP1 SWAP2 POP PUSH0 DUP3 ADD MLOAD DUP2 PUSH0 ADD SSTORE PUSH1 0x20 DUP3 ADD MLOAD DUP2 PUSH1 0x1 ADD SWAP1 DUP2 PUSH2 0x3B0 SWAP2 SWAP1 PUSH2 0xA4A JUMP JUMPDEST POP POP POP DUP1 PUSH1 0x2 DUP4 PUSH1 0x40 MLOAD PUSH2 0x3C4 SWAP2 SWAP1 PUSH2 0x897 JUMP JUMPDEST SWAP1 DUP2 MSTORE PUSH1 0x20 ADD PUSH1 0x40 MLOAD DUP1 SWAP2 SUB SWAP1 KECCAK256 DUP2 SWAP1 SSTORE POP POP POP JUMP JUMPDEST PUSH1 0x2 DUP2 DUP1 MLOAD PUSH1 0x20 DUP2 ADD DUP3 ADD DUP1 MLOAD DUP5 DUP3 MSTORE PUSH1 0x20 DUP4 ADD PUSH1 0x20 DUP6 ADD KECCAK256 DUP2 DUP4 MSTORE DUP1 SWAP6 POP POP POP POP POP POP PUSH0 SWAP2 POP SWAP1 POP SLOAD DUP2 JUMP JUMPDEST PUSH1 0x40 MLOAD DUP1 PUSH1 0x40 ADD PUSH1 0x40 MSTORE DUP1 PUSH0 DUP2 MSTORE PUSH1 0x20 ADD PUSH1 0x60 DUP2 MSTORE POP SWAP1 JUMP JUMPDEST PUSH0 PUSH1 0x40 MLOAD SWAP1 POP SWAP1 JUMP JUMPDEST PUSH0 DUP1 REVERT JUMPDEST PUSH0 DUP1 REVERT JUMPDEST PUSH0 DUP2 SWAP1 POP SWAP2 SWAP1 POP JUMP JUMPDEST PUSH2 0x443 DUP2 PUSH2 0x431 JUMP JUMPDEST DUP2 EQ PUSH2 0x44D JUMPI PUSH0 DUP1 REVERT JUMPDEST POP JUMP JUMPDEST PUSH0 DUP2 CALLDATALOAD SWAP1 POP PUSH2 0x45E DUP2 PUSH2 0x43A JUMP JUMPDEST SWAP3 SWAP2 POP POP JUMP JUMPDEST PUSH0 PUSH1 0x20 DUP3 DUP5 SUB SLT ISZERO PUSH2 0x479 JUMPI PUSH2 0x478 PUSH2 0x429 JUMP JUMPDEST JUMPDEST PUSH0 PUSH2 0x486 DUP5 DUP3 DUP6 ADD PUSH2 0x450 JUMP JUMPDEST SWAP2 POP POP SWAP3 SWAP2 POP POP JUMP JUMPDEST PUSH2 0x498 DUP2 PUSH2 0x431 JUMP JUMPDEST DUP3 MSTORE POP POP JUMP JUMPDEST PUSH0 DUP2 MLOAD SWAP1 POP SWAP2 SWAP1 POP JUMP JUMPDEST PUSH0 DUP3 DUP3 MSTORE PUSH1 0x20 DUP3 ADD SWAP1 POP SWAP3 SWAP2 POP POP JUMP JUMPDEST DUP3 DUP2 DUP4 MCOPY PUSH0 DUP4 DUP4 ADD MSTORE POP POP POP JUMP JUMPDEST PUSH0 PUSH1 0x1F NOT PUSH1 0x1F DUP4 ADD AND SWAP1 POP SWAP2 SWAP1 POP JUMP JUMPDEST PUSH0 PUSH2 0x4E0 DUP3 PUSH2 0x49E JUMP JUMPDEST PUSH2 0x4EA DUP2 DUP6 PUSH2 0x4A8 JUMP JUMPDEST SWAP4 POP PUSH2 0x4FA DUP2 DUP6 PUSH1 0x20 DUP7 ADD PUSH2 0x4B8 JUMP JUMPDEST PUSH2 0x503 DUP2 PUSH2 0x4C6 JUMP JUMPDEST DUP5 ADD SWAP2 POP POP SWAP3 SWAP2 POP POP JUMP JUMPDEST PUSH0 PUSH1 0x40 DUP4 ADD PUSH0 DUP4 ADD MLOAD PUSH2 0x523 PUSH0 DUP7 ADD DUP3 PUSH2 0x48F JUMP JUMPDEST POP PUSH1 0x20 DUP4 ADD MLOAD DUP5 DUP3 SUB PUSH1 0x20 DUP7 ADD MSTORE PUSH2 0x53B DUP3 DUP3 PUSH2 0x4D6 JUMP JUMPDEST SWAP2 POP POP DUP1 SWAP2 POP POP SWAP3 SWAP2 POP POP JUMP JUMPDEST PUSH0 PUSH1 0x20 DUP3 ADD SWAP1 POP DUP2 DUP2 SUB PUSH0 DUP4 ADD MSTORE PUSH2 0x560 DUP2 DUP5 PUSH2 0x50E JUMP JUMPDEST SWAP1 POP SWAP3 SWAP2 POP POP JUMP JUMPDEST PUSH2 0x571 DUP2 PUSH2 0x431 JUMP JUMPDEST DUP3 MSTORE POP POP JUMP JUMPDEST PUSH0 PUSH1 0x20 DUP3 ADD SWAP1 POP PUSH2 0x58A PUSH0 DUP4 ADD DUP5 PUSH2 0x568 JUMP JUMPDEST SWAP3 SWAP2 POP POP JUMP JUMPDEST PUSH0 DUP3 DUP3 MSTORE PUSH1 0x20 DUP3 ADD SWAP1 POP SWAP3 SWAP2 POP POP JUMP JUMPDEST PUSH0 PUSH2 0x5AA DUP3 PUSH2 0x49E JUMP JUMPDEST PUSH2 0x5B4 DUP2 DUP6 PUSH2 0x590 JUMP JUMPDEST SWAP4 POP PUSH2 0x5C4 DUP2 DUP6 PUSH1 0x20 DUP7 ADD PUSH2 0x4B8 JUMP JUMPDEST PUSH2 0x5CD DUP2 PUSH2 0x4C6 JUMP JUMPDEST DUP5 ADD SWAP2 POP POP SWAP3 SWAP2 POP POP JUMP JUMPDEST PUSH0 PUSH1 0x40 DUP3 ADD SWAP1 POP PUSH2 0x5EB PUSH0 DUP4 ADD DUP6 PUSH2 0x568 JUMP JUMPDEST DUP2 DUP2 SUB PUSH1 0x20 DUP4 ADD MSTORE PUSH2 0x5FD DUP2 DUP5 PUSH2 0x5A0 JUMP JUMPDEST SWAP1 POP SWAP4 SWAP3 POP POP POP JUMP JUMPDEST PUSH0 DUP1 REVERT JUMPDEST PUSH0 DUP1 REVERT JUMPDEST PUSH32 0x4E487B7100000000000000000000000000000000000000000000000000000000 PUSH0 MSTORE PUSH1 0x41 PUSH1 0x4 MSTORE PUSH1 0x24 PUSH0 REVERT JUMPDEST PUSH2 0x644 DUP3 PUSH2 0x4C6 JUMP JUMPDEST DUP2 ADD DUP2 DUP2 LT PUSH8 0xFFFFFFFFFFFFFFFF DUP3 GT OR ISZERO PUSH2 0x663 JUMPI PUSH2 0x662 PUSH2 0x60E JUMP JUMPDEST JUMPDEST DUP1 PUSH1 0x40 MSTORE POP POP POP JUMP JUMPDEST PUSH0 PUSH2 0x675 PUSH2 0x420 JUMP JUMPDEST SWAP1 POP PUSH2 0x681 DUP3 DUP3 PUSH2 0x63B JUMP JUMPDEST SWAP2 SWAP1 POP JUMP JUMPDEST PUSH0 PUSH8 0xFFFFFFFFFFFFFFFF DUP3 GT ISZERO PUSH2 0x6A0 JUMPI PUSH2 0x69F PUSH2 0x60E JUMP JUMPDEST JUMPDEST PUSH2 0x6A9 DUP3 PUSH2 0x4C6 JUMP JUMPDEST SWAP1 POP PUSH1 0x20 DUP2 ADD SWAP1 POP SWAP2 SWAP1 POP JUMP JUMPDEST DUP3 DUP2 DUP4 CALLDATACOPY PUSH0 DUP4 DUP4 ADD MSTORE POP POP POP JUMP JUMPDEST PUSH0 PUSH2 0x6D6 PUSH2 0x6D1 DUP5 PUSH2 0x686 JUMP JUMPDEST PUSH2 0x66C JUMP JUMPDEST SWAP1 POP DUP3 DUP2 MSTORE PUSH1 0x20 DUP2 ADD DUP5 DUP5 DUP5 ADD GT ISZERO PUSH2 0x6F2 JUMPI PUSH2 0x6F1 PUSH2 0x60A JUMP JUMPDEST JUMPDEST PUSH2 0x6FD DUP5 DUP3 DUP6 PUSH2 0x6B6 JUMP JUMPDEST POP SWAP4 SWAP3 POP POP POP JUMP JUMPDEST PUSH0 DUP3 PUSH1 0x1F DUP4 ADD SLT PUSH2 0x719 JUMPI PUSH2 0x718 PUSH2 0x606 JUMP JUMPDEST JUMPDEST DUP2 CALLDATALOAD PUSH2 0x729 DUP5 DUP3 PUSH1 0x20 DUP7 ADD PUSH2 0x6C4 JUMP JUMPDEST SWAP2 POP POP SWAP3 SWAP2 POP POP JUMP JUMPDEST PUSH0 PUSH1 0x20 DUP3 DUP5 SUB SLT ISZERO PUSH2 0x747 JUMPI PUSH2 0x746 PUSH2 0x429 JUMP JUMPDEST JUMPDEST PUSH0 DUP3 ADD CALLDATALOAD PUSH8 0xFFFFFFFFFFFFFFFF DUP2 GT ISZERO PUSH2 0x764 JUMPI PUSH2 0x763 PUSH2 0x42D JUMP JUMPDEST JUMPDEST PUSH2 0x770 DUP5 DUP3 DUP6 ADD PUSH2 0x705 JUMP JUMPDEST SWAP2 POP POP SWAP3 SWAP2 POP POP JUMP JUMPDEST PUSH0 DUP1 PUSH1 0x40 DUP4 DUP6 SUB SLT ISZERO PUSH2 0x78F JUMPI PUSH2 0x78E PUSH2 0x429 JUMP JUMPDEST JUMPDEST PUSH0 DUP4 ADD CALLDATALOAD PUSH8 0xFFFFFFFFFFFFFFFF DUP2 GT ISZERO PUSH2 0x7AC JUMPI PUSH2 0x7AB PUSH2 0x42D JUMP JUMPDEST JUMPDEST PUSH2 0x7B8 DUP6 DUP3 DUP7 ADD PUSH2 0x705 JUMP JUMPDEST SWAP3 POP POP PUSH1 0x20 PUSH2 0x7C9 DUP6 DUP3 DUP7 ADD PUSH2 0x450 JUMP JUMPDEST SWAP2 POP POP SWAP3 POP SWAP3 SWAP1 POP JUMP JUMPDEST PUSH32 0x4E487B7100000000000000000000000000000000000000000000000000000000 PUSH0 MSTORE PUSH1 0x32 PUSH1 0x4 MSTORE PUSH1 0x24 PUSH0 REVERT JUMPDEST PUSH32 0x4E487B7100000000000000000000000000000000000000000000000000000000 PUSH0 MSTORE PUSH1 0x22 PUSH1 0x4 MSTORE PUSH1 0x24 PUSH0 REVERT JUMPDEST PUSH0 PUSH1 0x2 DUP3 DIV SWAP1 POP PUSH1 0x1 DUP3 AND DUP1 PUSH2 0x844 JUMPI PUSH1 0x7F DUP3 AND SWAP2 POP JUMPDEST PUSH1 0x20 DUP3 LT DUP2 SUB PUSH2 0x857 JUMPI PUSH2 0x856 PUSH2 0x800 JUMP JUMPDEST JUMPDEST POP SWAP2 SWAP1 POP JUMP JUMPDEST PUSH0 DUP2 SWAP1 POP SWAP3 SWAP2 POP POP JUMP JUMPDEST PUSH0 PUSH2 0x871 DUP3 PUSH2 0x49E JUMP JUMPDEST PUSH2 0x87B DUP2 DUP6 PUSH2 0x85D JUMP JUMPDEST SWAP4 POP PUSH2 0x88B DUP2 DUP6 PUSH1 0x20 DUP7 ADD PUSH2 0x4B8 JUMP JUMPDEST DUP1 DUP5 ADD SWAP2 POP POP SWAP3 SWAP2 POP POP JUMP JUMPDEST PUSH0 PUSH2 0x8A2 DUP3 DUP5 PUSH2 0x867 JUMP JUMPDEST SWAP2 POP DUP2 SWAP1 POP SWAP3 SWAP2 POP POP JUMP JUMPDEST PUSH0 DUP2 SWAP1 POP DUP2 PUSH0 MSTORE PUSH1 0x20 PUSH0 KECCAK256 SWAP1 POP SWAP2 SWAP1 POP JUMP JUMPDEST PUSH0 PUSH1 0x20 PUSH1 0x1F DUP4 ADD DIV SWAP1 POP SWAP2 SWAP1 POP JUMP JUMPDEST PUSH0 DUP3 DUP3 SHL SWAP1 POP SWAP3 SWAP2 POP POP JUMP JUMPDEST PUSH0 PUSH1 0x8 DUP4 MUL PUSH2 0x909 PUSH32 0xFFFFFFFFFFFFFFFFFFFFFFFFFFFFFFFFFFFFFFFFFFFFFFFFFFFFFFFFFFFFFFFF DUP3 PUSH2 0x8CE JUMP JUMPDEST PUSH2 0x913 DUP7 DUP4 PUSH2 0x8CE JUMP JUMPDEST SWAP6 POP DUP1 NOT DUP5 AND SWAP4 POP DUP1 DUP7 AND DUP5 OR SWAP3 POP POP POP SWAP4 SWAP3 POP POP POP JUMP JUMPDEST PUSH0 DUP2 SWAP1 POP SWAP2 SWAP1 POP JUMP JUMPDEST PUSH0 PUSH2 0x94E PUSH2 0x949 PUSH2 0x944 DUP5 PUSH2 0x431 JUMP JUMPDEST PUSH2 0x92B JUMP JUMPDEST PUSH2 0x431 JUMP JUMPDEST SWAP1 POP SWAP2 SWAP1 POP JUMP JUMPDEST PUSH0 DUP2 SWAP1 POP SWAP2 SWAP1 POP JUMP JUMPDEST PUSH2 0x967 DUP4 PUSH2 0x934 JUMP JUMPDEST PUSH2 0x97B PUSH2 0x973 DUP3 PUSH2 0x955 JUMP JUMPDEST DUP5 DUP5 SLOAD PUSH2 0x8DA JUMP JUMPDEST DUP3 SSTORE POP POP POP POP JUMP JUMPDEST PUSH0 SWAP1 JUMP JUMPDEST PUSH2 0x98F PUSH2 0x983 JUMP JUMPDEST PUSH2 0x99A DUP2 DUP5 DUP5 PUSH2 0x95E JUMP JUMPDEST POP POP POP JUMP JUMPDEST JUMPDEST DUP2 DUP2 LT ISZERO PUSH2 0x9BD JUMPI PUSH2 0x9B2 PUSH0 DUP3 PUSH2 0x987 JUMP JUMPDEST PUSH1 0x1 DUP2 ADD SWAP1 POP PUSH2 0x9A0 JUMP JUMPDEST POP POP JUMP JUMPDEST PUSH1 0x1F DUP3 GT ISZERO PUSH2 0xA02 JUMPI PUSH2 0x9D3 DUP2 PUSH2 0x8AD JUMP JUMPDEST PUSH2 0x9DC DUP5 PUSH2 0x8BF JUMP JUMPDEST DUP2 ADD PUSH1 0x20 DUP6 LT ISZERO PUSH2 0x9EB JUMPI DUP2 SWAP1 POP JUMPDEST PUSH2 0x9FF PUSH2 0x9F7 DUP6 PUSH2 0x8BF JUMP JUMPDEST DUP4 ADD DUP3 PUSH2 0x99F JUMP JUMPDEST POP POP JUMPDEST POP POP POP JUMP JUMPDEST PUSH0 DUP3 DUP3 SHR SWAP1 POP SWAP3 SWAP2 POP POP JUMP JUMPDEST PUSH0 PUSH2 0xA22 PUSH0 NOT DUP5 PUSH1 0x8 MUL PUSH2 0xA07 JUMP JUMPDEST NOT DUP1 DUP4 AND SWAP2 POP POP SWAP3 SWAP2 POP POP JUMP JUMPDEST PUSH0 PUSH2 0xA3A DUP4 DUP4 PUSH2 0xA13 JUMP JUMPDEST SWAP2 POP DUP3 PUSH1 0x2 MUL DUP3 OR SWAP1 POP SWAP3 SWAP2 POP POP JUMP JUMPDEST PUSH2 0xA53 DUP3 PUSH2 0x49E JUMP JUMPDEST PUSH8 0xFFFFFFFFFFFFFFFF DUP2 GT ISZERO PUSH2 0xA6C JUMPI PUSH2 0xA6B PUSH2 0x60E JUMP JUMPDEST JUMPDEST PUSH2 0xA76 DUP3 SLOAD PUSH2 0x82D JUMP JUMPDEST PUSH2 0xA81 DUP3 DUP3 DUP6 PUSH2 0x9C1 JUMP JUMPDEST PUSH0 PUSH1 0x20 SWAP1 POP PUSH1 0x1F DUP4 GT PUSH1 0x1 DUP2 EQ PUSH2 0xAB2 JUMPI PUSH0 DUP5 ISZERO PUSH2 0xAA0 JUMPI DUP3 DUP8 ADD MLOAD SWAP1 POP JUMPDEST PUSH2 0xAAA DUP6 DUP3 PUSH2 0xA2F JUMP JUMPDEST DUP7 SSTORE POP PUSH2 0xB11 JUMP JUMPDEST PUSH1 0x1F NOT DUP5 AND PUSH2 0xAC0 DUP7 PUSH2 0x8AD JUMP JUMPDEST PUSH0 JUMPDEST DUP3 DUP2 LT ISZERO PUSH2 0xAE7 JUMPI DUP5 DUP10 ADD MLOAD DUP3 SSTORE PUSH1 0x1 DUP3 ADD SWAP2 POP PUSH1 0x20 DUP6 ADD SWAP5 POP PUSH1 0x20 DUP2 ADD SWAP1 POP PUSH2 0xAC2 JUMP JUMPDEST DUP7 DUP4 LT ISZERO PUSH2 0xB04 JUMPI DUP5 DUP10 ADD MLOAD PUSH2 0xB00 PUSH1 0x1F DUP10 AND DUP3 PUSH2 0xA13 JUMP JUMPDEST DUP4 SSTORE POP JUMPDEST PUSH1 0x1 PUSH1 0x2 DUP9 MUL ADD DUP9 SSTORE POP POP POP JUMPDEST POP POP POP POP POP POP JUMP INVALID LOG2 PUSH5 0x6970667358 0x22 SLT KECCAK256 TSTORE 0xAC 0xB2 PUSH10 0xA2D421FB4EC2AEA2723F 0xAC 0xAE 0x2F POP CALLVALUE 0xBE SLT 0x24 0xC4 0x26 PUSH31 0xD452DB9A8BF8AB64736F6C634300081A003300000000000000000000000000 "
				},
				"gasEstimates": {
					"creation": {
						"codeDepositCost": "579000",
						"executionCost": "611",
						"totalCost": "579611"
					},
					"external": {
						"addPerson(string,uint256)": "infinite",
						"getListOfPeople(uint256)": "infinite",
						"getNameToFavoriteNumber(string)": "infinite",
						"listOfPeople(uint256)": "infinite",
						"nameToFavoriteNumber(string)": "infinite",
						"retrieve()": "2455",
						"store(uint256)": "22536"
					}
				},
				"methodIdentifiers": {
					"addPerson(string,uint256)": "6f760f41",
					"getListOfPeople(uint256)": "240fed70",
					"getNameToFavoriteNumber(string)": "534e934b",
					"listOfPeople(uint256)": "2ebce631",
					"nameToFavoriteNumber(string)": "8bab8dd5",
					"retrieve()": "2e64cec1",
					"store(uint256)": "6057361d"
				}
			},
			"storageLayout": {
				"storage": [
					{
						"astId": 118,
						"contract": "Contracts/SimpleStorage.sol:SimpleStorage",
						"label": "myFavoriteNumber",
						"offset": 0,
						"slot": "0",
						"type": "t_uint256"
					},
					{
						"astId": 122,
						"contract": "Contracts/SimpleStorage.sol:SimpleStorage",
						"label": "listOfPeople",
						"offset": 0,
						"slot": "1",
						"type": "t_array(t_struct(Person)116_storage)dyn_storage"
					},
					{
						"astId": 126,
						"contract": "Contracts/SimpleStorage.sol:SimpleStorage",
						"label": "nameToFavoriteNumber",
						"offset": 0,
						"slot": "2",
						"type": "t_mapping(t_string_memory_ptr,t_uint256)"
					}
				],
				"types": {
					"t_array(t_struct(Person)116_storage)dyn_storage": {
						"base": "t_struct(Person)116_storage",
						"encoding": "dynamic_array",
						"label": "struct Person[]",
						"numberOfBytes": "32"
					},
					"t_mapping(t_string_memory_ptr,t_uint256)": {
						"encoding": "mapping",
						"key": "t_string_memory_ptr",
						"label": "mapping(string => uint256)",
						"numberOfBytes": "32",
						"value": "t_uint256"
					},
					"t_string_memory_ptr": {
						"encoding": "bytes",
						"label": "string",
						"numberOfBytes": "32"
					},
					"t_string_storage": {
						"encoding": "bytes",
						"label": "string",
						"numberOfBytes": "32"
					},
					"t_struct(Person)116_storage": {
						"encoding": "inplace",
						"label": "struct Person",
						"members": [
							{
								"astId": 113,
								"contract": "Contracts/SimpleStorage.sol:SimpleStorage",
								"label": "favoriteNumber",
								"offset": 0,
								"slot": "0",
								"type": "t_uint256"
							},
							{
								"astId": 115,
								"contract": "Contracts/SimpleStorage.sol:SimpleStorage",
								"label": "name",
								"offset": 0,
								"slot": "1",
								"type": "t_string_storage"
							}
						],
						"numberOfBytes": "64"
					},
					"t_uint256": {
						"encoding": "inplace",
						"label": "uint256",
						"numberOfBytes": "32"
					}
				}
			},
			"userdoc": {
				"kind": "user",
				"methods": {},
				"version": 1
			}
		}
	}
}